{
  "_format": "hh-sol-artifact-1",
  "contractName": "DynamicLiquidTokenConverter",
  "sourceName": "contracts/bancor/converter/types/liquid-token/DynamicLiquidTokenConverter.sol",
  "abi": [
    {
      "inputs": [
        {
          "internalType": "contract IDSToken",
          "name": "_token",
          "type": "address"
        },
        {
          "internalType": "contract IContractRegistry",
          "name": "_registry",
          "type": "address"
        },
        {
          "internalType": "uint32",
          "name": "_maxConversionFee",
          "type": "uint32"
        }
      ],
      "stateMutability": "nonpayable",
      "type": "constructor"
    },
    {
      "anonymous": false,
      "inputs": [
        {
          "indexed": true,
          "internalType": "uint16",
          "name": "_type",
          "type": "uint16"
        },
        {
          "indexed": true,
          "internalType": "contract IConverterAnchor",
          "name": "_anchor",
          "type": "address"
        },
        {
          "indexed": true,
          "internalType": "bool",
          "name": "_activated",
          "type": "bool"
        }
      ],
      "name": "Activation",
      "type": "event"
    },
    {
      "anonymous": false,
      "inputs": [
        {
          "indexed": true,
          "internalType": "contract IERC20Token",
          "name": "_fromToken",
          "type": "address"
        },
        {
          "indexed": true,
          "internalType": "contract IERC20Token",
          "name": "_toToken",
          "type": "address"
        },
        {
          "indexed": true,
          "internalType": "address",
          "name": "_trader",
          "type": "address"
        },
        {
          "indexed": false,
          "internalType": "uint256",
          "name": "_amount",
          "type": "uint256"
        },
        {
          "indexed": false,
          "internalType": "uint256",
          "name": "_return",
          "type": "uint256"
        },
        {
          "indexed": false,
          "internalType": "int256",
          "name": "_conversionFee",
          "type": "int256"
        }
      ],
      "name": "Conversion",
      "type": "event"
    },
    {
      "anonymous": false,
      "inputs": [
        {
          "indexed": false,
          "internalType": "uint32",
          "name": "_prevFee",
          "type": "uint32"
        },
        {
          "indexed": false,
          "internalType": "uint32",
          "name": "_newFee",
          "type": "uint32"
        }
      ],
      "name": "ConversionFeeUpdate",
      "type": "event"
    },
    {
      "anonymous": false,
      "inputs": [
        {
          "indexed": true,
          "internalType": "address",
          "name": "_prevOwner",
          "type": "address"
        },
        {
          "indexed": true,
          "internalType": "address",
          "name": "_newOwner",
          "type": "address"
        }
      ],
      "name": "OwnerUpdate",
      "type": "event"
    },
    {
      "anonymous": false,
      "inputs": [
        {
          "indexed": false,
          "internalType": "uint32",
          "name": "_prevWeight",
          "type": "uint32"
        },
        {
          "indexed": false,
          "internalType": "uint32",
          "name": "_newWeight",
          "type": "uint32"
        },
        {
          "indexed": false,
          "internalType": "uint256",
          "name": "_percentage",
          "type": "uint256"
        },
        {
          "indexed": false,
          "internalType": "uint256",
          "name": "_balance",
          "type": "uint256"
        }
      ],
      "name": "ReserveTokenWeightUpdate",
      "type": "event"
    },
    {
      "anonymous": false,
      "inputs": [
        {
          "indexed": true,
          "internalType": "contract IERC20Token",
          "name": "_token1",
          "type": "address"
        },
        {
          "indexed": true,
          "internalType": "contract IERC20Token",
          "name": "_token2",
          "type": "address"
        },
        {
          "indexed": false,
          "internalType": "uint256",
          "name": "_rateN",
          "type": "uint256"
        },
        {
          "indexed": false,
          "internalType": "uint256",
          "name": "_rateD",
          "type": "uint256"
        }
      ],
      "name": "TokenRateUpdate",
      "type": "event"
    },
    {
      "inputs": [],
      "name": "acceptAnchorOwnership",
      "outputs": [],
      "stateMutability": "nonpayable",
      "type": "function"
    },
    {
      "inputs": [],
      "name": "acceptOwnership",
      "outputs": [],
      "stateMutability": "nonpayable",
      "type": "function"
    },
    {
      "inputs": [],
      "name": "acceptTokenOwnership",
      "outputs": [],
      "stateMutability": "nonpayable",
      "type": "function"
    },
    {
      "inputs": [
        {
          "internalType": "contract IERC20Token",
          "name": "_token",
          "type": "address"
        },
        {
          "internalType": "uint32",
          "name": "_weight",
          "type": "uint32"
        }
      ],
      "name": "addReserve",
      "outputs": [],
      "stateMutability": "nonpayable",
      "type": "function"
    },
    {
      "inputs": [],
      "name": "anchor",
      "outputs": [
        {
          "internalType": "contract IConverterAnchor",
          "name": "",
          "type": "address"
        }
      ],
      "stateMutability": "view",
      "type": "function"
    },
    {
      "inputs": [],
      "name": "connectorTokenCount",
      "outputs": [
        {
          "internalType": "uint16",
          "name": "",
          "type": "uint16"
        }
      ],
      "stateMutability": "view",
      "type": "function"
    },
    {
      "inputs": [
        {
          "internalType": "uint256",
          "name": "_index",
          "type": "uint256"
        }
      ],
      "name": "connectorTokens",
      "outputs": [
        {
          "internalType": "contract IERC20Token",
          "name": "",
          "type": "address"
        }
      ],
      "stateMutability": "view",
      "type": "function"
    },
    {
      "inputs": [
        {
          "internalType": "contract IERC20Token",
          "name": "_address",
          "type": "address"
        }
      ],
      "name": "connectors",
      "outputs": [
        {
          "internalType": "uint256",
          "name": "",
          "type": "uint256"
        },
        {
          "internalType": "uint32",
          "name": "",
          "type": "uint32"
        },
        {
          "internalType": "bool",
          "name": "",
          "type": "bool"
        },
        {
          "internalType": "bool",
          "name": "",
          "type": "bool"
        },
        {
          "internalType": "bool",
          "name": "",
          "type": "bool"
        }
      ],
      "stateMutability": "view",
      "type": "function"
    },
    {
      "inputs": [],
      "name": "conversionFee",
      "outputs": [
        {
          "internalType": "uint32",
          "name": "",
          "type": "uint32"
        }
      ],
      "stateMutability": "view",
      "type": "function"
    },
    {
      "inputs": [],
      "name": "conversionWhitelist",
      "outputs": [
        {
          "internalType": "contract IWhitelist",
          "name": "",
          "type": "address"
        }
      ],
      "stateMutability": "view",
      "type": "function"
    },
    {
      "inputs": [],
      "name": "conversionsEnabled",
      "outputs": [
        {
          "internalType": "bool",
          "name": "",
          "type": "bool"
        }
      ],
      "stateMutability": "view",
      "type": "function"
    },
    {
      "inputs": [
        {
          "internalType": "contract IERC20Token",
          "name": "_sourceToken",
          "type": "address"
        },
        {
          "internalType": "contract IERC20Token",
          "name": "_targetToken",
          "type": "address"
        },
        {
          "internalType": "uint256",
          "name": "_amount",
          "type": "uint256"
        },
        {
          "internalType": "address",
          "name": "_trader",
          "type": "address"
        },
        {
          "internalType": "address payable",
          "name": "_beneficiary",
          "type": "address"
        }
      ],
      "name": "convert",
      "outputs": [
        {
          "internalType": "uint256",
          "name": "",
          "type": "uint256"
        }
      ],
      "stateMutability": "payable",
      "type": "function"
    },
    {
      "inputs": [],
      "name": "converterType",
      "outputs": [
        {
          "internalType": "uint16",
          "name": "",
          "type": "uint16"
        }
      ],
      "stateMutability": "pure",
      "type": "function"
    },
    {
      "inputs": [
        {
          "internalType": "contract IERC20Token",
          "name": "_connectorToken",
          "type": "address"
        }
      ],
      "name": "getConnectorBalance",
      "outputs": [
        {
          "internalType": "uint256",
          "name": "",
          "type": "uint256"
        }
      ],
      "stateMutability": "view",
      "type": "function"
    },
    {
      "inputs": [
        {
          "internalType": "contract IERC20Token",
          "name": "_reserveToken",
          "type": "address"
        }
      ],
      "name": "getMarketCap",
      "outputs": [
        {
          "internalType": "uint256",
          "name": "",
          "type": "uint256"
        }
      ],
      "stateMutability": "view",
      "type": "function"
    },
    {
      "inputs": [
        {
          "internalType": "contract IERC20Token",
          "name": "_sourceToken",
          "type": "address"
        },
        {
          "internalType": "contract IERC20Token",
          "name": "_targetToken",
          "type": "address"
        },
        {
          "internalType": "uint256",
          "name": "_amount",
          "type": "uint256"
        }
      ],
      "name": "getReturn",
      "outputs": [
        {
          "internalType": "uint256",
          "name": "",
          "type": "uint256"
        },
        {
          "internalType": "uint256",
          "name": "",
          "type": "uint256"
        }
      ],
      "stateMutability": "view",
      "type": "function"
    },
    {
      "inputs": [],
      "name": "hasETHReserve",
      "outputs": [
        {
          "internalType": "bool",
          "name": "",
          "type": "bool"
        }
      ],
      "stateMutability": "view",
      "type": "function"
    },
    {
      "inputs": [],
      "name": "isActive",
      "outputs": [
        {
          "internalType": "bool",
          "name": "",
          "type": "bool"
        }
      ],
      "stateMutability": "view",
      "type": "function"
    },
    {
      "inputs": [],
      "name": "isV28OrHigher",
      "outputs": [
        {
          "internalType": "bool",
          "name": "",
          "type": "bool"
        }
      ],
      "stateMutability": "pure",
      "type": "function"
    },
    {
      "inputs": [],
      "name": "marketCapThreshold",
      "outputs": [
        {
          "internalType": "uint256",
          "name": "",
          "type": "uint256"
        }
      ],
      "stateMutability": "view",
      "type": "function"
    },
    {
      "inputs": [],
      "name": "maxConversionFee",
      "outputs": [
        {
          "internalType": "uint32",
          "name": "",
          "type": "uint32"
        }
      ],
      "stateMutability": "view",
      "type": "function"
    },
    {
      "inputs": [],
      "name": "minimumWeight",
      "outputs": [
        {
          "internalType": "uint32",
          "name": "",
          "type": "uint32"
        }
      ],
      "stateMutability": "view",
      "type": "function"
    },
    {
      "inputs": [],
      "name": "newOwner",
      "outputs": [
        {
          "internalType": "address",
          "name": "",
          "type": "address"
        }
      ],
      "stateMutability": "view",
      "type": "function"
    },
    {
      "inputs": [],
      "name": "onlyOwnerCanUpdateRegistry",
      "outputs": [
        {
          "internalType": "bool",
          "name": "",
          "type": "bool"
        }
      ],
      "stateMutability": "view",
      "type": "function"
    },
    {
      "inputs": [],
      "name": "owner",
      "outputs": [
        {
          "internalType": "address",
          "name": "",
          "type": "address"
        }
      ],
      "stateMutability": "view",
      "type": "function"
    },
    {
      "inputs": [],
      "name": "prevRegistry",
      "outputs": [
        {
          "internalType": "contract IContractRegistry",
          "name": "",
          "type": "address"
        }
      ],
      "stateMutability": "view",
      "type": "function"
    },
    {
      "inputs": [
        {
          "internalType": "contract IERC20Token",
          "name": "_reserveToken",
          "type": "address"
        },
        {
          "internalType": "address payable",
          "name": "_to",
          "type": "address"
        }
      ],
      "name": "reduceWeight",
      "outputs": [],
      "stateMutability": "nonpayable",
      "type": "function"
    },
    {
      "inputs": [],
      "name": "registry",
      "outputs": [
        {
          "internalType": "contract IContractRegistry",
          "name": "",
          "type": "address"
        }
      ],
      "stateMutability": "view",
      "type": "function"
    },
    {
      "inputs": [
        {
          "internalType": "contract IERC20Token",
          "name": "_reserveToken",
          "type": "address"
        }
      ],
      "name": "reserveBalance",
      "outputs": [
        {
          "internalType": "uint256",
          "name": "",
          "type": "uint256"
        }
      ],
      "stateMutability": "view",
      "type": "function"
    },
    {
      "inputs": [],
      "name": "reserveRatio",
      "outputs": [
        {
          "internalType": "uint32",
          "name": "",
          "type": "uint32"
        }
      ],
      "stateMutability": "view",
      "type": "function"
    },
    {
      "inputs": [],
      "name": "reserveTokenCount",
      "outputs": [
        {
          "internalType": "uint16",
          "name": "",
          "type": "uint16"
        }
      ],
      "stateMutability": "view",
      "type": "function"
    },
    {
      "inputs": [
        {
          "internalType": "uint256",
          "name": "",
          "type": "uint256"
        }
      ],
      "name": "reserveTokens",
      "outputs": [
        {
          "internalType": "contract IERC20Token",
          "name": "",
          "type": "address"
        }
      ],
      "stateMutability": "view",
      "type": "function"
    },
    {
      "inputs": [
        {
          "internalType": "contract IERC20Token",
          "name": "_reserveToken",
          "type": "address"
        }
      ],
      "name": "reserveWeight",
      "outputs": [
        {
          "internalType": "uint32",
          "name": "",
          "type": "uint32"
        }
      ],
      "stateMutability": "view",
      "type": "function"
    },
    {
      "inputs": [
        {
          "internalType": "contract IERC20Token",
          "name": "",
          "type": "address"
        }
      ],
      "name": "reserves",
      "outputs": [
        {
          "internalType": "uint256",
          "name": "balance",
          "type": "uint256"
        },
        {
          "internalType": "uint32",
          "name": "weight",
          "type": "uint32"
        },
        {
          "internalType": "bool",
          "name": "deprecated1",
          "type": "bool"
        },
        {
          "internalType": "bool",
          "name": "deprecated2",
          "type": "bool"
        },
        {
          "internalType": "bool",
          "name": "isSet",
          "type": "bool"
        }
      ],
      "stateMutability": "view",
      "type": "function"
    },
    {
      "inputs": [],
      "name": "restoreRegistry",
      "outputs": [],
      "stateMutability": "nonpayable",
      "type": "function"
    },
    {
      "inputs": [
        {
          "internalType": "bool",
          "name": "_onlyOwnerCanUpdateRegistry",
          "type": "bool"
        }
      ],
      "name": "restrictRegistryUpdate",
      "outputs": [],
      "stateMutability": "nonpayable",
      "type": "function"
    },
    {
      "inputs": [
        {
          "internalType": "uint32",
          "name": "_conversionFee",
          "type": "uint32"
        }
      ],
      "name": "setConversionFee",
      "outputs": [],
      "stateMutability": "nonpayable",
      "type": "function"
    },
    {
      "inputs": [
        {
          "internalType": "contract IWhitelist",
          "name": "_whitelist",
          "type": "address"
        }
      ],
      "name": "setConversionWhitelist",
      "outputs": [],
      "stateMutability": "nonpayable",
      "type": "function"
    },
    {
      "inputs": [
        {
          "internalType": "uint256",
          "name": "_marketCapThreshold",
          "type": "uint256"
        }
      ],
      "name": "setMarketCapThreshold",
      "outputs": [],
      "stateMutability": "nonpayable",
      "type": "function"
    },
    {
      "inputs": [
        {
          "internalType": "uint32",
          "name": "_minimumWeight",
          "type": "uint32"
        }
      ],
      "name": "setMinimumWeight",
      "outputs": [],
      "stateMutability": "nonpayable",
      "type": "function"
    },
    {
      "inputs": [
        {
          "internalType": "uint32",
          "name": "_stepWeight",
          "type": "uint32"
        }
      ],
      "name": "setStepWeight",
      "outputs": [],
      "stateMutability": "nonpayable",
      "type": "function"
    },
    {
      "inputs": [],
      "name": "stepWeight",
      "outputs": [
        {
          "internalType": "uint32",
          "name": "",
          "type": "uint32"
        }
      ],
      "stateMutability": "view",
      "type": "function"
    },
    {
      "inputs": [
        {
          "internalType": "contract IERC20Token",
          "name": "_sourceToken",
          "type": "address"
        },
        {
          "internalType": "contract IERC20Token",
          "name": "_targetToken",
          "type": "address"
        },
        {
          "internalType": "uint256",
          "name": "_amount",
          "type": "uint256"
        }
      ],
      "name": "targetAmountAndFee",
      "outputs": [
        {
          "internalType": "uint256",
          "name": "",
          "type": "uint256"
        },
        {
          "internalType": "uint256",
          "name": "",
          "type": "uint256"
        }
      ],
      "stateMutability": "view",
      "type": "function"
    },
    {
      "inputs": [],
      "name": "token",
      "outputs": [
        {
          "internalType": "contract IConverterAnchor",
          "name": "",
          "type": "address"
        }
      ],
      "stateMutability": "view",
      "type": "function"
    },
    {
      "inputs": [
        {
          "internalType": "address",
          "name": "_newOwner",
          "type": "address"
        }
      ],
      "name": "transferAnchorOwnership",
      "outputs": [],
      "stateMutability": "nonpayable",
      "type": "function"
    },
    {
      "inputs": [
        {
          "internalType": "address",
          "name": "_newOwner",
          "type": "address"
        }
      ],
      "name": "transferOwnership",
      "outputs": [],
      "stateMutability": "nonpayable",
      "type": "function"
    },
    {
      "inputs": [
        {
          "internalType": "address",
          "name": "_newOwner",
          "type": "address"
        }
      ],
      "name": "transferTokenOwnership",
      "outputs": [],
      "stateMutability": "nonpayable",
      "type": "function"
    },
    {
      "inputs": [],
      "name": "updateRegistry",
      "outputs": [],
      "stateMutability": "nonpayable",
      "type": "function"
    },
    {
      "inputs": [],
      "name": "upgrade",
      "outputs": [],
      "stateMutability": "nonpayable",
      "type": "function"
    },
    {
      "inputs": [],
      "name": "version",
      "outputs": [
        {
          "internalType": "uint16",
          "name": "",
          "type": "uint16"
        }
      ],
      "stateMutability": "view",
      "type": "function"
    },
    {
      "inputs": [
        {
          "internalType": "address payable",
          "name": "_to",
          "type": "address"
        }
      ],
      "name": "withdrawETH",
      "outputs": [],
      "stateMutability": "nonpayable",
      "type": "function"
    },
    {
      "inputs": [
        {
          "internalType": "contract IERC20Token",
          "name": "_token",
          "type": "address"
        },
        {
          "internalType": "address",
          "name": "_to",
          "type": "address"
        },
        {
          "internalType": "uint256",
          "name": "_amount",
          "type": "uint256"
        }
      ],
      "name": "withdrawTokens",
      "outputs": [],
      "stateMutability": "nonpayable",
      "type": "function"
    },
    {
      "stateMutability": "payable",
      "type": "receive"
    }
  ],
  "bytecode": "0x60806040526003805460ff60a81b19169055600880546001600160801b0319166d75300000000000000000000000001763ffffffff60801b191661027160841b17905569021e19e0c9bab24000006009556000600a553480156200006257600080fd5b506040516200355138038062003551833981810160405260608110156200008857600080fd5b5080516020820151604090920151600080546001600160a01b031916331790559091908282828282828180620000be8162000158565b50600280546001600160a01b039092166001600160a01b031992831681179091556003805490921617905582620000f58162000158565b816200010181620001b7565b5050600480546001600160a01b039094166001600160a01b031990941693909317909255506008805463ffffffff9092166401000000000263ffffffff60201b199092169190911790555062000216945050505050565b6001600160a01b038116620001b4576040805162461bcd60e51b815260206004820152601360248201527f4552525f494e56414c49445f4144445245535300000000000000000000000000604482015290519081900360640190fd5b50565b620f424063ffffffff82161115620001b4576040805162461bcd60e51b815260206004820152601a60248201527f4552525f494e56414c49445f434f4e56455253494f4e5f464545000000000000604482015290519081900360640190fd5b61332b80620002266000396000f3fe6080604052600436106103035760003560e01c80637b10399911610190578063d146d31d116100dc578063d895951211610095578063ecbca55d1161006f578063ecbca55d14610b11578063f2fde38b14610b41578063f95e146c14610b74578063fc0c546a14610b895761039a565b8063d895951214610a65578063dc8de37914610a98578063e8dc12ff14610acb5761039a565b8063d146d31d146109ab578063d260529c146109de578063d3fb73b4146109f3578063d4ee1d9014610a08578063d55ec69714610a1d578063d66bd52414610a325761039a565b8063b4a176d311610149578063c45d3d9211610123578063c45d3d921461092d578063c9be579b14610942578063cdc91c691461096c578063d031370b146109815761039a565b8063b4a176d3146108d3578063bf754558146108e8578063c3e8dfa8146108fd5761039a565b80637b1039991461080c5780638da5cb5b1461082157806394c275ad146108365780639b99a8e21461084b578063ad16158214610860578063af94b8d8146108905761039a565b806349d10b641161024f57806361cd756e116102085780636a49d2c4116101e25780636a49d2c41461077c57806370b0aec5146107bb57806371f52bf3146107e257806379ba5097146107f75761039a565b806361cd756e1461070157806367b6d57c14610716578063690d8320146107495761039a565b806349d10b64146106115780634af80f0e1461062657806354fd4d5014610659578063579cd3ca1461066e5780635e35359e146106835780635fb3b666146106c65761039a565b80631e1401f8116102bc5780632fe8a6ad116102965780632fe8a6ad146105a657806338a5e016146105bb5780633e8ff43f146105d057806340bf2fb7146105fc5761039a565b80631e1401f81461050257806321e6b53d1461055e57806322f3e2d4146105915761039a565b8063024c7ec71461039f5780630c7d5cd8146103cb5780630e53aae9146103f957806312c2aca41461046057806319b64015146104895780631cfab290146104cf5761039a565b3661039a5773eeeeeeeeeeeeeeeeeeeeeeeeeeeeeeeeeeeeeeee60005260076020527fb2084a3e4595ccf007fb44245853374aaf0de960074375e8e0fb334712e94d0f54600160301b900460ff16610398576040805162461bcd60e51b81526020600482015260136024820152724552525f494e56414c49445f5245534552564560681b604482015290519081900360640190fd5b005b600080fd5b3480156103ab57600080fd5b50610398600480360360208110156103c257600080fd5b50351515610b9e565b3480156103d757600080fd5b506103e0610bc4565b6040805163ffffffff9092168252519081900360200190f35b34801561040557600080fd5b5061042c6004803603602081101561041c57600080fd5b50356001600160a01b0316610bd0565b6040805195865263ffffffff9094166020860152911515848401521515606084015215156080830152519081900360a00190f35b34801561046c57600080fd5b50610475610c68565b604080519115158252519081900360200190f35b34801561049557600080fd5b506104b3600480360360208110156104ac57600080fd5b5035610cb4565b604080516001600160a01b039092168252519081900360200190f35b3480156104db57600080fd5b506103e0600480360360208110156104f257600080fd5b50356001600160a01b0316610cde565b34801561050e57600080fd5b506105456004803603606081101561052557600080fd5b506001600160a01b03813581169160208101359091169060400135610d10565b6040805192835260208301919091528051918290030190f35b34801561056a57600080fd5b506103986004803603602081101561058157600080fd5b50356001600160a01b0316610d2b565b34801561059d57600080fd5b50610475610d3f565b3480156105b257600080fd5b50610475610dbe565b3480156105c757600080fd5b50610398610dce565b3480156105dc57600080fd5b506105e5610de0565b6040805161ffff9092168252519081900360200190f35b34801561060857600080fd5b506103e0610de5565b34801561061d57600080fd5b50610398610df8565b34801561063257600080fd5b506103986004803603602081101561064957600080fd5b50356001600160a01b0316611000565b34801561066557600080fd5b506105e5611035565b34801561067a57600080fd5b506103e061103a565b34801561068f57600080fd5b50610398600480360360608110156106a657600080fd5b506001600160a01b0381358116916020810135909116906040013561104d565b3480156106d257600080fd5b50610398600480360360408110156106e957600080fd5b506001600160a01b03813581169160200135166110c1565b34801561070d57600080fd5b506104b3611350565b34801561072257600080fd5b506103986004803603602081101561073957600080fd5b50356001600160a01b031661135f565b34801561075557600080fd5b506103986004803603602081101561076c57600080fd5b50356001600160a01b03166113e6565b34801561078857600080fd5b506103986004803603604081101561079f57600080fd5b5080356001600160a01b0316906020013563ffffffff1661148b565b3480156107c757600080fd5b506107d06114fb565b60408051918252519081900360200190f35b3480156107ee57600080fd5b506105e5611501565b34801561080357600080fd5b50610398611510565b34801561081857600080fd5b506104b36115c7565b34801561082d57600080fd5b506104b36115d6565b34801561084257600080fd5b506103e06115e5565b34801561085757600080fd5b506105e56115f9565b34801561086c57600080fd5b506103986004803603602081101561088357600080fd5b503563ffffffff166115ff565b34801561089c57600080fd5b50610545600480360360608110156108b357600080fd5b506001600160a01b03813581169160208101359091169060400135611635565b3480156108df57600080fd5b5061039861171e565b3480156108f457600080fd5b5061047561174a565b34801561090957600080fd5b506103986004803603602081101561092057600080fd5b503563ffffffff1661174f565b34801561093957600080fd5b506104b3611785565b34801561094e57600080fd5b506103986004803603602081101561096557600080fd5b5035611794565b34801561097857600080fd5b506103986117a9565b34801561098d57600080fd5b506104b3600480360360208110156109a457600080fd5b5035611802565b3480156109b757600080fd5b506107d0600480360360208110156109ce57600080fd5b50356001600160a01b0316611829565b3480156109ea57600080fd5b50610475611867565b3480156109ff57600080fd5b506104b361186c565b348015610a1457600080fd5b506104b361187b565b348015610a2957600080fd5b5061039861188a565b348015610a3e57600080fd5b5061042c60048036036020811015610a5557600080fd5b50356001600160a01b0316611978565b348015610a7157600080fd5b506107d060048036036020811015610a8857600080fd5b50356001600160a01b03166119bb565b348015610aa457600080fd5b506107d060048036036020811015610abb57600080fd5b50356001600160a01b03166119cc565b6107d0600480360360a0811015610ae157600080fd5b506001600160a01b03813581169160208101358216916040820135916060810135821691608090910135166119f5565b348015610b1d57600080fd5b5061039860048036036020811015610b3457600080fd5b503563ffffffff16611c05565b348015610b4d57600080fd5b5061039860048036036020811015610b6457600080fd5b50356001600160a01b0316611ced565b348015610b8057600080fd5b506103e0611d6b565b348015610b9557600080fd5b506104b3611d7e565b610ba6611d8d565b60038054911515600160a01b0260ff60a01b19909216919091179055565b60085463ffffffff1681565b6000806000806000610be06132c7565b505050506001600160a01b03929092166000908152600760209081526040808320815160a081018352815480825260019092015463ffffffff811694820185905260ff64010000000082048116151594830194909452650100000000008104841615156060830152600160301b90049092161515608090920182905295919450919250829190565b73eeeeeeeeeeeeeeeeeeeeeeeeeeeeeeeeeeeeeeee60005260076020527fb2084a3e4595ccf007fb44245853374aaf0de960074375e8e0fb334712e94d0f54600160301b900460ff1690565b600060068281548110610cc357fe5b6000918252602090912001546001600160a01b031692915050565b600081610cea81611de0565b50506001600160a01b031660009081526007602052604090206001015463ffffffff1690565b600080610d1e858585611635565b915091505b935093915050565b610d33611d8d565b610d3c8161135f565b50565b6004805460408051638da5cb5b60e01b8152905160009330936001600160a01b031692638da5cb5b9281830192602092829003018186803b158015610d8357600080fd5b505afa158015610d97573d6000803e3d6000fd5b505050506040513d6020811015610dad57600080fd5b50516001600160a01b031614905090565b600354600160a01b900460ff1681565b610dd6611d8d565b610dde6117a9565b565b600090565b600854600160601b900463ffffffff1681565b6000546001600160a01b0316331480610e1b5750600354600160a01b900460ff16155b610e60576040805162461bcd60e51b815260206004820152601160248201527011549497d050d0d154d4d7d11153925151607a1b604482015290519081900360640190fd5b6000610e7e6f436f6e7472616374526567697374727960801b611e4d565b6002549091506001600160a01b03808316911614801590610ea757506001600160a01b03811615155b610eef576040805162461bcd60e51b81526020600482015260146024820152734552525f494e56414c49445f524547495354525960601b604482015290519081900360640190fd5b60006001600160a01b0316816001600160a01b031663bb34534c6f436f6e7472616374526567697374727960801b6040518263ffffffff1660e01b81526004018082815260200191505060206040518083038186803b158015610f5157600080fd5b505afa158015610f65573d6000803e3d6000fd5b505050506040513d6020811015610f7b57600080fd5b50516001600160a01b03161415610fd0576040805162461bcd60e51b81526020600482015260146024820152734552525f494e56414c49445f524547495354525960601b604482015290519081900360640190fd5b60028054600380546001600160a01b038084166001600160a01b0319928316179092559091169216919091179055565b611008611d8d565b8061101281611ecb565b50600580546001600160a01b0319166001600160a01b0392909216919091179055565b602881565b600854600160401b900463ffffffff1681565b611055611f1f565b6003805460ff60a81b1916600160a81b179055611070611d8d565b61107b838383611f6f565b6001600160a01b038316600090815260076020526040902060010154600160301b900460ff16156110af576110af83611fa8565b50506003805460ff60a81b1916905550565b816110cb81611de0565b6110d3611d8d565b60006110de84611829565b90506110f7600954600a5461208690919063ffffffff16565b811161114a576040805162461bcd60e51b815260206004820152601e60248201527f4552525f4d41524b45545f4341505f42454c4f575f5448524553484f4c440000604482015290519081900360640190fd5b6001600160a01b0384166000908152600760205260408120600854600182015491929161118b9163ffffffff91821691600160801b9091048116906120cf16565b600183015460085491925063ffffffff90811691600160601b9004168210156111f8576040805162461bcd60e51b815260206004820152601a60248201527911549497d253959053125117d49154d154959157d5d15251d21560321b604482015290519081900360640190fd5b6001830154600090611232906112289063ffffffff90811690611222908790620f42409061211c16565b9061217a565b620f4240906120cf565b60018501805463ffffffff861663ffffffff1991821681179092556008805490911690911790559050826000611278620f4240611222856112728e6119cc565b9061211c565b90506001600160a01b038a1673eeeeeeeeeeeeeeeeeeeeeeeeeeeeeeeeeeeeeeee14156112db576040516001600160a01b038a169082156108fc029083906000818181858888f193505050501580156112d5573d6000803e3d6000fd5b506112e6565b6112e68a8a836121d9565b600a8790556112f48a611fa8565b85546040805163ffffffff8088168252851660208201528082018690526060810192909252517fdb546a099d5772cc83680ebd46cf464225ffd886eda63ba6c11095aa1422f75d9181900360800190a150505050505050505050565b6003546001600160a01b031681565b611367611d8d565b600460009054906101000a90046001600160a01b03166001600160a01b031663f2fde38b826040518263ffffffff1660e01b815260040180826001600160a01b03168152602001915050600060405180830381600087803b1580156113cb57600080fd5b505af11580156113df573d6000803e3d6000fd5b5050505050565b6113ee611f1f565b6003805460ff60a81b1916600160a81b179055611409611d8d565b73eeeeeeeeeeeeeeeeeeeeeeeeeeeeeeeeeeeeeeee61142781611de0565b6040516001600160a01b038316904780156108fc02916000818181858888f1935050505015801561145c573d6000803e3d6000fd5b5061147a73eeeeeeeeeeeeeeeeeeeeeeeeeeeeeeeeeeeeeeee611fa8565b50506003805460ff60a81b19169055565b611493611d8d565b61149b6115f9565b61ffff16156114ed576040805162461bcd60e51b815260206004820152601960248201527811549497d253959053125117d49154d154959157d0d3d55395603a1b604482015290519081900360640190fd5b6114f78282612332565b5050565b60095481565b600061150b6115f9565b905090565b6001546001600160a01b03163314611563576040805162461bcd60e51b815260206004820152601160248201527011549497d050d0d154d4d7d11153925151607a1b604482015290519081900360640190fd5b600154600080546040516001600160a01b0393841693909116917f343765429aea5a34b3ff6a3785a98a5abb2597aca87bfbb58632c173d585373a91a360018054600080546001600160a01b03199081166001600160a01b03841617909155169055565b6002546001600160a01b031681565b6000546001600160a01b031681565b600854640100000000900463ffffffff1681565b60065490565b611607611d8d565b61160f612551565b6008805463ffffffff909216600160801b0263ffffffff60801b19909216919091179055565b60045460009081906001600160a01b03858116911614801561167957506001600160a01b038516600090815260076020526040902060010154600160301b900460ff165b156116905761168783612598565b91509150610d23565b6004546001600160a01b0386811691161480156116cf57506001600160a01b038416600090815260076020526040902060010154600160301b900460ff165b156116dd5761168783612784565b6040805162461bcd60e51b815260206004820152601160248201527022a9292fa4a72b20a624a22faa27a5a2a760791b604482015290519081900360640190fd5b611726611d8d565b600354600280546001600160a01b0319166001600160a01b03909216919091179055565b600181565b611757611d8d565b61175f612551565b6008805463ffffffff909216600160601b0263ffffffff60601b19909216919091179055565b6005546001600160a01b031681565b61179c611d8d565b6117a4612551565b600955565b6117b1611d8d565b6117b9612878565b6004546001906001600160a01b03166117d0610de0565b61ffff167f6b08c2e2c9969e55a647a764db9b554d64dc42f1a704da11a6d5b129ad163f2c60405160405180910390a4565b6006818154811061180f57fe5b6000918252602090912001546001600160a01b0316905081565b6001600160a01b038116600090815260076020526040812060018101546118609063ffffffff16611222620f4240611272876119cc565b9392505050565b600190565b6004546001600160a01b031681565b6001546001600160a01b031681565b611892611d8d565b60006118bd7f42616e636f72436f6e7665727465725570677261646572000000000000000000611e4d565b6004549091506000906001600160a01b03166118d7610de0565b61ffff167f6b08c2e2c9969e55a647a764db9b554d64dc42f1a704da11a6d5b129ad163f2c60405160405180910390a461191081611ced565b6040805163487ac64b60e11b81526028600482015290516001600160a01b038316916390f58c9691602480830192600092919082900301818387803b15801561195857600080fd5b505af115801561196c573d6000803e3d6000fd5b50505050610d3c611510565b6007602052600090815260409020805460019091015463ffffffff81169060ff6401000000008204811691650100000000008104821691600160301b9091041685565b60006119c6826119cc565b92915050565b6000816119d881611de0565b50506001600160a01b031660009081526007602052604090205490565b60006119ff611f1f565b6003805460ff60a81b1916600160a81b1790556c42616e636f724e6574776f726b60981b611a2c8161293f565b856001600160a01b0316876001600160a01b03161415611a8c576040805162461bcd60e51b815260206004820152601660248201527511549497d4d0535157d4d3d55490d157d5105491d15560521b604482015290519081900360640190fd5b6005546001600160a01b03161580611b99575060055460408051633af32abf60e01b81526001600160a01b03878116600483015291519190921691633af32abf916024808301926020929190829003018186803b158015611aec57600080fd5b505afa158015611b00573d6000803e3d6000fd5b505050506040513d6020811015611b1657600080fd5b50518015611b99575060055460408051633af32abf60e01b81526001600160a01b03868116600483015291519190921691633af32abf916024808301926020929190829003018186803b158015611b6c57600080fd5b505afa158015611b80573d6000803e3d6000fd5b505050506040513d6020811015611b9657600080fd5b50515b611be0576040805162461bcd60e51b815260206004820152601360248201527211549497d393d517d5d2125511531254d51151606a1b604482015290519081900360640190fd5b611bed87878787876129a1565b6003805460ff60a81b19169055979650505050505050565b611c0d611d8d565b60085463ffffffff64010000000090910481169082161115611c76576040805162461bcd60e51b815260206004820152601a60248201527f4552525f494e56414c49445f434f4e56455253494f4e5f464545000000000000604482015290519081900360640190fd5b6008546040805163ffffffff600160401b90930483168152918316602083015280517f81cd2ffb37dd237c0e4e2a3de5265fcf9deb43d3e7801e80db9f1ccfba7ee6009281900390910190a16008805463ffffffff909216600160401b026bffffffff000000000000000019909216919091179055565b611cf5611d8d565b6000546001600160a01b0382811691161415611d49576040805162461bcd60e51b815260206004820152600e60248201526d22a9292fa9a0a6a2afa7aba722a960911b604482015290519081900360640190fd5b600180546001600160a01b0319166001600160a01b0392909216919091179055565b600854600160801b900463ffffffff1681565b6004546001600160a01b031690565b6000546001600160a01b03163314610dde576040805162461bcd60e51b815260206004820152601160248201527011549497d050d0d154d4d7d11153925151607a1b604482015290519081900360640190fd5b6001600160a01b038116600090815260076020526040902060010154600160301b900460ff16610d3c576040805162461bcd60e51b81526020600482015260136024820152724552525f494e56414c49445f5245534552564560681b604482015290519081900360640190fd5b60025460408051632ecd14d360e21b81526004810184905290516000926001600160a01b03169163bb34534c916024808301926020929190829003018186803b158015611e9957600080fd5b505afa158015611ead573d6000803e3d6000fd5b505050506040513d6020811015611ec357600080fd5b505192915050565b6001600160a01b038116301415610d3c576040805162461bcd60e51b815260206004820152601360248201527222a9292fa0a2222922a9a9afa4a9afa9a2a62360691b604482015290519081900360640190fd5b600354600160a81b900460ff1615610dde576040805162461bcd60e51b815260206004820152600e60248201526d4552525f5245454e5452414e435960901b604482015290519081900360640190fd5b611f77611d8d565b82611f8181612b64565b82611f8b81612b64565b83611f9581611ecb565b611fa08686866121d9565b505050505050565b80611fb281611de0565b6001600160a01b03821673eeeeeeeeeeeeeeeeeeeeeeeeeeeeeeeeeeeeeeee1415611ff7576001600160a01b03821660009081526007602052604090204790556114f7565b604080516370a0823160e01b815230600482015290516001600160a01b038416916370a08231916024808301926020929190829003018186803b15801561203d57600080fd5b505afa158015612051573d6000803e3d6000fd5b505050506040513d602081101561206757600080fd5b50516001600160a01b0383166000908152600760205260409020555050565b600082820183811015611860576040805162461bcd60e51b815260206004820152600c60248201526b4552525f4f564552464c4f5760a01b604482015290519081900360640190fd5b600081831015612116576040805162461bcd60e51b815260206004820152600d60248201526c4552525f554e444552464c4f5760981b604482015290519081900360640190fd5b50900390565b60008261212b575060006119c6565b8282028284828161213857fe5b0414611860576040805162461bcd60e51b815260206004820152600c60248201526b4552525f4f564552464c4f5760a01b604482015290519081900360640190fd5b60008082116121c5576040805162461bcd60e51b81526020600482015260126024820152714552525f4449564944455f42595f5a45524f60701b604482015290519081900360640190fd5b60008284816121d057fe5b04949350505050565b604080516001600160a01b038481166024830152604480830185905283518084039091018152606490920183526020820180516001600160e01b031663a9059cbb60e01b178152925182516000946060949389169392918291908083835b602083106122565780518252601f199092019160209182019101612237565b6001836020036101000a0380198251168184511680821785525050505050509050019150506000604051808303816000865af19150503d80600081146122b8576040519150601f19603f3d011682016040523d82523d6000602084013e6122bd565b606091505b50915091508180156122eb5750805115806122eb57508080602001905160208110156122e857600080fd5b50515b6113df576040805162461bcd60e51b815260206004820152601360248201527211549497d514905394d1915497d19052531151606a1b604482015290519081900360640190fd5b61233a611d8d565b612342612551565b8161234c81612b64565b8261235681611ecb565b8261236081612bb5565b6004546001600160a01b038681169116148015906123a157506001600160a01b038516600090815260076020526040902060010154600160301b900460ff16155b6123e8576040805162461bcd60e51b81526020600482015260136024820152724552525f494e56414c49445f5245534552564560681b604482015290519081900360640190fd5b60085463ffffffff908116620f4240038116908516111561244d576040805162461bcd60e51b815260206004820152601a60248201527911549497d253959053125117d49154d154959157d5d15251d21560321b604482015290519081900360640190fd5b61ffff6124586115f9565b61ffff16106124aa576040805162461bcd60e51b815260206004820152601960248201527811549497d253959053125117d49154d154959157d0d3d55395603a1b604482015290519081900360640190fd5b5050506001600160a01b0390911660008181526007602052604081208181556001908101805466ff0000000000001963ffffffff80881663ffffffff199384161791909116600160301b179092556006805493840181559093527ff652222313e28459528d920b65115c16c04f3efc82aaedc97be59f3f377c0d3f90910180546001600160a01b031916909317909255600880548084169094019092169216919091179055565b612559610d3f565b15610dde576040805162461bcd60e51b815260206004820152600a6024820152694552525f41435449564560b01b604482015290519081900360640190fd5b6000806125a3612c22565b6000600460009054906101000a90046001600160a01b03166001600160a01b03166318160ddd6040518163ffffffff1660e01b815260040160206040518083038186803b1580156125f357600080fd5b505afa158015612607573d6000803e3d6000fd5b505050506040513d602081101561261d57600080fd5b505160068054919250600091829061263157fe5b6000918252602090912001546001600160a01b0316905081612694576001600160a01b0381166000908152600760205260409020600101546126879063ffffffff90811690611222908890620f42409061211c16565b600093509350505061277f565b60006126af6c42616e636f72466f726d756c6160981b611e4d565b6001600160a01b031663f3250fe2846126c7856119cc565b6001600160a01b0386166000908152600760209081526040918290206001015482516001600160e01b031960e088901b1681526004810195909552602485019390935263ffffffff9092166044840152606483018b905251608480840193829003018186803b15801561273957600080fd5b505afa15801561274d573d6000803e3d6000fd5b505050506040513d602081101561276357600080fd5b50519050600061277282612c6a565b9182900395509093505050505b915091565b60008061278f612c22565b6000600460009054906101000a90046001600160a01b03166001600160a01b03166318160ddd6040518163ffffffff1660e01b815260040160206040518083038186803b1580156127df57600080fd5b505afa1580156127f3573d6000803e3d6000fd5b505050506040513d602081101561280957600080fd5b505160068054919250600091829061281d57fe5b6000918252602090912001546001600160a01b031690508185141561284557612687816119cc565b60006128606c42616e636f72466f726d756c6160981b611e4d565b6001600160a01b03166376cf0b56846126c7856119cc565b612880611d8d565b600061288a6115f9565b61ffff16116128dc576040805162461bcd60e51b815260206004820152601960248201527811549497d253959053125117d49154d154959157d0d3d55395603a1b604482015290519081900360640190fd5b60048054604080516379ba509760e01b815290516001600160a01b03909216926379ba509792828201926000929082900301818387803b15801561291f57600080fd5b505af1158015612933573d6000803e3d6000fd5b50505050610dde612c95565b61294881611e4d565b6001600160a01b0316336001600160a01b031614610d3c576040805162461bcd60e51b815260206004820152601160248201527011549497d050d0d154d4d7d11153925151607a1b604482015290519081900360640190fd5b600454600090819081906001600160a01b0388811691161480156129e757506001600160a01b038816600090815260076020526040902060010154600160301b900460ff165b15612a005750866129f9868686612cd5565b9150612a51565b6004546001600160a01b038981169116148015612a3f57506001600160a01b038716600090815260076020526040902060010154600160301b900460ff165b156116dd5750856129f9868686612f49565b6000600460009054906101000a90046001600160a01b03166001600160a01b03166318160ddd6040518163ffffffff1660e01b815260040160206040518083038186803b158015612aa157600080fd5b505afa158015612ab5573d6000803e3d6000fd5b505050506040513d6020811015612acb57600080fd5b50516001600160a01b0380841660008181526007602052604090206001015460045493945063ffffffff16929091167f77f29993cf2c084e726f7e802da0719d6a0ade3e204badc7a3ffd57ecb768c24612b2b620f4240611272886119cc565b612b3e8663ffffffff8088169061211c16565b6040805192835260208301919091528051918290030190a3509198975050505050505050565b6001600160a01b038116610d3c576040805162461bcd60e51b81526020600482015260136024820152724552525f494e56414c49445f4144445245535360681b604482015290519081900360640190fd5b60008163ffffffff16118015612bd45750620f424063ffffffff821611155b610d3c576040805162461bcd60e51b815260206004820152601a60248201527911549497d253959053125117d49154d154959157d5d15251d21560321b604482015290519081900360640190fd5b612c2a610d3f565b610dde576040805162461bcd60e51b815260206004820152600c60248201526b4552525f494e41435449564560a01b604482015290519081900360640190fd5b6008546000906119c690620f424090611222908590600160401b900463ffffffff9081169061211c16565b60065460005b818110156114f757612ccd60068281548110612cb357fe5b6000918252602090912001546001600160a01b0316611fa8565b600101612c9b565b6000806000612ce386612598565b915091508160001415612d36576040805162461bcd60e51b815260206004820152601660248201527511549497d6915493d7d5105491d15517d05353d5539560521b604482015290519081900360640190fd5b60006006600081548110612d4657fe5b6000918252602090912001546001600160a01b0316905073eeeeeeeeeeeeeeeeeeeeeeeeeeeeeeeeeeeeeeee811415612dd257863414612dcd576040805162461bcd60e51b815260206004820152601760248201527f4552525f4554485f414d4f554e545f4d49534d41544348000000000000000000604482015290519081900360640190fd5b612ea9565b34158015612e63575086612e60612de8836119cc565b604080516370a0823160e01b815230600482015290516001600160a01b038616916370a08231916024808301926020929190829003018186803b158015612e2e57600080fd5b505afa158015612e42573d6000803e3d6000fd5b505050506040513d6020811015612e5857600080fd5b5051906120cf565b10155b612ea9576040805162461bcd60e51b815260206004820152601260248201527111549497d253959053125117d05353d5539560721b604482015290519081900360640190fd5b612eb281611fa8565b600480546040805163219e412d60e21b81526001600160a01b0389811694820194909452602481018790529051929091169163867904b49160448082019260009290919082900301818387803b158015612f0b57600080fd5b505af1158015612f1f573d6000803e3d6000fd5b5050600454612f3e92508391506001600160a01b0316888a878761325e565b509095945050505050565b60048054604080516370a0823160e01b81523093810193909352516000926001600160a01b03909216916370a08231916024808301926020929190829003018186803b158015612f9857600080fd5b505afa158015612fac573d6000803e3d6000fd5b505050506040513d6020811015612fc257600080fd5b505184111561300d576040805162461bcd60e51b815260206004820152601260248201527111549497d253959053125117d05353d5539560721b604482015290519081900360640190fd5b60008061301986612784565b91509150816000141561306c576040805162461bcd60e51b815260206004820152601660248201527511549497d6915493d7d5105491d15517d05353d5539560521b604482015290519081900360640190fd5b6000600660008154811061307c57fe5b600091825260208083209091015460048054604080516318160ddd60e01b815290516001600160a01b03948516975091909316936318160ddd938084019391929190829003018186803b1580156130d257600080fd5b505afa1580156130e6573d6000803e3d6000fd5b505050506040513d60208110156130fc57600080fd5b50519050600061310b836119cc565b9050808510806131245750808514801561312457508189145b61312a57fe5b600480546040805163a24835d160e01b81523093810193909352602483018c9052516001600160a01b039091169163a24835d191604480830192600092919082900301818387803b15801561317e57600080fd5b505af1158015613192573d6000803e3d6000fd5b5050506001600160a01b0384166000908152600760205260409020546131b99150866120cf565b6001600160a01b03841660008181526007602052604090209190915573eeeeeeeeeeeeeeeeeeeeeeeeeeeeeeeeeeeeeeee141561322c576040516001600160a01b0388169086156108fc029087906000818181858888f19350505050158015613226573d6000803e3d6000fd5b50613237565b6132378388876121d9565b600454613251906001600160a01b0316848a8c898961325e565b5092979650505050505050565b600160ff1b811061326b57fe5b604080518481526020810184905280820183905290516001600160a01b038087169288821692918a16917f276856b36cbc45526a0ba64f44611557a2a8b68662c5388e9fe6d72e86e1c8cb9181900360600190a4505050505050565b6040805160a0810182526000808252602082018190529181018290526060810182905260808101919091529056fea264697066735822122014a27927224af9a16b18bb45d62af1e80153025156e8f0acf82e8cffc8a2aa6364736f6c634300060c0033",
  "linkReferences": {},
  "deployedLinkReferences": {}
}