{
  "_format": "hh-sol-artifact-1",
  "contractName": "Registrar",
  "sourceName": "contracts/Registrar.sol",
  "abi": [
    {
      "anonymous": false,
      "inputs": [
        {
          "indexed": true,
          "internalType": "address",
          "name": "owner",
          "type": "address"
        },
        {
          "indexed": true,
          "internalType": "address",
          "name": "approved",
          "type": "address"
        },
        {
          "indexed": true,
          "internalType": "uint256",
          "name": "tokenId",
          "type": "uint256"
        }
      ],
      "name": "Approval",
      "type": "event"
    },
    {
      "anonymous": false,
      "inputs": [
        {
          "indexed": true,
          "internalType": "address",
          "name": "owner",
          "type": "address"
        },
        {
          "indexed": true,
          "internalType": "address",
          "name": "operator",
          "type": "address"
        },
        {
          "indexed": false,
          "internalType": "bool",
          "name": "approved",
          "type": "bool"
        }
      ],
      "name": "ApprovalForAll",
      "type": "event"
    },
    {
      "anonymous": false,
      "inputs": [
        {
          "indexed": true,
          "internalType": "address",
          "name": "controller",
          "type": "address"
        }
      ],
      "name": "ControllerAdded",
      "type": "event"
    },
    {
      "anonymous": false,
      "inputs": [
        {
          "indexed": true,
          "internalType": "address",
          "name": "controller",
          "type": "address"
        }
      ],
      "name": "ControllerRemoved",
      "type": "event"
    },
    {
      "anonymous": false,
      "inputs": [
        {
          "indexed": true,
          "internalType": "uint256",
          "name": "id",
          "type": "uint256"
        },
        {
          "indexed": false,
          "internalType": "string",
          "name": "name",
          "type": "string"
        },
        {
          "indexed": true,
          "internalType": "uint256",
          "name": "nameHash",
          "type": "uint256"
        },
        {
          "indexed": true,
          "internalType": "uint256",
          "name": "parent",
          "type": "uint256"
        },
        {
          "indexed": false,
          "internalType": "address",
          "name": "creator",
          "type": "address"
        },
        {
          "indexed": false,
          "internalType": "address",
          "name": "controller",
          "type": "address"
        }
      ],
      "name": "DomainCreated",
      "type": "event"
    },
    {
      "anonymous": false,
      "inputs": [
        {
          "indexed": true,
          "internalType": "uint256",
          "name": "id",
          "type": "uint256"
        },
        {
          "indexed": false,
          "internalType": "string",
          "name": "uri",
          "type": "string"
        }
      ],
      "name": "MetadataChanged",
      "type": "event"
    },
    {
      "anonymous": false,
      "inputs": [
        {
          "indexed": true,
          "internalType": "uint256",
          "name": "id",
          "type": "uint256"
        },
        {
          "indexed": false,
          "internalType": "address",
          "name": "locker",
          "type": "address"
        }
      ],
      "name": "MetadataLocked",
      "type": "event"
    },
    {
      "anonymous": false,
      "inputs": [
        {
          "indexed": true,
          "internalType": "uint256",
          "name": "id",
          "type": "uint256"
        }
      ],
      "name": "MetadataUnlocked",
      "type": "event"
    },
    {
      "anonymous": false,
      "inputs": [
        {
          "indexed": true,
          "internalType": "address",
          "name": "previousOwner",
          "type": "address"
        },
        {
          "indexed": true,
          "internalType": "address",
          "name": "newOwner",
          "type": "address"
        }
      ],
      "name": "OwnershipTransferred",
      "type": "event"
    },
    {
      "anonymous": false,
      "inputs": [
        {
          "indexed": false,
          "internalType": "address",
          "name": "account",
          "type": "address"
        }
      ],
      "name": "Paused",
      "type": "event"
    },
    {
      "anonymous": false,
      "inputs": [
        {
          "indexed": true,
          "internalType": "uint256",
          "name": "id",
          "type": "uint256"
        },
        {
          "indexed": false,
          "internalType": "uint256",
          "name": "amount",
          "type": "uint256"
        }
      ],
      "name": "RoyaltiesAmountChanged",
      "type": "event"
    },
    {
      "anonymous": false,
      "inputs": [
        {
          "indexed": true,
          "internalType": "address",
          "name": "from",
          "type": "address"
        },
        {
          "indexed": true,
          "internalType": "address",
          "name": "to",
          "type": "address"
        },
        {
          "indexed": true,
          "internalType": "uint256",
          "name": "tokenId",
          "type": "uint256"
        }
      ],
      "name": "Transfer",
      "type": "event"
    },
    {
      "anonymous": false,
      "inputs": [
        {
          "indexed": false,
          "internalType": "address",
          "name": "account",
          "type": "address"
        }
      ],
      "name": "Unpaused",
      "type": "event"
    },
    {
      "inputs": [
        {
          "internalType": "address",
          "name": "controller",
          "type": "address"
        }
      ],
      "name": "addController",
      "outputs": [],
      "stateMutability": "nonpayable",
      "type": "function"
    },
    {
      "inputs": [
        {
          "internalType": "address",
          "name": "to",
          "type": "address"
        },
        {
          "internalType": "uint256",
          "name": "tokenId",
          "type": "uint256"
        }
      ],
      "name": "approve",
      "outputs": [],
      "stateMutability": "nonpayable",
      "type": "function"
    },
    {
      "inputs": [
        {
          "internalType": "address",
          "name": "owner",
          "type": "address"
        }
      ],
      "name": "balanceOf",
      "outputs": [
        {
          "internalType": "uint256",
          "name": "",
          "type": "uint256"
        }
      ],
      "stateMutability": "view",
      "type": "function"
    },
    {
      "inputs": [],
      "name": "baseURI",
      "outputs": [
        {
          "internalType": "string",
          "name": "",
          "type": "string"
        }
      ],
      "stateMutability": "view",
      "type": "function"
    },
    {
      "inputs": [
        {
          "internalType": "address",
          "name": "",
          "type": "address"
        }
      ],
      "name": "controllers",
      "outputs": [
        {
          "internalType": "bool",
          "name": "",
          "type": "bool"
        }
      ],
      "stateMutability": "view",
      "type": "function"
    },
    {
      "inputs": [
        {
          "internalType": "uint256",
          "name": "id",
          "type": "uint256"
        }
      ],
      "name": "creatorOf",
      "outputs": [
        {
          "internalType": "address",
          "name": "",
          "type": "address"
        }
      ],
      "stateMutability": "view",
      "type": "function"
    },
    {
      "inputs": [
        {
          "internalType": "uint256",
          "name": "id",
          "type": "uint256"
        }
      ],
      "name": "domainController",
      "outputs": [
        {
          "internalType": "address",
          "name": "",
          "type": "address"
        }
      ],
      "stateMutability": "view",
      "type": "function"
    },
    {
      "inputs": [
        {
          "internalType": "uint256",
          "name": "id",
          "type": "uint256"
        }
      ],
      "name": "domainExists",
      "outputs": [
        {
          "internalType": "bool",
          "name": "",
          "type": "bool"
        }
      ],
      "stateMutability": "view",
      "type": "function"
    },
    {
      "inputs": [
        {
          "internalType": "uint256",
          "name": "id",
          "type": "uint256"
        }
      ],
      "name": "domainMetadataLockedBy",
      "outputs": [
        {
          "internalType": "address",
          "name": "",
          "type": "address"
        }
      ],
      "stateMutability": "view",
      "type": "function"
    },
    {
      "inputs": [
        {
          "internalType": "uint256",
          "name": "id",
          "type": "uint256"
        }
      ],
      "name": "domainRoyaltyAmount",
      "outputs": [
        {
          "internalType": "uint256",
          "name": "",
          "type": "uint256"
        }
      ],
      "stateMutability": "view",
      "type": "function"
    },
    {
      "inputs": [
        {
          "internalType": "uint256",
          "name": "tokenId",
          "type": "uint256"
        }
      ],
      "name": "getApproved",
      "outputs": [
        {
          "internalType": "address",
          "name": "",
          "type": "address"
        }
      ],
      "stateMutability": "view",
      "type": "function"
    },
    {
      "inputs": [],
      "name": "initialize",
      "outputs": [],
      "stateMutability": "nonpayable",
      "type": "function"
    },
    {
      "inputs": [
        {
          "internalType": "address",
          "name": "owner",
          "type": "address"
        },
        {
          "internalType": "address",
          "name": "operator",
          "type": "address"
        }
      ],
      "name": "isApprovedForAll",
      "outputs": [
        {
          "internalType": "bool",
          "name": "",
          "type": "bool"
        }
      ],
      "stateMutability": "view",
      "type": "function"
    },
    {
      "inputs": [
        {
          "internalType": "uint256",
          "name": "id",
          "type": "uint256"
        }
      ],
      "name": "isAvailable",
      "outputs": [
        {
          "internalType": "bool",
          "name": "",
          "type": "bool"
        }
      ],
      "stateMutability": "view",
      "type": "function"
    },
    {
      "inputs": [
        {
          "internalType": "uint256",
          "name": "id",
          "type": "uint256"
        }
      ],
      "name": "isDomainMetadataLocked",
      "outputs": [
        {
          "internalType": "bool",
          "name": "",
          "type": "bool"
        }
      ],
      "stateMutability": "view",
      "type": "function"
    },
    {
      "inputs": [
        {
          "internalType": "uint256",
          "name": "id",
          "type": "uint256"
        }
      ],
      "name": "lockDomainMetadata",
      "outputs": [],
      "stateMutability": "nonpayable",
      "type": "function"
    },
    {
      "inputs": [
        {
          "internalType": "uint256",
          "name": "id",
          "type": "uint256"
        }
      ],
      "name": "lockDomainMetadataForOwner",
      "outputs": [],
      "stateMutability": "nonpayable",
      "type": "function"
    },
    {
      "inputs": [],
      "name": "name",
      "outputs": [
        {
          "internalType": "string",
          "name": "",
          "type": "string"
        }
      ],
      "stateMutability": "view",
      "type": "function"
    },
    {
      "inputs": [],
      "name": "owner",
      "outputs": [
        {
          "internalType": "address",
          "name": "",
          "type": "address"
        }
      ],
      "stateMutability": "view",
      "type": "function"
    },
    {
      "inputs": [
        {
          "internalType": "uint256",
          "name": "tokenId",
          "type": "uint256"
        }
      ],
      "name": "ownerOf",
      "outputs": [
        {
          "internalType": "address",
          "name": "",
          "type": "address"
        }
      ],
      "stateMutability": "view",
      "type": "function"
    },
    {
      "inputs": [],
      "name": "paused",
      "outputs": [
        {
          "internalType": "bool",
          "name": "",
          "type": "bool"
        }
      ],
      "stateMutability": "view",
      "type": "function"
    },
    {
      "inputs": [
        {
          "internalType": "uint256",
          "name": "",
          "type": "uint256"
        }
      ],
      "name": "records",
      "outputs": [
        {
          "internalType": "address",
          "name": "creator",
          "type": "address"
        },
        {
          "internalType": "bool",
          "name": "metadataLocked",
          "type": "bool"
        },
        {
          "internalType": "address",
          "name": "metadataLockedBy",
          "type": "address"
        },
        {
          "internalType": "address",
          "name": "controller",
          "type": "address"
        },
        {
          "internalType": "uint256",
          "name": "royaltyAmount",
          "type": "uint256"
        }
      ],
      "stateMutability": "view",
      "type": "function"
    },
    {
      "inputs": [
        {
          "internalType": "uint256",
          "name": "parentId",
          "type": "uint256"
        },
        {
          "internalType": "string",
          "name": "name",
          "type": "string"
        },
        {
          "internalType": "address",
          "name": "domainOwner",
          "type": "address"
        },
        {
          "internalType": "address",
          "name": "creator",
          "type": "address"
        }
      ],
      "name": "registerDomain",
      "outputs": [
        {
          "internalType": "uint256",
          "name": "",
          "type": "uint256"
        }
      ],
      "stateMutability": "nonpayable",
      "type": "function"
    },
    {
      "inputs": [
        {
          "internalType": "address",
          "name": "controller",
          "type": "address"
        }
      ],
      "name": "removeController",
      "outputs": [],
      "stateMutability": "nonpayable",
      "type": "function"
    },
    {
      "inputs": [],
      "name": "renounceOwnership",
      "outputs": [],
      "stateMutability": "nonpayable",
      "type": "function"
    },
    {
      "inputs": [
        {
          "internalType": "address",
          "name": "from",
          "type": "address"
        },
        {
          "internalType": "address",
          "name": "to",
          "type": "address"
        },
        {
          "internalType": "uint256",
          "name": "tokenId",
          "type": "uint256"
        }
      ],
      "name": "safeTransferFrom",
      "outputs": [],
      "stateMutability": "nonpayable",
      "type": "function"
    },
    {
      "inputs": [
        {
          "internalType": "address",
          "name": "from",
          "type": "address"
        },
        {
          "internalType": "address",
          "name": "to",
          "type": "address"
        },
        {
          "internalType": "uint256",
          "name": "tokenId",
          "type": "uint256"
        },
        {
          "internalType": "bytes",
          "name": "_data",
          "type": "bytes"
        }
      ],
      "name": "safeTransferFrom",
      "outputs": [],
      "stateMutability": "nonpayable",
      "type": "function"
    },
    {
      "inputs": [
        {
          "internalType": "address",
          "name": "operator",
          "type": "address"
        },
        {
          "internalType": "bool",
          "name": "approved",
          "type": "bool"
        }
      ],
      "name": "setApprovalForAll",
      "outputs": [],
      "stateMutability": "nonpayable",
      "type": "function"
    },
    {
      "inputs": [
        {
          "internalType": "uint256",
          "name": "id",
          "type": "uint256"
        },
        {
          "internalType": "string",
          "name": "uri",
          "type": "string"
        }
      ],
      "name": "setDomainMetadataUri",
      "outputs": [],
      "stateMutability": "nonpayable",
      "type": "function"
    },
    {
      "inputs": [
        {
          "internalType": "uint256",
          "name": "id",
          "type": "uint256"
        },
        {
          "internalType": "uint256",
          "name": "amount",
          "type": "uint256"
        }
      ],
      "name": "setDomainRoyaltyAmount",
      "outputs": [],
      "stateMutability": "nonpayable",
      "type": "function"
    },
    {
      "inputs": [
        {
          "internalType": "bytes4",
          "name": "interfaceId",
          "type": "bytes4"
        }
      ],
      "name": "supportsInterface",
      "outputs": [
        {
          "internalType": "bool",
          "name": "",
          "type": "bool"
        }
      ],
      "stateMutability": "view",
      "type": "function"
    },
    {
      "inputs": [],
      "name": "symbol",
      "outputs": [
        {
          "internalType": "string",
          "name": "",
          "type": "string"
        }
      ],
      "stateMutability": "view",
      "type": "function"
    },
    {
      "inputs": [
        {
          "internalType": "uint256",
          "name": "index",
          "type": "uint256"
        }
      ],
      "name": "tokenByIndex",
      "outputs": [
        {
          "internalType": "uint256",
          "name": "",
          "type": "uint256"
        }
      ],
      "stateMutability": "view",
      "type": "function"
    },
    {
      "inputs": [
        {
          "internalType": "address",
          "name": "owner",
          "type": "address"
        },
        {
          "internalType": "uint256",
          "name": "index",
          "type": "uint256"
        }
      ],
      "name": "tokenOfOwnerByIndex",
      "outputs": [
        {
          "internalType": "uint256",
          "name": "",
          "type": "uint256"
        }
      ],
      "stateMutability": "view",
      "type": "function"
    },
    {
      "inputs": [
        {
          "internalType": "uint256",
          "name": "tokenId",
          "type": "uint256"
        }
      ],
      "name": "tokenURI",
      "outputs": [
        {
          "internalType": "string",
          "name": "",
          "type": "string"
        }
      ],
      "stateMutability": "view",
      "type": "function"
    },
    {
      "inputs": [],
      "name": "totalSupply",
      "outputs": [
        {
          "internalType": "uint256",
          "name": "",
          "type": "uint256"
        }
      ],
      "stateMutability": "view",
      "type": "function"
    },
    {
      "inputs": [
        {
          "internalType": "address",
          "name": "from",
          "type": "address"
        },
        {
          "internalType": "address",
          "name": "to",
          "type": "address"
        },
        {
          "internalType": "uint256",
          "name": "tokenId",
          "type": "uint256"
        }
      ],
      "name": "transferFrom",
      "outputs": [],
      "stateMutability": "nonpayable",
      "type": "function"
    },
    {
      "inputs": [
        {
          "internalType": "address",
          "name": "newOwner",
          "type": "address"
        }
      ],
      "name": "transferOwnership",
      "outputs": [],
      "stateMutability": "nonpayable",
      "type": "function"
    },
    {
      "inputs": [
        {
          "internalType": "uint256",
          "name": "id",
          "type": "uint256"
        }
      ],
      "name": "unlockDomainMetadata",
      "outputs": [],
      "stateMutability": "nonpayable",
      "type": "function"
    }
  ],
  "bytecode": "0x608060405234801561001057600080fd5b506152e8806100206000396000f3fe608060405234801561001057600080fd5b506004361061023d5760003560e01c80636c0360eb1161013b578063a22cb465116100b8578063d4891ebb1161007c578063d4891ebb14610e09578063da8c229e14610f22578063e985e9c514610f7c578063f2fde38b14610ff6578063f6a74ed71461103a5761023d565b8063a22cb46514610b85578063a7fc7a0714610bd5578063b88d4fde14610c19578063be21eccd14610d1e578063c87b56dd14610d625761023d565b80638129fc1c116100ff5780638129fc1c14610a5257806386c803b114610a5c5780638da5cb5b14610a8a5780638de2dec914610abe57806395d89b4114610b025761023d565b80636c0360eb146108d357806370a0823114610956578063715018a6146109ae5780637ad3e55b146109b85780637efcc90d146109fa5761023d565b806334461067116101c9578063589a17431161018d578063589a17431461077d5780635c975abb146107d5578063620e42ea146107f55780636352211e1461084d578063672c1e14146108a55761023d565b806334461067146105225780633a178d99146105c457806341d01e7c1461060857806342842e0e146106cd5780634f6ccce71461073b5761023d565b806318160ddd1161021057806318160ddd146103ce57806323b872dd146103ec5780632566193f1461045a57806329ae4dc8146104925780632f745c59146104c05761023d565b806301ffc9a71461024257806306fdde03146102a5578063081812fc14610328578063095ea7b314610380575b600080fd5b61028d6004803603602081101561025857600080fd5b8101908080357bffffffffffffffffffffffffffffffffffffffffffffffffffffffff1916906020019092919050505061107e565b60405180821515815260200191505060405180910390f35b6102ad6110e6565b6040518080602001828103825283818151815260200191508051906020019080838360005b838110156102ed5780820151818401526020810190506102d2565b50505050905090810190601f16801561031a5780820380516001836020036101000a031916815260200191505b509250505060405180910390f35b6103546004803603602081101561033e57600080fd5b8101908080359060200190929190505050611188565b604051808273ffffffffffffffffffffffffffffffffffffffff16815260200191505060405180910390f35b6103cc6004803603604081101561039657600080fd5b81019080803573ffffffffffffffffffffffffffffffffffffffff16906020019092919080359060200190929190505050611223565b005b6103d6611367565b6040518082815260200191505060405180910390f35b6104586004803603606081101561040257600080fd5b81019080803573ffffffffffffffffffffffffffffffffffffffff169060200190929190803573ffffffffffffffffffffffffffffffffffffffff16906020019092919080359060200190929190505050611378565b005b6104906004803603604081101561047057600080fd5b8101908080359060200190929190803590602001909291905050506113ee565b005b6104be600480360360208110156104a857600080fd5b810190808035906020019092919050505061156d565b005b61050c600480360360408110156104d657600080fd5b81019080803573ffffffffffffffffffffffffffffffffffffffff1690602001909291908035906020019092919050505061169d565b6040518082815260200191505060405180910390f35b61054e6004803603602081101561053857600080fd5b81019080803590602001909291905050506116f8565b604051808673ffffffffffffffffffffffffffffffffffffffff16815260200185151581526020018473ffffffffffffffffffffffffffffffffffffffff1681526020018373ffffffffffffffffffffffffffffffffffffffff1681526020018281526020019550505050505060405180910390f35b6105f0600480360360208110156105da57600080fd5b810190808035906020019092919050505061179c565b60405180821515815260200191505060405180910390f35b6106cb6004803603604081101561061e57600080fd5b81019080803590602001909291908035906020019064010000000081111561064557600080fd5b82018360208201111561065757600080fd5b8035906020019184600183028401116401000000008311171561067957600080fd5b91908080601f016020809104026020016040519081016040528093929190818152602001838380828437600081840152601f19601f8201169050808301925050505050505091929192905050506117b4565b005b610739600480360360608110156106e357600080fd5b81019080803573ffffffffffffffffffffffffffffffffffffffff169060200190929190803573ffffffffffffffffffffffffffffffffffffffff16906020019092919080359060200190929190505050611986565b005b6107676004803603602081101561075157600080fd5b81019080803590602001909291905050506119a6565b6040518082815260200191505060405180910390f35b6107a96004803603602081101561079357600080fd5b81019080803590602001909291905050506119c9565b604051808273ffffffffffffffffffffffffffffffffffffffff16815260200191505060405180910390f35b6107dd611a0f565b60405180821515815260200191505060405180910390f35b6108216004803603602081101561080b57600080fd5b8101908080359060200190929190505050611a26565b604051808273ffffffffffffffffffffffffffffffffffffffff16815260200191505060405180910390f35b6108796004803603602081101561086357600080fd5b8101908080359060200190929190505050611a6c565b604051808273ffffffffffffffffffffffffffffffffffffffff16815260200191505060405180910390f35b6108d1600480360360208110156108bb57600080fd5b8101908080359060200190929190505050611aa3565b005b6108db611bfa565b6040518080602001828103825283818151815260200191508051906020019080838360005b8381101561091b578082015181840152602081019050610900565b50505050905090810190601f1680156109485780820380516001836020036101000a031916815260200191505b509250505060405180910390f35b6109986004803603602081101561096c57600080fd5b81019080803573ffffffffffffffffffffffffffffffffffffffff169060200190929190505050611c9c565b6040518082815260200191505060405180910390f35b6109b6611d71565b005b6109e4600480360360208110156109ce57600080fd5b8101908080359060200190929190505050611ee1565b6040518082815260200191505060405180910390f35b610a2660048036036020811015610a1057600080fd5b8101908080359060200190929190505050611f07565b604051808273ffffffffffffffffffffffffffffffffffffffff16815260200191505060405180910390f35b610a5a611f4d565b005b610a8860048036036020811015610a7257600080fd5b81019080803590602001909291905050506120d5565b005b610a92612209565b604051808273ffffffffffffffffffffffffffffffffffffffff16815260200191505060405180910390f35b610aea60048036036020811015610ad457600080fd5b8101908080359060200190929190505050612233565b60405180821515815260200191505060405180910390f35b610b0a61224a565b6040518080602001828103825283818151815260200191508051906020019080838360005b83811015610b4a578082015181840152602081019050610b2f565b50505050905090810190601f168015610b775780820380516001836020036101000a031916815260200191505b509250505060405180910390f35b610bd360048036036040811015610b9b57600080fd5b81019080803573ffffffffffffffffffffffffffffffffffffffff1690602001909291908035151590602001909291905050506122ec565b005b610c1760048036036020811015610beb57600080fd5b81019080803573ffffffffffffffffffffffffffffffffffffffff1690602001909291905050506124a2565b005b610d1c60048036036080811015610c2f57600080fd5b81019080803573ffffffffffffffffffffffffffffffffffffffff169060200190929190803573ffffffffffffffffffffffffffffffffffffffff1690602001909291908035906020019092919080359060200190640100000000811115610c9657600080fd5b820183602082011115610ca857600080fd5b80359060200191846001830284011164010000000083111715610cca57600080fd5b91908080601f016020809104026020016040519081016040528093929190818152602001838380828437600081840152601f19601f8201169050808301925050505050505091929192905050506125f0565b005b610d4a60048036036020811015610d3457600080fd5b8101908080359060200190929190505050612668565b60405180821515815260200191505060405180910390f35b610d8e60048036036020811015610d7857600080fd5b810190808035906020019092919050505061269b565b6040518080602001828103825283818151815260200191508051906020019080838360005b83811015610dce578082015181840152602081019050610db3565b50505050905090810190601f168015610dfb5780820380516001836020036101000a031916815260200191505b509250505060405180910390f35b610f0c60048036036080811015610e1f57600080fd5b810190808035906020019092919080359060200190640100000000811115610e4657600080fd5b820183602082011115610e5857600080fd5b80359060200191846001830284011164010000000083111715610e7a57600080fd5b91908080601f016020809104026020016040519081016040528093929190818152602001838380828437600081840152601f19601f820116905080830192505050505050509192919290803573ffffffffffffffffffffffffffffffffffffffff169060200190929190803573ffffffffffffffffffffffffffffffffffffffff16906020019092919050505061296c565b6040518082815260200191505060405180910390f35b610f6460048036036020811015610f3857600080fd5b81019080803573ffffffffffffffffffffffffffffffffffffffff169060200190929190505050612be8565b60405180821515815260200191505060405180910390f35b610fde60048036036040811015610f9257600080fd5b81019080803573ffffffffffffffffffffffffffffffffffffffff169060200190929190803573ffffffffffffffffffffffffffffffffffffffff169060200190929190505050612c09565b60405180821515815260200191505060405180910390f35b6110386004803603602081101561100c57600080fd5b81019080803573ffffffffffffffffffffffffffffffffffffffff169060200190929190505050612c9d565b005b61107c6004803603602081101561105057600080fd5b81019080803573ffffffffffffffffffffffffffffffffffffffff169060200190929190505050612e92565b005b600060336000837bffffffffffffffffffffffffffffffffffffffffffffffffffffffff19167bffffffffffffffffffffffffffffffffffffffffffffffffffffffff1916815260200190815260200160002060009054906101000a900460ff169050919050565b6060609c8054600181600116156101000203166002900480601f01602080910402602001604051908101604052809291908181526020018280546001816001161561010002031660029004801561117e5780601f106111535761010080835404028352916020019161117e565b820191906000526020600020905b81548152906001019060200180831161116157829003601f168201915b5050505050905090565b600061119382612fe0565b6111e8576040517f08c379a000000000000000000000000000000000000000000000000000000000815260040180806020018281038252602c8152602001806151b1602c913960400191505060405180910390fd5b609a600083815260200190815260200160002060009054906101000a900473ffffffffffffffffffffffffffffffffffffffff169050919050565b600061122e82611a6c565b90508073ffffffffffffffffffffffffffffffffffffffff168373ffffffffffffffffffffffffffffffffffffffff1614156112b5576040517f08c379a00000000000000000000000000000000000000000000000000000000081526004018080602001828103825260218152602001806152616021913960400191505060405180910390fd5b8073ffffffffffffffffffffffffffffffffffffffff166112d4612ffd565b73ffffffffffffffffffffffffffffffffffffffff1614806113035750611302816112fd612ffd565b612c09565b5b611358576040517f08c379a00000000000000000000000000000000000000000000000000000000081526004018080602001828103825260388152602001806150d66038913960400191505060405180910390fd5b6113628383613005565b505050565b600061137360986130be565b905090565b611389611383612ffd565b826130d3565b6113de576040517f08c379a00000000000000000000000000000000000000000000000000000000081526004018080602001828103825260318152602001806152826031913960400191505060405180910390fd5b6113e98383836131c7565b505050565b813373ffffffffffffffffffffffffffffffffffffffff1661140f82611a6c565b73ffffffffffffffffffffffffffffffffffffffff1614611498576040517f08c379a00000000000000000000000000000000000000000000000000000000081526004018080602001828103825260098152602001807f4e6f74206f776e6572000000000000000000000000000000000000000000000081525060200191505060405180910390fd5b6114a183612668565b15611514576040517f08c379a000000000000000000000000000000000000000000000000000000000815260040180806020018281038252600f8152602001807f4d65746164617461206c6f636b6564000000000000000000000000000000000081525060200191505060405180910390fd5b8161012e600085815260200190815260200160002060030181905550827fc5d3655658e1a082c77cb3090bd47fa5ab24b4b24fe0613109f4b6ced9681c81836040518082815260200191505060405180910390a2505050565b61157681612668565b6115e8576040517f08c379a000000000000000000000000000000000000000000000000000000000815260040180806020018281038252600a8152602001807f4e6f74206c6f636b65640000000000000000000000000000000000000000000081525060200191505060405180910390fd5b3373ffffffffffffffffffffffffffffffffffffffff1661160882611a26565b73ffffffffffffffffffffffffffffffffffffffff1614611691576040517f08c379a000000000000000000000000000000000000000000000000000000000815260040180806020018281038252600a8152602001807f4e6f74206c6f636b65720000000000000000000000000000000000000000000081525060200191505060405180910390fd5b61169a8161340a565b50565b60006116f082609760008673ffffffffffffffffffffffffffffffffffffffff1673ffffffffffffffffffffffffffffffffffffffff1681526020019081526020016000206134c190919063ffffffff16565b905092915050565b61012e6020528060005260406000206000915090508060000160009054906101000a900473ffffffffffffffffffffffffffffffffffffffff16908060000160149054906101000a900460ff16908060010160009054906101000a900473ffffffffffffffffffffffffffffffffffffffff16908060020160009054906101000a900473ffffffffffffffffffffffffffffffffffffffff16908060030154905085565b6000806117a883612fe0565b15905080915050919050565b813373ffffffffffffffffffffffffffffffffffffffff166117d582611a6c565b73ffffffffffffffffffffffffffffffffffffffff161461185e576040517f08c379a00000000000000000000000000000000000000000000000000000000081526004018080602001828103825260098152602001807f4e6f74206f776e6572000000000000000000000000000000000000000000000081525060200191505060405180910390fd5b61186783612668565b156118da576040517f08c379a000000000000000000000000000000000000000000000000000000000815260040180806020018281038252600f8152602001807f4d65746164617461206c6f636b6564000000000000000000000000000000000081525060200191505060405180910390fd5b6118e483836134db565b827f2822080855c1a796047f86db6703ee05ff65e9ab90092ca4114af8f017f2047e836040518080602001828103825283818151815260200191508051906020019080838360005b8381101561194757808201518184015260208101905061192c565b50505050905090810190601f1680156119745780820380516001836020036101000a031916815260200191505b509250505060405180910390a2505050565b6119a1838383604051806020016040528060008152506125f0565b505050565b6000806119bd83609861356590919063ffffffff16565b50905080915050919050565b60008061012e600084815260200190815260200160002060000160009054906101000a900473ffffffffffffffffffffffffffffffffffffffff16905080915050919050565b600060c960009054906101000a900460ff16905090565b60008061012e600084815260200190815260200160002060010160009054906101000a900473ffffffffffffffffffffffffffffffffffffffff16905080915050919050565b6000611a9c826040518060600160405280602981526020016151386029913960986135919092919063ffffffff16565b9050919050565b61012d60003373ffffffffffffffffffffffffffffffffffffffff1673ffffffffffffffffffffffffffffffffffffffff16815260200190815260200160002060009054906101000a900460ff16611b63576040517f08c379a000000000000000000000000000000000000000000000000000000000815260040180806020018281038252600e8152602001807f4e6f7420636f6e74726f6c6c657200000000000000000000000000000000000081525060200191505060405180910390fd5b611b6c81612668565b15611bdf576040517f08c379a000000000000000000000000000000000000000000000000000000000815260040180806020018281038252600f8152602001807f4d65746164617461206c6f636b6564000000000000000000000000000000000081525060200191505060405180910390fd5b6000611bea82611a6c565b9050611bf682826135b0565b5050565b6060609f8054600181600116156101000203166002900480601f016020809104026020016040519081016040528092919081815260200182805460018160011615610100020316600290048015611c925780601f10611c6757610100808354040283529160200191611c92565b820191906000526020600020905b815481529060010190602001808311611c7557829003601f168201915b5050505050905090565b60008073ffffffffffffffffffffffffffffffffffffffff168273ffffffffffffffffffffffffffffffffffffffff161415611d23576040517f08c379a000000000000000000000000000000000000000000000000000000000815260040180806020018281038252602a81526020018061510e602a913960400191505060405180910390fd5b611d6a609760008473ffffffffffffffffffffffffffffffffffffffff1673ffffffffffffffffffffffffffffffffffffffff168152602001908152602001600020613688565b9050919050565b611d79612ffd565b73ffffffffffffffffffffffffffffffffffffffff16611d97612209565b73ffffffffffffffffffffffffffffffffffffffff1614611e20576040517f08c379a00000000000000000000000000000000000000000000000000000000081526004018080602001828103825260208152602001807f4f776e61626c653a2063616c6c6572206973206e6f7420746865206f776e657281525060200191505060405180910390fd5b600073ffffffffffffffffffffffffffffffffffffffff16606560009054906101000a900473ffffffffffffffffffffffffffffffffffffffff1673ffffffffffffffffffffffffffffffffffffffff167f8be0079c531659141344cd1fd0a4f28419497f9722a3daafe3b4186f6b6457e060405160405180910390a36000606560006101000a81548173ffffffffffffffffffffffffffffffffffffffff021916908373ffffffffffffffffffffffffffffffffffffffff160217905550565b60008061012e600084815260200190815260200160002060030154905080915050919050565b60008061012e600084815260200190815260200160002060020160009054906101000a900473ffffffffffffffffffffffffffffffffffffffff16905080915050919050565b600060019054906101000a900460ff1680611f6c5750611f6b61369d565b5b80611f82575060008054906101000a900460ff16155b611fd7576040517f08c379a000000000000000000000000000000000000000000000000000000000815260040180806020018281038252602e815260200180615161602e913960400191505060405180910390fd5b60008060019054906101000a900460ff161590508015612027576001600060016101000a81548160ff02191690831515021790555060016000806101000a81548160ff0219169083151502179055505b61202f6136ae565b6120a36040518060400160405280601181526020017f5a657230204e616d6520536572766963650000000000000000000000000000008152506040518060400160405280600381526020017f5a4e5300000000000000000000000000000000000000000000000000000000008152506137bc565b6120b16000333360006138d6565b80156120d25760008060016101000a81548160ff0219169083151502179055505b50565b803373ffffffffffffffffffffffffffffffffffffffff166120f682611a6c565b73ffffffffffffffffffffffffffffffffffffffff161461217f576040517f08c379a00000000000000000000000000000000000000000000000000000000081526004018080602001828103825260098152602001807f4e6f74206f776e6572000000000000000000000000000000000000000000000081525060200191505060405180910390fd5b61218882612668565b156121fb576040517f08c379a000000000000000000000000000000000000000000000000000000000815260040180806020018281038252600f8152602001807f4d65746164617461206c6f636b6564000000000000000000000000000000000081525060200191505060405180910390fd5b61220582336135b0565b5050565b6000606560009054906101000a900473ffffffffffffffffffffffffffffffffffffffff16905090565b60008061223f83612fe0565b905080915050919050565b6060609d8054600181600116156101000203166002900480601f0160208091040260200160405190810160405280929190818152602001828054600181600116156101000203166002900480156122e25780601f106122b7576101008083540402835291602001916122e2565b820191906000526020600020905b8154815290600101906020018083116122c557829003601f168201915b5050505050905090565b6122f4612ffd565b73ffffffffffffffffffffffffffffffffffffffff168273ffffffffffffffffffffffffffffffffffffffff161415612395576040517f08c379a00000000000000000000000000000000000000000000000000000000081526004018080602001828103825260198152602001807f4552433732313a20617070726f766520746f2063616c6c65720000000000000081525060200191505060405180910390fd5b80609b60006123a2612ffd565b73ffffffffffffffffffffffffffffffffffffffff1673ffffffffffffffffffffffffffffffffffffffff16815260200190815260200160002060008473ffffffffffffffffffffffffffffffffffffffff1673ffffffffffffffffffffffffffffffffffffffff16815260200190815260200160002060006101000a81548160ff0219169083151502179055508173ffffffffffffffffffffffffffffffffffffffff1661244f612ffd565b73ffffffffffffffffffffffffffffffffffffffff167f17307eab39ab6107e8899845ad3d59bd9653f200f220920489ca2b5937696c318360405180821515815260200191505060405180910390a35050565b6124aa612ffd565b73ffffffffffffffffffffffffffffffffffffffff166124c8612209565b73ffffffffffffffffffffffffffffffffffffffff1614612551576040517f08c379a00000000000000000000000000000000000000000000000000000000081526004018080602001828103825260208152602001807f4f776e61626c653a2063616c6c6572206973206e6f7420746865206f776e657281525060200191505060405180910390fd5b600161012d60008373ffffffffffffffffffffffffffffffffffffffff1673ffffffffffffffffffffffffffffffffffffffff16815260200190815260200160002060006101000a81548160ff0219169083151502179055508073ffffffffffffffffffffffffffffffffffffffff167f0a8bb31534c0ed46f380cb867bd5c803a189ced9a764e30b3a4991a9901d747460405160405180910390a250565b6126016125fb612ffd565b836130d3565b612656576040517f08c379a00000000000000000000000000000000000000000000000000000000081526004018080602001828103825260318152602001806152826031913960400191505060405180910390fd5b61266284848484613a6a565b50505050565b60008061012e600084815260200190815260200160002060000160149054906101000a900460ff16905080915050919050565b60606126a682612fe0565b6126fb576040517f08c379a000000000000000000000000000000000000000000000000000000000815260040180806020018281038252602f815260200180615232602f913960400191505060405180910390fd5b6060609e60008481526020019081526020016000208054600181600116156101000203166002900480601f0160208091040260200160405190810160405280929190818152602001828054600181600116156101000203166002900480156127a45780601f10612779576101008083540402835291602001916127a4565b820191906000526020600020905b81548152906001019060200180831161278757829003601f168201915b5050505050905060606127b5611bfa565b90506000815114156127cb578192505050612967565b60008251111561289c5780826040516020018083805190602001908083835b6020831061280d57805182526020820191506020810190506020830392506127ea565b6001836020036101000a03801982511681845116808217855250505050505090500182805190602001908083835b6020831061285e578051825260208201915060208101905060208303925061283b565b6001836020036101000a0380198251168184511680821785525050505050509050019250505060405160208183030381529060405292505050612967565b806128a685613adc565b6040516020018083805190602001908083835b602083106128dc57805182526020820191506020810190506020830392506128b9565b6001836020036101000a03801982511681845116808217855250505050505090500182805190602001908083835b6020831061292d578051825260208201915060208101905060208303925061290a565b6001836020036101000a03801982511681845116808217855250505050505090500192505050604051602081830303815290604052925050505b919050565b600061012d60003373ffffffffffffffffffffffffffffffffffffffff1673ffffffffffffffffffffffffffffffffffffffff16815260200190815260200160002060009054906101000a900460ff16612a2e576040517f08c379a000000000000000000000000000000000000000000000000000000000815260040180806020018281038252600e8152602001807f4e6f7420636f6e74726f6c6c657200000000000000000000000000000000000081525060200191505060405180910390fd5b6000848051906020012060001c90506000339050612a4b87612fe0565b612abd576040517f08c379a00000000000000000000000000000000000000000000000000000000081526004018080602001828103825260098152602001807f4e6f20706172656e74000000000000000000000000000000000000000000000081525060200191505060405180910390fd5b6000878360405160200180838152602001828152602001925050506040516020818303038152906040528051906020012060001c9050612aff818787856138d6565b8783827fc0df47d75235cb55cc25dad2877292fa8d7559a887d3e457aaafcf20a0d248728a898760405180806020018473ffffffffffffffffffffffffffffffffffffffff1681526020018373ffffffffffffffffffffffffffffffffffffffff168152602001828103825285818151815260200191508051906020019080838360005b83811015612b9e578082015181840152602081019050612b83565b50505050905090810190601f168015612bcb5780820380516001836020036101000a031916815260200191505b5094505050505060405180910390a4809350505050949350505050565b61012d6020528060005260406000206000915054906101000a900460ff1681565b6000609b60008473ffffffffffffffffffffffffffffffffffffffff1673ffffffffffffffffffffffffffffffffffffffff16815260200190815260200160002060008373ffffffffffffffffffffffffffffffffffffffff1673ffffffffffffffffffffffffffffffffffffffff16815260200190815260200160002060009054906101000a900460ff16905092915050565b612ca5612ffd565b73ffffffffffffffffffffffffffffffffffffffff16612cc3612209565b73ffffffffffffffffffffffffffffffffffffffff1614612d4c576040517f08c379a00000000000000000000000000000000000000000000000000000000081526004018080602001828103825260208152602001807f4f776e61626c653a2063616c6c6572206973206e6f7420746865206f776e657281525060200191505060405180910390fd5b600073ffffffffffffffffffffffffffffffffffffffff168173ffffffffffffffffffffffffffffffffffffffff161415612dd2576040517f08c379a000000000000000000000000000000000000000000000000000000000815260040180806020018281038252602681526020018061503a6026913960400191505060405180910390fd5b8073ffffffffffffffffffffffffffffffffffffffff16606560009054906101000a900473ffffffffffffffffffffffffffffffffffffffff1673ffffffffffffffffffffffffffffffffffffffff167f8be0079c531659141344cd1fd0a4f28419497f9722a3daafe3b4186f6b6457e060405160405180910390a380606560006101000a81548173ffffffffffffffffffffffffffffffffffffffff021916908373ffffffffffffffffffffffffffffffffffffffff16021790555050565b612e9a612ffd565b73ffffffffffffffffffffffffffffffffffffffff16612eb8612209565b73ffffffffffffffffffffffffffffffffffffffff1614612f41576040517f08c379a00000000000000000000000000000000000000000000000000000000081526004018080602001828103825260208152602001807f4f776e61626c653a2063616c6c6572206973206e6f7420746865206f776e657281525060200191505060405180910390fd5b600061012d60008373ffffffffffffffffffffffffffffffffffffffff1673ffffffffffffffffffffffffffffffffffffffff16815260200190815260200160002060006101000a81548160ff0219169083151502179055508073ffffffffffffffffffffffffffffffffffffffff167f33d83959be2573f5453b12eb9d43b3499bc57d96bd2f067ba44803c859e8111360405160405180910390a250565b6000612ff6826098613c2390919063ffffffff16565b9050919050565b600033905090565b81609a600083815260200190815260200160002060006101000a81548173ffffffffffffffffffffffffffffffffffffffff021916908373ffffffffffffffffffffffffffffffffffffffff160217905550808273ffffffffffffffffffffffffffffffffffffffff1661307883611a6c565b73ffffffffffffffffffffffffffffffffffffffff167f8c5be1e5ebec7d5bd14f71427d1e84f3dd0314c0f7b2291e5b200ac8c7c3b92560405160405180910390a45050565b60006130cc82600001613c3d565b9050919050565b60006130de82612fe0565b613133576040517f08c379a000000000000000000000000000000000000000000000000000000000815260040180806020018281038252602c8152602001806150aa602c913960400191505060405180910390fd5b600061313e83611a6c565b90508073ffffffffffffffffffffffffffffffffffffffff168473ffffffffffffffffffffffffffffffffffffffff1614806131ad57508373ffffffffffffffffffffffffffffffffffffffff1661319584611188565b73ffffffffffffffffffffffffffffffffffffffff16145b806131be57506131bd8185612c09565b5b91505092915050565b8273ffffffffffffffffffffffffffffffffffffffff166131e782611a6c565b73ffffffffffffffffffffffffffffffffffffffff1614613253576040517f08c379a00000000000000000000000000000000000000000000000000000000081526004018080602001828103825260298152602001806152096029913960400191505060405180910390fd5b600073ffffffffffffffffffffffffffffffffffffffff168273ffffffffffffffffffffffffffffffffffffffff1614156132d9576040517f08c379a00000000000000000000000000000000000000000000000000000000081526004018080602001828103825260248152602001806150606024913960400191505060405180910390fd5b6132e4838383613c4e565b6132ef600082613005565b61334081609760008673ffffffffffffffffffffffffffffffffffffffff1673ffffffffffffffffffffffffffffffffffffffff168152602001908152602001600020613cbc90919063ffffffff16565b5061339281609760008573ffffffffffffffffffffffffffffffffffffffff1673ffffffffffffffffffffffffffffffffffffffff168152602001908152602001600020613cd690919063ffffffff16565b506133a981836098613cf09092919063ffffffff16565b50808273ffffffffffffffffffffffffffffffffffffffff168473ffffffffffffffffffffffffffffffffffffffff167fddf252ad1be2c89b69c2b068fc378daa952ba7f163c4a11628f55a4df523b3ef60405160405180910390a4505050565b600061012e600083815260200190815260200160002060000160146101000a81548160ff021916908315150217905550600061012e600083815260200190815260200160002060010160006101000a81548173ffffffffffffffffffffffffffffffffffffffff021916908373ffffffffffffffffffffffffffffffffffffffff160217905550807f15231ceabda9f4f9436b8f17a28b36c21c8e434c821082aa1cfb3fcc994fe6c060405160405180910390a250565b60006134d08360000183613d25565b60001c905092915050565b6134e482612fe0565b613539576040517f08c379a000000000000000000000000000000000000000000000000000000000815260040180806020018281038252602c8152602001806151dd602c913960400191505060405180910390fd5b80609e60008481526020019081526020016000209080519060200190613560929190614f1d565b505050565b6000806000806135788660000186613da8565b915091508160001c8160001c9350935050509250929050565b60006135a4846000018460001b84613e41565b60001c90509392505050565b600161012e600084815260200190815260200160002060000160146101000a81548160ff0219169083151502179055508061012e600084815260200190815260200160002060010160006101000a81548173ffffffffffffffffffffffffffffffffffffffff021916908373ffffffffffffffffffffffffffffffffffffffff160217905550817f1cd4b94ffb7edbc330bd4702c2e4a76f39ef4b94a6e12dbfd77de973f8b55e0282604051808273ffffffffffffffffffffffffffffffffffffffff16815260200191505060405180910390a25050565b600061369682600001613f37565b9050919050565b60006136a830613f48565b15905090565b600060019054906101000a900460ff16806136cd57506136cc61369d565b5b806136e3575060008054906101000a900460ff16155b613738576040517f08c379a000000000000000000000000000000000000000000000000000000000815260040180806020018281038252602e815260200180615161602e913960400191505060405180910390fd5b60008060019054906101000a900460ff161590508015613788576001600060016101000a81548160ff02191690831515021790555060016000806101000a81548160ff0219169083151502179055505b613790613f5b565b613798614059565b80156137b95760008060016101000a81548160ff0219169083151502179055505b50565b600060019054906101000a900460ff16806137db57506137da61369d565b5b806137f1575060008054906101000a900460ff16155b613846576040517f08c379a000000000000000000000000000000000000000000000000000000000815260040180806020018281038252602e815260200180615161602e913960400191505060405180910390fd5b60008060019054906101000a900460ff161590508015613896576001600060016101000a81548160ff02191690831515021790555060016000806101000a81548160ff0219169083151502179055505b61389e613f5b565b6138a6614200565b6138b0838361430e565b80156138d15760008060016101000a81548160ff0219169083151502179055505b505050565b6138e0838561446c565b6040518060a001604052808373ffffffffffffffffffffffffffffffffffffffff168152602001600015158152602001600073ffffffffffffffffffffffffffffffffffffffff1681526020018273ffffffffffffffffffffffffffffffffffffffff168152602001600081525061012e600086815260200190815260200160002060008201518160000160006101000a81548173ffffffffffffffffffffffffffffffffffffffff021916908373ffffffffffffffffffffffffffffffffffffffff16021790555060208201518160000160146101000a81548160ff02191690831515021790555060408201518160010160006101000a81548173ffffffffffffffffffffffffffffffffffffffff021916908373ffffffffffffffffffffffffffffffffffffffff16021790555060608201518160020160006101000a81548173ffffffffffffffffffffffffffffffffffffffff021916908373ffffffffffffffffffffffffffffffffffffffff1602179055506080820151816003015590505050505050565b613a758484846131c7565b613a818484848461448a565b613ad6576040517f08c379a00000000000000000000000000000000000000000000000000000000081526004018080602001828103825260328152602001806150086032913960400191505060405180910390fd5b50505050565b60606000821415613b24576040518060400160405280600181526020017f30000000000000000000000000000000000000000000000000000000000000008152509050613c1e565b600082905060005b60008214613b4e578080600101915050600a8281613b4657fe5b049150613b2c565b60608167ffffffffffffffff81118015613b6757600080fd5b506040519080825280601f01601f191660200182016040528015613b9a5781602001600182028036833780820191505090505b50905060006001830390508593505b60008414613c1657600a8481613bbb57fe5b0660300160f81b82828060019003935081518110613bd557fe5b60200101907effffffffffffffffffffffffffffffffffffffffffffffffffffffffffffff1916908160001a905350600a8481613c0e57fe5b049350613ba9565b819450505050505b919050565b6000613c35836000018360001b6146a3565b905092915050565b600081600001805490509050919050565b613c598383836146c6565b613c61611a0f565b15613cb7576040517f08c379a000000000000000000000000000000000000000000000000000000000815260040180806020018281038252602b815260200180614fdd602b913960400191505060405180910390fd5b505050565b6000613cce836000018360001b6146cb565b905092915050565b6000613ce8836000018360001b6147b3565b905092915050565b6000613d1c846000018460001b8473ffffffffffffffffffffffffffffffffffffffff1660001b614823565b90509392505050565b600081836000018054905011613d86576040517f08c379a0000000000000000000000000000000000000000000000000000000008152600401808060200182810382526022815260200180614fbb6022913960400191505060405180910390fd5b826000018281548110613d9557fe5b9060005260206000200154905092915050565b60008082846000018054905011613e0a576040517f08c379a000000000000000000000000000000000000000000000000000000000815260040180806020018281038252602281526020018061518f6022913960400191505060405180910390fd5b6000846000018481548110613e1b57fe5b906000526020600020906002020190508060000154816001015492509250509250929050565b60008084600101600085815260200190815260200160002054905060008114158390613f08576040517f08c379a00000000000000000000000000000000000000000000000000000000081526004018080602001828103825283818151815260200191508051906020019080838360005b83811015613ecd578082015181840152602081019050613eb2565b50505050905090810190601f168015613efa5780820380516001836020036101000a031916815260200191505b509250505060405180910390fd5b50846000016001820381548110613f1b57fe5b9060005260206000209060020201600101549150509392505050565b600081600001805490509050919050565b600080823b905060008111915050919050565b600060019054906101000a900460ff1680613f7a5750613f7961369d565b5b80613f90575060008054906101000a900460ff16155b613fe5576040517f08c379a000000000000000000000000000000000000000000000000000000000815260040180806020018281038252602e815260200180615161602e913960400191505060405180910390fd5b60008060019054906101000a900460ff161590508015614035576001600060016101000a81548160ff02191690831515021790555060016000806101000a81548160ff0219169083151502179055505b80156140565760008060016101000a81548160ff0219169083151502179055505b50565b600060019054906101000a900460ff1680614078575061407761369d565b5b8061408e575060008054906101000a900460ff16155b6140e3576040517f08c379a000000000000000000000000000000000000000000000000000000000815260040180806020018281038252602e815260200180615161602e913960400191505060405180910390fd5b60008060019054906101000a900460ff161590508015614133576001600060016101000a81548160ff02191690831515021790555060016000806101000a81548160ff0219169083151502179055505b600061413d612ffd565b905080606560006101000a81548173ffffffffffffffffffffffffffffffffffffffff021916908373ffffffffffffffffffffffffffffffffffffffff1602179055508073ffffffffffffffffffffffffffffffffffffffff16600073ffffffffffffffffffffffffffffffffffffffff167f8be0079c531659141344cd1fd0a4f28419497f9722a3daafe3b4186f6b6457e060405160405180910390a35080156141fd5760008060016101000a81548160ff0219169083151502179055505b50565b600060019054906101000a900460ff168061421f575061421e61369d565b5b80614235575060008054906101000a900460ff16155b61428a576040517f08c379a000000000000000000000000000000000000000000000000000000000815260040180806020018281038252602e815260200180615161602e913960400191505060405180910390fd5b60008060019054906101000a900460ff1615905080156142da576001600060016101000a81548160ff02191690831515021790555060016000806101000a81548160ff0219169083151502179055505b6142ea6301ffc9a760e01b6148ff565b801561430b5760008060016101000a81548160ff0219169083151502179055505b50565b600060019054906101000a900460ff168061432d575061432c61369d565b5b80614343575060008054906101000a900460ff16155b614398576040517f08c379a000000000000000000000000000000000000000000000000000000000815260040180806020018281038252602e815260200180615161602e913960400191505060405180910390fd5b60008060019054906101000a900460ff1615905080156143e8576001600060016101000a81548160ff02191690831515021790555060016000806101000a81548160ff0219169083151502179055505b82609c90805190602001906143fe929190614f1d565b5081609d9080519060200190614415929190614f1d565b506144266380ac58cd60e01b6148ff565b614436635b5e139f60e01b6148ff565b61444663780e9d6360e01b6148ff565b80156144675760008060016101000a81548160ff0219169083151502179055505b505050565b614486828260405180602001604052806000815250614a08565b5050565b60006144ab8473ffffffffffffffffffffffffffffffffffffffff16613f48565b6144b8576001905061469b565b606061462263150b7a0260e01b6144cd612ffd565b888787604051602401808573ffffffffffffffffffffffffffffffffffffffff1681526020018473ffffffffffffffffffffffffffffffffffffffff16815260200183815260200180602001828103825283818151815260200191508051906020019080838360005b83811015614551578082015181840152602081019050614536565b50505050905090810190601f16801561457e5780820380516001836020036101000a031916815260200191505b5095505050505050604051602081830303815290604052907bffffffffffffffffffffffffffffffffffffffffffffffffffffffff19166020820180517bffffffffffffffffffffffffffffffffffffffffffffffffffffffff8381831617835250505050604051806060016040528060328152602001615008603291398773ffffffffffffffffffffffffffffffffffffffff16614a799092919063ffffffff16565b9050600081806020019051602081101561463b57600080fd5b8101908080519060200190929190505050905063150b7a0260e01b7bffffffffffffffffffffffffffffffffffffffffffffffffffffffff1916817bffffffffffffffffffffffffffffffffffffffffffffffffffffffff191614925050505b949350505050565b600080836001016000848152602001908152602001600020541415905092915050565b505050565b600080836001016000848152602001908152602001600020549050600081146147a7576000600182039050600060018660000180549050039050600086600001828154811061471657fe5b906000526020600020015490508087600001848154811061473357fe5b906000526020600020018190555060018301876001016000838152602001908152602001600020819055508660000180548061476b57fe5b600190038181906000526020600020016000905590558660010160008781526020019081526020016000206000905560019450505050506147ad565b60009150505b92915050565b60006147bf8383614a91565b61481857826000018290806001815401808255809150506001900390600052602060002001600090919091909150558260000180549050836001016000848152602001908152602001600020819055506001905061481d565b600090505b92915050565b60008084600101600085815260200190815260200160002054905060008114156148ca578460000160405180604001604052808681526020018581525090806001815401808255809150506001900390600052602060002090600202016000909190919091506000820151816000015560208201518160010155505084600001805490508560010160008681526020019081526020016000208190555060019150506148f8565b828560000160018303815481106148dd57fe5b90600052602060002090600202016001018190555060009150505b9392505050565b63ffffffff60e01b817bffffffffffffffffffffffffffffffffffffffffffffffffffffffff1916141561499b576040517f08c379a000000000000000000000000000000000000000000000000000000000815260040180806020018281038252601c8152602001807f4552433136353a20696e76616c696420696e746572666163652069640000000081525060200191505060405180910390fd5b600160336000837bffffffffffffffffffffffffffffffffffffffffffffffffffffffff19167bffffffffffffffffffffffffffffffffffffffffffffffffffffffff1916815260200190815260200160002060006101000a81548160ff02191690831515021790555050565b614a128383614ab4565b614a1f600084848461448a565b614a74576040517f08c379a00000000000000000000000000000000000000000000000000000000081526004018080602001828103825260328152602001806150086032913960400191505060405180910390fd5b505050565b6060614a888484600085614ca8565b90509392505050565b600080836001016000848152602001908152602001600020541415905092915050565b600073ffffffffffffffffffffffffffffffffffffffff168273ffffffffffffffffffffffffffffffffffffffff161415614b57576040517f08c379a00000000000000000000000000000000000000000000000000000000081526004018080602001828103825260208152602001807f4552433732313a206d696e7420746f20746865207a65726f206164647265737381525060200191505060405180910390fd5b614b6081612fe0565b15614bd3576040517f08c379a000000000000000000000000000000000000000000000000000000000815260040180806020018281038252601c8152602001807f4552433732313a20746f6b656e20616c7265616479206d696e7465640000000081525060200191505060405180910390fd5b614bdf60008383613c4e565b614c3081609760008573ffffffffffffffffffffffffffffffffffffffff1673ffffffffffffffffffffffffffffffffffffffff168152602001908152602001600020613cd690919063ffffffff16565b50614c4781836098613cf09092919063ffffffff16565b50808273ffffffffffffffffffffffffffffffffffffffff16600073ffffffffffffffffffffffffffffffffffffffff167fddf252ad1be2c89b69c2b068fc378daa952ba7f163c4a11628f55a4df523b3ef60405160405180910390a45050565b606082471015614d03576040517f08c379a00000000000000000000000000000000000000000000000000000000081526004018080602001828103825260268152602001806150846026913960400191505060405180910390fd5b614d0c85613f48565b614d7e576040517f08c379a000000000000000000000000000000000000000000000000000000000815260040180806020018281038252601d8152602001807f416464726573733a2063616c6c20746f206e6f6e2d636f6e747261637400000081525060200191505060405180910390fd5b600060608673ffffffffffffffffffffffffffffffffffffffff1685876040518082805190602001908083835b60208310614dce5780518252602082019150602081019050602083039250614dab565b6001836020036101000a03801982511681845116808217855250505050505090500191505060006040518083038185875af1925050503d8060008114614e30576040519150601f19603f3d011682016040523d82523d6000602084013e614e35565b606091505b5091509150614e45828286614e51565b92505050949350505050565b60608315614e6157829050614f16565b600083511115614e745782518084602001fd5b816040517f08c379a00000000000000000000000000000000000000000000000000000000081526004018080602001828103825283818151815260200191508051906020019080838360005b83811015614edb578082015181840152602081019050614ec0565b50505050905090810190601f168015614f085780820380516001836020036101000a031916815260200191505b509250505060405180910390fd5b9392505050565b828054600181600116156101000203166002900490600052602060002090601f016020900481019282601f10614f5e57805160ff1916838001178555614f8c565b82800160010185558215614f8c579182015b82811115614f8b578251825591602001919060010190614f70565b5b509050614f999190614f9d565b5090565b5b80821115614fb6576000816000905550600101614f9e565b509056fe456e756d657261626c655365743a20696e646578206f7574206f6620626f756e64734552433732315061757361626c653a20746f6b656e207472616e73666572207768696c65207061757365644552433732313a207472616e7366657220746f206e6f6e20455243373231526563656976657220696d706c656d656e7465724f776e61626c653a206e6577206f776e657220697320746865207a65726f20616464726573734552433732313a207472616e7366657220746f20746865207a65726f2061646472657373416464726573733a20696e73756666696369656e742062616c616e636520666f722063616c6c4552433732313a206f70657261746f7220717565727920666f72206e6f6e6578697374656e7420746f6b656e4552433732313a20617070726f76652063616c6c6572206973206e6f74206f776e6572206e6f7220617070726f76656420666f7220616c6c4552433732313a2062616c616e636520717565727920666f7220746865207a65726f20616464726573734552433732313a206f776e657220717565727920666f72206e6f6e6578697374656e7420746f6b656e496e697469616c697a61626c653a20636f6e747261637420697320616c726561647920696e697469616c697a6564456e756d657261626c654d61703a20696e646578206f7574206f6620626f756e64734552433732313a20617070726f76656420717565727920666f72206e6f6e6578697374656e7420746f6b656e4552433732314d657461646174613a2055524920736574206f66206e6f6e6578697374656e7420746f6b656e4552433732313a207472616e73666572206f6620746f6b656e2074686174206973206e6f74206f776e4552433732314d657461646174613a2055524920717565727920666f72206e6f6e6578697374656e7420746f6b656e4552433732313a20617070726f76616c20746f2063757272656e74206f776e65724552433732313a207472616e736665722063616c6c6572206973206e6f74206f776e6572206e6f7220617070726f766564a264697066735822122093f80750a5dde2e47d5c33fbbf8ded98947be071346a1f6ad4d8054c5708a41364736f6c63430007030033",
  "linkReferences": {},
  "deployedLinkReferences": {},
  "storageLayout": {
    "storage": [
      {
        "astId": 579,
        "contract": "contracts/Registrar.sol:Registrar",
        "label": "_initialized",
        "offset": 0,
        "slot": "0",
        "type": "t_bool"
      },
      {
        "astId": 582,
        "contract": "contracts/Registrar.sol:Registrar",
        "label": "_initializing",
        "offset": 1,
        "slot": "0",
        "type": "t_bool"
      },
      {
        "astId": 2209,
        "contract": "contracts/Registrar.sol:Registrar",
        "label": "__gap",
        "offset": 0,
        "slot": "1",
        "type": "t_array(t_uint256)50_storage"
      },
      {
        "astId": 147,
        "contract": "contracts/Registrar.sol:Registrar",
        "label": "_supportedInterfaces",
        "offset": 0,
        "slot": "51",
        "type": "t_mapping(t_bytes4,t_bool)"
      },
      {
        "astId": 204,
        "contract": "contracts/Registrar.sol:Registrar",
        "label": "__gap",
        "offset": 0,
        "slot": "52",
        "type": "t_array(t_uint256)49_storage"
      },
      {
        "astId": 10,
        "contract": "contracts/Registrar.sol:Registrar",
        "label": "_owner",
        "offset": 0,
        "slot": "101",
        "type": "t_address"
      },
      {
        "astId": 129,
        "contract": "contracts/Registrar.sol:Registrar",
        "label": "__gap",
        "offset": 0,
        "slot": "102",
        "type": "t_array(t_uint256)49_storage"
      },
      {
        "astId": 804,
        "contract": "contracts/Registrar.sol:Registrar",
        "label": "_holderTokens",
        "offset": 0,
        "slot": "151",
        "type": "t_mapping(t_address,t_struct(UintSet)3167_storage)"
      },
      {
        "astId": 806,
        "contract": "contracts/Registrar.sol:Registrar",
        "label": "_tokenOwners",
        "offset": 0,
        "slot": "152",
        "type": "t_struct(UintToAddressMap)2544_storage"
      },
      {
        "astId": 810,
        "contract": "contracts/Registrar.sol:Registrar",
        "label": "_tokenApprovals",
        "offset": 0,
        "slot": "154",
        "type": "t_mapping(t_uint256,t_address)"
      },
      {
        "astId": 816,
        "contract": "contracts/Registrar.sol:Registrar",
        "label": "_operatorApprovals",
        "offset": 0,
        "slot": "155",
        "type": "t_mapping(t_address,t_mapping(t_address,t_bool))"
      },
      {
        "astId": 818,
        "contract": "contracts/Registrar.sol:Registrar",
        "label": "_name",
        "offset": 0,
        "slot": "156",
        "type": "t_string_storage"
      },
      {
        "astId": 820,
        "contract": "contracts/Registrar.sol:Registrar",
        "label": "_symbol",
        "offset": 0,
        "slot": "157",
        "type": "t_string_storage"
      },
      {
        "astId": 824,
        "contract": "contracts/Registrar.sol:Registrar",
        "label": "_tokenURIs",
        "offset": 0,
        "slot": "158",
        "type": "t_mapping(t_uint256,t_string_storage)"
      },
      {
        "astId": 826,
        "contract": "contracts/Registrar.sol:Registrar",
        "label": "_baseURI",
        "offset": 0,
        "slot": "159",
        "type": "t_string_storage"
      },
      {
        "astId": 1728,
        "contract": "contracts/Registrar.sol:Registrar",
        "label": "__gap",
        "offset": 0,
        "slot": "160",
        "type": "t_array(t_uint256)41_storage"
      },
      {
        "astId": 3283,
        "contract": "contracts/Registrar.sol:Registrar",
        "label": "_paused",
        "offset": 0,
        "slot": "201",
        "type": "t_bool"
      },
      {
        "astId": 3374,
        "contract": "contracts/Registrar.sol:Registrar",
        "label": "__gap",
        "offset": 0,
        "slot": "202",
        "type": "t_array(t_uint256)49_storage"
      },
      {
        "astId": 754,
        "contract": "contracts/Registrar.sol:Registrar",
        "label": "__gap",
        "offset": 0,
        "slot": "251",
        "type": "t_array(t_uint256)50_storage"
      },
      {
        "astId": 3691,
        "contract": "contracts/Registrar.sol:Registrar",
        "label": "controllers",
        "offset": 0,
        "slot": "301",
        "type": "t_mapping(t_address,t_bool)"
      },
      {
        "astId": 3695,
        "contract": "contracts/Registrar.sol:Registrar",
        "label": "records",
        "offset": 0,
        "slot": "302",
        "type": "t_mapping(t_uint256,t_struct(DomainRecord)3687_storage)"
      }
    ],
    "types": {
      "t_address": {
        "encoding": "inplace",
        "label": "address",
        "numberOfBytes": "20"
      },
      "t_array(t_bytes32)dyn_storage": {
        "base": "t_bytes32",
        "encoding": "dynamic_array",
        "label": "bytes32[]",
        "numberOfBytes": "32"
      },
      "t_array(t_struct(MapEntry)2218_storage)dyn_storage": {
        "base": "t_struct(MapEntry)2218_storage",
        "encoding": "dynamic_array",
        "label": "struct EnumerableMapUpgradeable.MapEntry[]",
        "numberOfBytes": "32"
      },
      "t_array(t_uint256)41_storage": {
        "base": "t_uint256",
        "encoding": "inplace",
        "label": "uint256[41]",
        "numberOfBytes": "1312"
      },
      "t_array(t_uint256)49_storage": {
        "base": "t_uint256",
        "encoding": "inplace",
        "label": "uint256[49]",
        "numberOfBytes": "1568"
      },
      "t_array(t_uint256)50_storage": {
        "base": "t_uint256",
        "encoding": "inplace",
        "label": "uint256[50]",
        "numberOfBytes": "1600"
      },
      "t_bool": {
        "encoding": "inplace",
        "label": "bool",
        "numberOfBytes": "1"
      },
      "t_bytes32": {
        "encoding": "inplace",
        "label": "bytes32",
        "numberOfBytes": "32"
      },
      "t_bytes4": {
        "encoding": "inplace",
        "label": "bytes4",
        "numberOfBytes": "4"
      },
      "t_mapping(t_address,t_bool)": {
        "encoding": "mapping",
        "key": "t_address",
        "label": "mapping(address => bool)",
        "numberOfBytes": "32",
        "value": "t_bool"
      },
      "t_mapping(t_address,t_mapping(t_address,t_bool))": {
        "encoding": "mapping",
        "key": "t_address",
        "label": "mapping(address => mapping(address => bool))",
        "numberOfBytes": "32",
        "value": "t_mapping(t_address,t_bool)"
      },
      "t_mapping(t_address,t_struct(UintSet)3167_storage)": {
        "encoding": "mapping",
        "key": "t_address",
        "label": "mapping(address => struct EnumerableSetUpgradeable.UintSet)",
        "numberOfBytes": "32",
        "value": "t_struct(UintSet)3167_storage"
      },
      "t_mapping(t_bytes32,t_uint256)": {
        "encoding": "mapping",
        "key": "t_bytes32",
        "label": "mapping(bytes32 => uint256)",
        "numberOfBytes": "32",
        "value": "t_uint256"
      },
      "t_mapping(t_bytes4,t_bool)": {
        "encoding": "mapping",
        "key": "t_bytes4",
        "label": "mapping(bytes4 => bool)",
        "numberOfBytes": "32",
        "value": "t_bool"
      },
      "t_mapping(t_uint256,t_address)": {
        "encoding": "mapping",
        "key": "t_uint256",
        "label": "mapping(uint256 => address)",
        "numberOfBytes": "32",
        "value": "t_address"
      },
      "t_mapping(t_uint256,t_string_storage)": {
        "encoding": "mapping",
        "key": "t_uint256",
        "label": "mapping(uint256 => string)",
        "numberOfBytes": "32",
        "value": "t_string_storage"
      },
      "t_mapping(t_uint256,t_struct(DomainRecord)3687_storage)": {
        "encoding": "mapping",
        "key": "t_uint256",
        "label": "mapping(uint256 => struct Registrar.DomainRecord)",
        "numberOfBytes": "32",
        "value": "t_struct(DomainRecord)3687_storage"
      },
      "t_string_storage": {
        "encoding": "bytes",
        "label": "string",
        "numberOfBytes": "32"
      },
      "t_struct(DomainRecord)3687_storage": {
        "encoding": "inplace",
        "label": "struct Registrar.DomainRecord",
        "members": [
          {
            "astId": 3678,
            "contract": "contracts/Registrar.sol:Registrar",
            "label": "creator",
            "offset": 0,
            "slot": "0",
            "type": "t_address"
          },
          {
            "astId": 3680,
            "contract": "contracts/Registrar.sol:Registrar",
            "label": "metadataLocked",
            "offset": 20,
            "slot": "0",
            "type": "t_bool"
          },
          {
            "astId": 3682,
            "contract": "contracts/Registrar.sol:Registrar",
            "label": "metadataLockedBy",
            "offset": 0,
            "slot": "1",
            "type": "t_address"
          },
          {
            "astId": 3684,
            "contract": "contracts/Registrar.sol:Registrar",
            "label": "controller",
            "offset": 0,
            "slot": "2",
            "type": "t_address"
          },
          {
            "astId": 3686,
            "contract": "contracts/Registrar.sol:Registrar",
            "label": "royaltyAmount",
            "offset": 0,
            "slot": "3",
            "type": "t_uint256"
          }
        ],
        "numberOfBytes": "128"
      },
      "t_struct(Map)2226_storage": {
        "encoding": "inplace",
        "label": "struct EnumerableMapUpgradeable.Map",
        "members": [
          {
            "astId": 2221,
            "contract": "contracts/Registrar.sol:Registrar",
            "label": "_entries",
            "offset": 0,
            "slot": "0",
            "type": "t_array(t_struct(MapEntry)2218_storage)dyn_storage"
          },
          {
            "astId": 2225,
            "contract": "contracts/Registrar.sol:Registrar",
            "label": "_indexes",
            "offset": 0,
            "slot": "1",
            "type": "t_mapping(t_bytes32,t_uint256)"
          }
        ],
        "numberOfBytes": "64"
      },
      "t_struct(MapEntry)2218_storage": {
        "encoding": "inplace",
        "label": "struct EnumerableMapUpgradeable.MapEntry",
        "members": [
          {
            "astId": 2215,
            "contract": "contracts/Registrar.sol:Registrar",
            "label": "_key",
            "offset": 0,
            "slot": "0",
            "type": "t_bytes32"
          },
          {
            "astId": 2217,
            "contract": "contracts/Registrar.sol:Registrar",
            "label": "_value",
            "offset": 0,
            "slot": "1",
            "type": "t_bytes32"
          }
        ],
        "numberOfBytes": "64"
      },
      "t_struct(Set)2781_storage": {
        "encoding": "inplace",
        "label": "struct EnumerableSetUpgradeable.Set",
        "members": [
          {
            "astId": 2776,
            "contract": "contracts/Registrar.sol:Registrar",
            "label": "_values",
            "offset": 0,
            "slot": "0",
            "type": "t_array(t_bytes32)dyn_storage"
          },
          {
            "astId": 2780,
            "contract": "contracts/Registrar.sol:Registrar",
            "label": "_indexes",
            "offset": 0,
            "slot": "1",
            "type": "t_mapping(t_bytes32,t_uint256)"
          }
        ],
        "numberOfBytes": "64"
      },
      "t_struct(UintSet)3167_storage": {
        "encoding": "inplace",
        "label": "struct EnumerableSetUpgradeable.UintSet",
        "members": [
          {
            "astId": 3166,
            "contract": "contracts/Registrar.sol:Registrar",
            "label": "_inner",
            "offset": 0,
            "slot": "0",
            "type": "t_struct(Set)2781_storage"
          }
        ],
        "numberOfBytes": "64"
      },
      "t_struct(UintToAddressMap)2544_storage": {
        "encoding": "inplace",
        "label": "struct EnumerableMapUpgradeable.UintToAddressMap",
        "members": [
          {
            "astId": 2543,
            "contract": "contracts/Registrar.sol:Registrar",
            "label": "_inner",
            "offset": 0,
            "slot": "0",
            "type": "t_struct(Map)2226_storage"
          }
        ],
        "numberOfBytes": "64"
      },
      "t_uint256": {
        "encoding": "inplace",
        "label": "uint256",
        "numberOfBytes": "32"
      }
    }
  }
}