{
  "_format": "hh-sol-artifact-1",
  "contractName": "Registrar",
  "sourceName": "contracts/Registrar.sol",
  "abi": [
    {
      "anonymous": false,
      "inputs": [
        {
          "indexed": true,
          "internalType": "address",
          "name": "owner",
          "type": "address"
        },
        {
          "indexed": true,
          "internalType": "address",
          "name": "approved",
          "type": "address"
        },
        {
          "indexed": true,
          "internalType": "uint256",
          "name": "tokenId",
          "type": "uint256"
        }
      ],
      "name": "Approval",
      "type": "event"
    },
    {
      "anonymous": false,
      "inputs": [
        {
          "indexed": true,
          "internalType": "address",
          "name": "owner",
          "type": "address"
        },
        {
          "indexed": true,
          "internalType": "address",
          "name": "operator",
          "type": "address"
        },
        {
          "indexed": false,
          "internalType": "bool",
          "name": "approved",
          "type": "bool"
        }
      ],
      "name": "ApprovalForAll",
      "type": "event"
    },
    {
      "anonymous": false,
      "inputs": [
        {
          "indexed": true,
          "internalType": "address",
          "name": "controller",
          "type": "address"
        }
      ],
      "name": "ControllerAdded",
      "type": "event"
    },
    {
      "anonymous": false,
      "inputs": [
        {
          "indexed": true,
          "internalType": "address",
          "name": "controller",
          "type": "address"
        }
      ],
      "name": "ControllerRemoved",
      "type": "event"
    },
    {
      "anonymous": false,
      "inputs": [
        {
          "indexed": true,
          "internalType": "uint256",
          "name": "id",
          "type": "uint256"
        },
        {
          "indexed": false,
          "internalType": "string",
          "name": "name",
          "type": "string"
        },
        {
          "indexed": true,
          "internalType": "uint256",
          "name": "nameHash",
          "type": "uint256"
        },
        {
          "indexed": true,
          "internalType": "uint256",
          "name": "parent",
          "type": "uint256"
        },
        {
          "indexed": false,
          "internalType": "address",
          "name": "creator",
          "type": "address"
        },
        {
          "indexed": false,
          "internalType": "address",
          "name": "controller",
          "type": "address"
        }
      ],
      "name": "DomainCreated",
      "type": "event"
    },
    {
      "anonymous": false,
      "inputs": [
        {
          "indexed": true,
          "internalType": "uint256",
          "name": "id",
          "type": "uint256"
        },
        {
          "indexed": false,
          "internalType": "string",
          "name": "uri",
          "type": "string"
        }
      ],
      "name": "MetadataChanged",
      "type": "event"
    },
    {
      "anonymous": false,
      "inputs": [
        {
          "indexed": true,
          "internalType": "uint256",
          "name": "id",
          "type": "uint256"
        },
        {
          "indexed": false,
          "internalType": "address",
          "name": "locker",
          "type": "address"
        }
      ],
      "name": "MetadataLocked",
      "type": "event"
    },
    {
      "anonymous": false,
      "inputs": [
        {
          "indexed": true,
          "internalType": "uint256",
          "name": "id",
          "type": "uint256"
        }
      ],
      "name": "MetadataUnlocked",
      "type": "event"
    },
    {
      "anonymous": false,
      "inputs": [
        {
          "indexed": true,
          "internalType": "address",
          "name": "previousOwner",
          "type": "address"
        },
        {
          "indexed": true,
          "internalType": "address",
          "name": "newOwner",
          "type": "address"
        }
      ],
      "name": "OwnershipTransferred",
      "type": "event"
    },
    {
      "anonymous": false,
      "inputs": [
        {
          "indexed": false,
          "internalType": "address",
          "name": "account",
          "type": "address"
        }
      ],
      "name": "Paused",
      "type": "event"
    },
    {
      "anonymous": false,
      "inputs": [
        {
          "indexed": true,
          "internalType": "uint256",
          "name": "id",
          "type": "uint256"
        },
        {
          "indexed": false,
          "internalType": "uint256",
          "name": "amount",
          "type": "uint256"
        }
      ],
      "name": "RoyaltiesAmountChanged",
      "type": "event"
    },
    {
      "anonymous": false,
      "inputs": [
        {
          "indexed": true,
          "internalType": "address",
          "name": "from",
          "type": "address"
        },
        {
          "indexed": true,
          "internalType": "address",
          "name": "to",
          "type": "address"
        },
        {
          "indexed": true,
          "internalType": "uint256",
          "name": "tokenId",
          "type": "uint256"
        }
      ],
      "name": "Transfer",
      "type": "event"
    },
    {
      "anonymous": false,
      "inputs": [
        {
          "indexed": false,
          "internalType": "address",
          "name": "account",
          "type": "address"
        }
      ],
      "name": "Unpaused",
      "type": "event"
    },
    {
      "inputs": [
        {
          "internalType": "address",
          "name": "controller",
          "type": "address"
        }
      ],
      "name": "addController",
      "outputs": [],
      "stateMutability": "nonpayable",
      "type": "function"
    },
    {
      "inputs": [
        {
          "internalType": "address",
          "name": "to",
          "type": "address"
        },
        {
          "internalType": "uint256",
          "name": "tokenId",
          "type": "uint256"
        }
      ],
      "name": "approve",
      "outputs": [],
      "stateMutability": "nonpayable",
      "type": "function"
    },
    {
      "inputs": [
        {
          "internalType": "address",
          "name": "owner",
          "type": "address"
        }
      ],
      "name": "balanceOf",
      "outputs": [
        {
          "internalType": "uint256",
          "name": "",
          "type": "uint256"
        }
      ],
      "stateMutability": "view",
      "type": "function"
    },
    {
      "inputs": [],
      "name": "baseURI",
      "outputs": [
        {
          "internalType": "string",
          "name": "",
          "type": "string"
        }
      ],
      "stateMutability": "view",
      "type": "function"
    },
    {
      "inputs": [
        {
          "internalType": "address",
          "name": "",
          "type": "address"
        }
      ],
      "name": "controllers",
      "outputs": [
        {
          "internalType": "bool",
          "name": "",
          "type": "bool"
        }
      ],
      "stateMutability": "view",
      "type": "function"
    },
    {
      "inputs": [
        {
          "internalType": "uint256",
          "name": "id",
          "type": "uint256"
        }
      ],
      "name": "creatorOf",
      "outputs": [
        {
          "internalType": "address",
          "name": "",
          "type": "address"
        }
      ],
      "stateMutability": "view",
      "type": "function"
    },
    {
      "inputs": [
        {
          "internalType": "uint256",
          "name": "id",
          "type": "uint256"
        }
      ],
      "name": "domainController",
      "outputs": [
        {
          "internalType": "address",
          "name": "",
          "type": "address"
        }
      ],
      "stateMutability": "view",
      "type": "function"
    },
    {
      "inputs": [
        {
          "internalType": "uint256",
          "name": "id",
          "type": "uint256"
        }
      ],
      "name": "domainExists",
      "outputs": [
        {
          "internalType": "bool",
          "name": "",
          "type": "bool"
        }
      ],
      "stateMutability": "view",
      "type": "function"
    },
    {
      "inputs": [
        {
          "internalType": "uint256",
          "name": "id",
          "type": "uint256"
        }
      ],
      "name": "domainMetadataLockedBy",
      "outputs": [
        {
          "internalType": "address",
          "name": "",
          "type": "address"
        }
      ],
      "stateMutability": "view",
      "type": "function"
    },
    {
      "inputs": [
        {
          "internalType": "uint256",
          "name": "id",
          "type": "uint256"
        }
      ],
      "name": "domainRoyaltyAmount",
      "outputs": [
        {
          "internalType": "uint256",
          "name": "",
          "type": "uint256"
        }
      ],
      "stateMutability": "view",
      "type": "function"
    },
    {
      "inputs": [
        {
          "internalType": "uint256",
          "name": "tokenId",
          "type": "uint256"
        }
      ],
      "name": "getApproved",
      "outputs": [
        {
          "internalType": "address",
          "name": "",
          "type": "address"
        }
      ],
      "stateMutability": "view",
      "type": "function"
    },
    {
      "inputs": [],
      "name": "initialize",
      "outputs": [],
      "stateMutability": "nonpayable",
      "type": "function"
    },
    {
      "inputs": [
        {
          "internalType": "address",
          "name": "owner",
          "type": "address"
        },
        {
          "internalType": "address",
          "name": "operator",
          "type": "address"
        }
      ],
      "name": "isApprovedForAll",
      "outputs": [
        {
          "internalType": "bool",
          "name": "",
          "type": "bool"
        }
      ],
      "stateMutability": "view",
      "type": "function"
    },
    {
      "inputs": [
        {
          "internalType": "uint256",
          "name": "id",
          "type": "uint256"
        }
      ],
      "name": "isAvailable",
      "outputs": [
        {
          "internalType": "bool",
          "name": "",
          "type": "bool"
        }
      ],
      "stateMutability": "view",
      "type": "function"
    },
    {
      "inputs": [
        {
          "internalType": "uint256",
          "name": "id",
          "type": "uint256"
        }
      ],
      "name": "isDomainMetadataLocked",
      "outputs": [
        {
          "internalType": "bool",
          "name": "",
          "type": "bool"
        }
      ],
      "stateMutability": "view",
      "type": "function"
    },
    {
      "inputs": [
        {
          "internalType": "uint256",
          "name": "id",
          "type": "uint256"
        }
      ],
      "name": "lockDomainMetadata",
      "outputs": [],
      "stateMutability": "nonpayable",
      "type": "function"
    },
    {
      "inputs": [],
      "name": "name",
      "outputs": [
        {
          "internalType": "string",
          "name": "",
          "type": "string"
        }
      ],
      "stateMutability": "view",
      "type": "function"
    },
    {
      "inputs": [],
      "name": "owner",
      "outputs": [
        {
          "internalType": "address",
          "name": "",
          "type": "address"
        }
      ],
      "stateMutability": "view",
      "type": "function"
    },
    {
      "inputs": [
        {
          "internalType": "uint256",
          "name": "tokenId",
          "type": "uint256"
        }
      ],
      "name": "ownerOf",
      "outputs": [
        {
          "internalType": "address",
          "name": "",
          "type": "address"
        }
      ],
      "stateMutability": "view",
      "type": "function"
    },
    {
      "inputs": [],
      "name": "paused",
      "outputs": [
        {
          "internalType": "bool",
          "name": "",
          "type": "bool"
        }
      ],
      "stateMutability": "view",
      "type": "function"
    },
    {
      "inputs": [
        {
          "internalType": "uint256",
          "name": "",
          "type": "uint256"
        }
      ],
      "name": "records",
      "outputs": [
        {
          "internalType": "address",
          "name": "creator",
          "type": "address"
        },
        {
          "internalType": "bool",
          "name": "metadataLocked",
          "type": "bool"
        },
        {
          "internalType": "address",
          "name": "metadataLockedBy",
          "type": "address"
        },
        {
          "internalType": "address",
          "name": "controller",
          "type": "address"
        },
        {
          "internalType": "uint256",
          "name": "royaltyAmount",
          "type": "uint256"
        }
      ],
      "stateMutability": "view",
      "type": "function"
    },
    {
      "inputs": [
        {
          "internalType": "uint256",
          "name": "parentId",
          "type": "uint256"
        },
        {
          "internalType": "string",
          "name": "name",
          "type": "string"
        },
        {
          "internalType": "address",
          "name": "domainOwner",
          "type": "address"
        },
        {
          "internalType": "address",
          "name": "creator",
          "type": "address"
        }
      ],
      "name": "registerDomain",
      "outputs": [
        {
          "internalType": "uint256",
          "name": "",
          "type": "uint256"
        }
      ],
      "stateMutability": "nonpayable",
      "type": "function"
    },
    {
      "inputs": [
        {
          "internalType": "address",
          "name": "controller",
          "type": "address"
        }
      ],
      "name": "removeController",
      "outputs": [],
      "stateMutability": "nonpayable",
      "type": "function"
    },
    {
      "inputs": [],
      "name": "renounceOwnership",
      "outputs": [],
      "stateMutability": "nonpayable",
      "type": "function"
    },
    {
      "inputs": [
        {
          "internalType": "address",
          "name": "from",
          "type": "address"
        },
        {
          "internalType": "address",
          "name": "to",
          "type": "address"
        },
        {
          "internalType": "uint256",
          "name": "tokenId",
          "type": "uint256"
        }
      ],
      "name": "safeTransferFrom",
      "outputs": [],
      "stateMutability": "nonpayable",
      "type": "function"
    },
    {
      "inputs": [
        {
          "internalType": "address",
          "name": "from",
          "type": "address"
        },
        {
          "internalType": "address",
          "name": "to",
          "type": "address"
        },
        {
          "internalType": "uint256",
          "name": "tokenId",
          "type": "uint256"
        },
        {
          "internalType": "bytes",
          "name": "_data",
          "type": "bytes"
        }
      ],
      "name": "safeTransferFrom",
      "outputs": [],
      "stateMutability": "nonpayable",
      "type": "function"
    },
    {
      "inputs": [
        {
          "internalType": "address",
          "name": "operator",
          "type": "address"
        },
        {
          "internalType": "bool",
          "name": "approved",
          "type": "bool"
        }
      ],
      "name": "setApprovalForAll",
      "outputs": [],
      "stateMutability": "nonpayable",
      "type": "function"
    },
    {
      "inputs": [
        {
          "internalType": "uint256",
          "name": "id",
          "type": "uint256"
        },
        {
          "internalType": "string",
          "name": "uri",
          "type": "string"
        }
      ],
      "name": "setDomainMetadataUri",
      "outputs": [],
      "stateMutability": "nonpayable",
      "type": "function"
    },
    {
      "inputs": [
        {
          "internalType": "uint256",
          "name": "id",
          "type": "uint256"
        },
        {
          "internalType": "uint256",
          "name": "amount",
          "type": "uint256"
        }
      ],
      "name": "setDomainRoyaltyAmount",
      "outputs": [],
      "stateMutability": "nonpayable",
      "type": "function"
    },
    {
      "inputs": [
        {
          "internalType": "bytes4",
          "name": "interfaceId",
          "type": "bytes4"
        }
      ],
      "name": "supportsInterface",
      "outputs": [
        {
          "internalType": "bool",
          "name": "",
          "type": "bool"
        }
      ],
      "stateMutability": "view",
      "type": "function"
    },
    {
      "inputs": [],
      "name": "symbol",
      "outputs": [
        {
          "internalType": "string",
          "name": "",
          "type": "string"
        }
      ],
      "stateMutability": "view",
      "type": "function"
    },
    {
      "inputs": [
        {
          "internalType": "uint256",
          "name": "index",
          "type": "uint256"
        }
      ],
      "name": "tokenByIndex",
      "outputs": [
        {
          "internalType": "uint256",
          "name": "",
          "type": "uint256"
        }
      ],
      "stateMutability": "view",
      "type": "function"
    },
    {
      "inputs": [
        {
          "internalType": "address",
          "name": "owner",
          "type": "address"
        },
        {
          "internalType": "uint256",
          "name": "index",
          "type": "uint256"
        }
      ],
      "name": "tokenOfOwnerByIndex",
      "outputs": [
        {
          "internalType": "uint256",
          "name": "",
          "type": "uint256"
        }
      ],
      "stateMutability": "view",
      "type": "function"
    },
    {
      "inputs": [
        {
          "internalType": "uint256",
          "name": "tokenId",
          "type": "uint256"
        }
      ],
      "name": "tokenURI",
      "outputs": [
        {
          "internalType": "string",
          "name": "",
          "type": "string"
        }
      ],
      "stateMutability": "view",
      "type": "function"
    },
    {
      "inputs": [],
      "name": "totalSupply",
      "outputs": [
        {
          "internalType": "uint256",
          "name": "",
          "type": "uint256"
        }
      ],
      "stateMutability": "view",
      "type": "function"
    },
    {
      "inputs": [
        {
          "internalType": "address",
          "name": "from",
          "type": "address"
        },
        {
          "internalType": "address",
          "name": "to",
          "type": "address"
        },
        {
          "internalType": "uint256",
          "name": "tokenId",
          "type": "uint256"
        }
      ],
      "name": "transferFrom",
      "outputs": [],
      "stateMutability": "nonpayable",
      "type": "function"
    },
    {
      "inputs": [
        {
          "internalType": "address",
          "name": "newOwner",
          "type": "address"
        }
      ],
      "name": "transferOwnership",
      "outputs": [],
      "stateMutability": "nonpayable",
      "type": "function"
    },
    {
      "inputs": [
        {
          "internalType": "uint256",
          "name": "id",
          "type": "uint256"
        }
      ],
      "name": "unlockDomainMetadata",
      "outputs": [],
      "stateMutability": "nonpayable",
      "type": "function"
    }
  ],
  "bytecode": "0x608060405234801561001057600080fd5b50615192806100206000396000f3fe608060405234801561001057600080fd5b50600436106102325760003560e01c806370a0823111610130578063a22cb465116100b8578063d4891ebb1161007c578063d4891ebb14610dd0578063da8c229e14610ee9578063e985e9c514610f43578063f2fde38b14610fbd578063f6a74ed71461100157610232565b8063a22cb46514610b4c578063a7fc7a0714610b9c578063b88d4fde14610be0578063be21eccd14610ce5578063c87b56dd14610d2957610232565b80638129fc1c116100ff5780638129fc1c14610a1957806386c803b114610a235780638da5cb5b14610a515780638de2dec914610a8557806395d89b4114610ac957610232565b806370a082311461091d578063715018a6146109755780637ad3e55b1461097f5780637efcc90d146109c157610232565b806334461067116101be578063589a174311610182578063589a1743146107725780635c975abb146107ca578063620e42ea146107ea5780636352211e146108425780636c0360eb1461089a57610232565b806334461067146105175780633a178d99146105b957806341d01e7c146105fd57806342842e0e146106c25780634f6ccce71461073057610232565b806318160ddd1161020557806318160ddd146103c357806323b872dd146103e15780632566193f1461044f57806329ae4dc8146104875780632f745c59146104b557610232565b806301ffc9a71461023757806306fdde031461029a578063081812fc1461031d578063095ea7b314610375575b600080fd5b6102826004803603602081101561024d57600080fd5b8101908080357bffffffffffffffffffffffffffffffffffffffffffffffffffffffff19169060200190929190505050611045565b60405180821515815260200191505060405180910390f35b6102a26110ad565b6040518080602001828103825283818151815260200191508051906020019080838360005b838110156102e25780820151818401526020810190506102c7565b50505050905090810190601f16801561030f5780820380516001836020036101000a031916815260200191505b509250505060405180910390f35b6103496004803603602081101561033357600080fd5b810190808035906020019092919050505061114f565b604051808273ffffffffffffffffffffffffffffffffffffffff16815260200191505060405180910390f35b6103c16004803603604081101561038b57600080fd5b81019080803573ffffffffffffffffffffffffffffffffffffffff169060200190929190803590602001909291905050506111ea565b005b6103cb61132e565b6040518082815260200191505060405180910390f35b61044d600480360360608110156103f757600080fd5b81019080803573ffffffffffffffffffffffffffffffffffffffff169060200190929190803573ffffffffffffffffffffffffffffffffffffffff1690602001909291908035906020019092919050505061133f565b005b6104856004803603604081101561046557600080fd5b8101908080359060200190929190803590602001909291905050506113b5565b005b6104b36004803603602081101561049d57600080fd5b810190808035906020019092919050505061156e565b005b610501600480360360408110156104cb57600080fd5b81019080803573ffffffffffffffffffffffffffffffffffffffff1690602001909291908035906020019092919050505061169e565b6040518082815260200191505060405180910390f35b6105436004803603602081101561052d57600080fd5b81019080803590602001909291905050506116f9565b604051808673ffffffffffffffffffffffffffffffffffffffff16815260200185151581526020018473ffffffffffffffffffffffffffffffffffffffff1681526020018373ffffffffffffffffffffffffffffffffffffffff1681526020018281526020019550505050505060405180910390f35b6105e5600480360360208110156105cf57600080fd5b810190808035906020019092919050505061179d565b60405180821515815260200191505060405180910390f35b6106c06004803603604081101561061357600080fd5b81019080803590602001909291908035906020019064010000000081111561063a57600080fd5b82018360208201111561064c57600080fd5b8035906020019184600183028401116401000000008311171561066e57600080fd5b91908080601f016020809104026020016040519081016040528093929190818152602001838380828437600081840152601f19601f8201169050808301925050505050505091929192905050506117b5565b005b61072e600480360360608110156106d857600080fd5b81019080803573ffffffffffffffffffffffffffffffffffffffff169060200190929190803573ffffffffffffffffffffffffffffffffffffffff16906020019092919080359060200190929190505050611987565b005b61075c6004803603602081101561074657600080fd5b81019080803590602001909291905050506119a7565b6040518082815260200191505060405180910390f35b61079e6004803603602081101561078857600080fd5b81019080803590602001909291905050506119ca565b604051808273ffffffffffffffffffffffffffffffffffffffff16815260200191505060405180910390f35b6107d2611a10565b60405180821515815260200191505060405180910390f35b6108166004803603602081101561080057600080fd5b8101908080359060200190929190505050611a27565b604051808273ffffffffffffffffffffffffffffffffffffffff16815260200191505060405180910390f35b61086e6004803603602081101561085857600080fd5b8101908080359060200190929190505050611a6d565b604051808273ffffffffffffffffffffffffffffffffffffffff16815260200191505060405180910390f35b6108a2611aa4565b6040518080602001828103825283818151815260200191508051906020019080838360005b838110156108e25780820151818401526020810190506108c7565b50505050905090810190601f16801561090f5780820380516001836020036101000a031916815260200191505b509250505060405180910390f35b61095f6004803603602081101561093357600080fd5b81019080803573ffffffffffffffffffffffffffffffffffffffff169060200190929190505050611b46565b6040518082815260200191505060405180910390f35b61097d611c1b565b005b6109ab6004803603602081101561099557600080fd5b8101908080359060200190929190505050611d8b565b6040518082815260200191505060405180910390f35b6109ed600480360360208110156109d757600080fd5b8101908080359060200190929190505050611db1565b604051808273ffffffffffffffffffffffffffffffffffffffff16815260200191505060405180910390f35b610a21611df7565b005b610a4f60048036036020811015610a3957600080fd5b8101908080359060200190929190505050611f7f565b005b610a596120b3565b604051808273ffffffffffffffffffffffffffffffffffffffff16815260200191505060405180910390f35b610ab160048036036020811015610a9b57600080fd5b81019080803590602001909291905050506120dd565b60405180821515815260200191505060405180910390f35b610ad16120f4565b6040518080602001828103825283818151815260200191508051906020019080838360005b83811015610b11578082015181840152602081019050610af6565b50505050905090810190601f168015610b3e5780820380516001836020036101000a031916815260200191505b509250505060405180910390f35b610b9a60048036036040811015610b6257600080fd5b81019080803573ffffffffffffffffffffffffffffffffffffffff169060200190929190803515159060200190929190505050612196565b005b610bde60048036036020811015610bb257600080fd5b81019080803573ffffffffffffffffffffffffffffffffffffffff16906020019092919050505061234c565b005b610ce360048036036080811015610bf657600080fd5b81019080803573ffffffffffffffffffffffffffffffffffffffff169060200190929190803573ffffffffffffffffffffffffffffffffffffffff1690602001909291908035906020019092919080359060200190640100000000811115610c5d57600080fd5b820183602082011115610c6f57600080fd5b80359060200191846001830284011164010000000083111715610c9157600080fd5b91908080601f016020809104026020016040519081016040528093929190818152602001838380828437600081840152601f19601f82011690508083019250505050505050919291929050505061249a565b005b610d1160048036036020811015610cfb57600080fd5b8101908080359060200190929190505050612512565b60405180821515815260200191505060405180910390f35b610d5560048036036020811015610d3f57600080fd5b8101908080359060200190929190505050612545565b6040518080602001828103825283818151815260200191508051906020019080838360005b83811015610d95578082015181840152602081019050610d7a565b50505050905090810190601f168015610dc25780820380516001836020036101000a031916815260200191505b509250505060405180910390f35b610ed360048036036080811015610de657600080fd5b810190808035906020019092919080359060200190640100000000811115610e0d57600080fd5b820183602082011115610e1f57600080fd5b80359060200191846001830284011164010000000083111715610e4157600080fd5b91908080601f016020809104026020016040519081016040528093929190818152602001838380828437600081840152601f19601f820116905080830192505050505050509192919290803573ffffffffffffffffffffffffffffffffffffffff169060200190929190803573ffffffffffffffffffffffffffffffffffffffff169060200190929190505050612816565b6040518082815260200191505060405180910390f35b610f2b60048036036020811015610eff57600080fd5b81019080803573ffffffffffffffffffffffffffffffffffffffff169060200190929190505050612a92565b60405180821515815260200191505060405180910390f35b610fa560048036036040811015610f5957600080fd5b81019080803573ffffffffffffffffffffffffffffffffffffffff169060200190929190803573ffffffffffffffffffffffffffffffffffffffff169060200190929190505050612ab3565b60405180821515815260200191505060405180910390f35b610fff60048036036020811015610fd357600080fd5b81019080803573ffffffffffffffffffffffffffffffffffffffff169060200190929190505050612b47565b005b6110436004803603602081101561101757600080fd5b81019080803573ffffffffffffffffffffffffffffffffffffffff169060200190929190505050612d3c565b005b600060336000837bffffffffffffffffffffffffffffffffffffffffffffffffffffffff19167bffffffffffffffffffffffffffffffffffffffffffffffffffffffff1916815260200190815260200160002060009054906101000a900460ff169050919050565b6060609c8054600181600116156101000203166002900480601f0160208091040260200160405190810160405280929190818152602001828054600181600116156101000203166002900480156111455780601f1061111a57610100808354040283529160200191611145565b820191906000526020600020905b81548152906001019060200180831161112857829003601f168201915b5050505050905090565b600061115a82612e8a565b6111af576040517f08c379a000000000000000000000000000000000000000000000000000000000815260040180806020018281038252602c81526020018061505b602c913960400191505060405180910390fd5b609a600083815260200190815260200160002060009054906101000a900473ffffffffffffffffffffffffffffffffffffffff169050919050565b60006111f582611a6d565b90508073ffffffffffffffffffffffffffffffffffffffff168373ffffffffffffffffffffffffffffffffffffffff16141561127c576040517f08c379a000000000000000000000000000000000000000000000000000000000815260040180806020018281038252602181526020018061510b6021913960400191505060405180910390fd5b8073ffffffffffffffffffffffffffffffffffffffff1661129b612ea7565b73ffffffffffffffffffffffffffffffffffffffff1614806112ca57506112c9816112c4612ea7565b612ab3565b5b61131f576040517f08c379a0000000000000000000000000000000000000000000000000000000008152600401808060200182810382526038815260200180614f806038913960400191505060405180910390fd5b6113298383612eaf565b505050565b600061133a6098612f68565b905090565b61135061134a612ea7565b82612f7d565b6113a5576040517f08c379a000000000000000000000000000000000000000000000000000000000815260040180806020018281038252603181526020018061512c6031913960400191505060405180910390fd5b6113b0838383613071565b505050565b3373ffffffffffffffffffffffffffffffffffffffff166113d583611a6d565b73ffffffffffffffffffffffffffffffffffffffff161461145e576040517f08c379a00000000000000000000000000000000000000000000000000000000081526004018080602001828103825260098152602001807f4e6f74204f776e6572000000000000000000000000000000000000000000000081525060200191505060405180910390fd5b61146782612512565b15611516573373ffffffffffffffffffffffffffffffffffffffff1661148c83611a27565b73ffffffffffffffffffffffffffffffffffffffff1614611515576040517f08c379a000000000000000000000000000000000000000000000000000000000815260040180806020018281038252600a8152602001807f4e6f74206c6f636b65720000000000000000000000000000000000000000000081525060200191505060405180910390fd5b5b8061012e600084815260200190815260200160002060030181905550817fc5d3655658e1a082c77cb3090bd47fa5ab24b4b24fe0613109f4b6ced9681c81826040518082815260200191505060405180910390a25050565b61157781612512565b6115e9576040517f08c379a000000000000000000000000000000000000000000000000000000000815260040180806020018281038252600a8152602001807f4e6f74206c6f636b65640000000000000000000000000000000000000000000081525060200191505060405180910390fd5b3373ffffffffffffffffffffffffffffffffffffffff1661160982611a27565b73ffffffffffffffffffffffffffffffffffffffff1614611692576040517f08c379a000000000000000000000000000000000000000000000000000000000815260040180806020018281038252600a8152602001807f4e6f74206c6f636b65720000000000000000000000000000000000000000000081525060200191505060405180910390fd5b61169b816132b4565b50565b60006116f182609760008673ffffffffffffffffffffffffffffffffffffffff1673ffffffffffffffffffffffffffffffffffffffff16815260200190815260200160002061336b90919063ffffffff16565b905092915050565b61012e6020528060005260406000206000915090508060000160009054906101000a900473ffffffffffffffffffffffffffffffffffffffff16908060000160149054906101000a900460ff16908060010160009054906101000a900473ffffffffffffffffffffffffffffffffffffffff16908060020160009054906101000a900473ffffffffffffffffffffffffffffffffffffffff16908060030154905085565b6000806117a983612e8a565b15905080915050919050565b813373ffffffffffffffffffffffffffffffffffffffff166117d682611a6d565b73ffffffffffffffffffffffffffffffffffffffff161461185f576040517f08c379a00000000000000000000000000000000000000000000000000000000081526004018080602001828103825260098152602001807f4e6f74206f776e6572000000000000000000000000000000000000000000000081525060200191505060405180910390fd5b61186883612512565b156118db576040517f08c379a000000000000000000000000000000000000000000000000000000000815260040180806020018281038252600f8152602001807f4d65746164617461206c6f636b6564000000000000000000000000000000000081525060200191505060405180910390fd5b6118e58383613385565b827f2822080855c1a796047f86db6703ee05ff65e9ab90092ca4114af8f017f2047e836040518080602001828103825283818151815260200191508051906020019080838360005b8381101561194857808201518184015260208101905061192d565b50505050905090810190601f1680156119755780820380516001836020036101000a031916815260200191505b509250505060405180910390a2505050565b6119a28383836040518060200160405280600081525061249a565b505050565b6000806119be83609861340f90919063ffffffff16565b50905080915050919050565b60008061012e600084815260200190815260200160002060000160009054906101000a900473ffffffffffffffffffffffffffffffffffffffff16905080915050919050565b600060c960009054906101000a900460ff16905090565b60008061012e600084815260200190815260200160002060010160009054906101000a900473ffffffffffffffffffffffffffffffffffffffff16905080915050919050565b6000611a9d82604051806060016040528060298152602001614fe260299139609861343b9092919063ffffffff16565b9050919050565b6060609f8054600181600116156101000203166002900480601f016020809104026020016040519081016040528092919081815260200182805460018160011615610100020316600290048015611b3c5780601f10611b1157610100808354040283529160200191611b3c565b820191906000526020600020905b815481529060010190602001808311611b1f57829003601f168201915b5050505050905090565b60008073ffffffffffffffffffffffffffffffffffffffff168273ffffffffffffffffffffffffffffffffffffffff161415611bcd576040517f08c379a000000000000000000000000000000000000000000000000000000000815260040180806020018281038252602a815260200180614fb8602a913960400191505060405180910390fd5b611c14609760008473ffffffffffffffffffffffffffffffffffffffff1673ffffffffffffffffffffffffffffffffffffffff16815260200190815260200160002061345a565b9050919050565b611c23612ea7565b73ffffffffffffffffffffffffffffffffffffffff16611c416120b3565b73ffffffffffffffffffffffffffffffffffffffff1614611cca576040517f08c379a00000000000000000000000000000000000000000000000000000000081526004018080602001828103825260208152602001807f4f776e61626c653a2063616c6c6572206973206e6f7420746865206f776e657281525060200191505060405180910390fd5b600073ffffffffffffffffffffffffffffffffffffffff16606560009054906101000a900473ffffffffffffffffffffffffffffffffffffffff1673ffffffffffffffffffffffffffffffffffffffff167f8be0079c531659141344cd1fd0a4f28419497f9722a3daafe3b4186f6b6457e060405160405180910390a36000606560006101000a81548173ffffffffffffffffffffffffffffffffffffffff021916908373ffffffffffffffffffffffffffffffffffffffff160217905550565b60008061012e600084815260200190815260200160002060030154905080915050919050565b60008061012e600084815260200190815260200160002060020160009054906101000a900473ffffffffffffffffffffffffffffffffffffffff16905080915050919050565b600060019054906101000a900460ff1680611e165750611e1561346f565b5b80611e2c575060008054906101000a900460ff16155b611e81576040517f08c379a000000000000000000000000000000000000000000000000000000000815260040180806020018281038252602e81526020018061500b602e913960400191505060405180910390fd5b60008060019054906101000a900460ff161590508015611ed1576001600060016101000a81548160ff02191690831515021790555060016000806101000a81548160ff0219169083151502179055505b611ed9613480565b611f4d6040518060400160405280601181526020017f5a657230204e616d6520536572766963650000000000000000000000000000008152506040518060400160405280600381526020017f5a4e53000000000000000000000000000000000000000000000000000000000081525061358e565b611f5b6000333360006136a8565b8015611f7c5760008060016101000a81548160ff0219169083151502179055505b50565b803373ffffffffffffffffffffffffffffffffffffffff16611fa082611a6d565b73ffffffffffffffffffffffffffffffffffffffff1614612029576040517f08c379a00000000000000000000000000000000000000000000000000000000081526004018080602001828103825260098152602001807f4e6f74206f776e6572000000000000000000000000000000000000000000000081525060200191505060405180910390fd5b61203282612512565b156120a5576040517f08c379a000000000000000000000000000000000000000000000000000000000815260040180806020018281038252600f8152602001807f4d65746164617461206c6f636b6564000000000000000000000000000000000081525060200191505060405180910390fd5b6120af823361383c565b5050565b6000606560009054906101000a900473ffffffffffffffffffffffffffffffffffffffff16905090565b6000806120e983612e8a565b905080915050919050565b6060609d8054600181600116156101000203166002900480601f01602080910402602001604051908101604052809291908181526020018280546001816001161561010002031660029004801561218c5780601f106121615761010080835404028352916020019161218c565b820191906000526020600020905b81548152906001019060200180831161216f57829003601f168201915b5050505050905090565b61219e612ea7565b73ffffffffffffffffffffffffffffffffffffffff168273ffffffffffffffffffffffffffffffffffffffff16141561223f576040517f08c379a00000000000000000000000000000000000000000000000000000000081526004018080602001828103825260198152602001807f4552433732313a20617070726f766520746f2063616c6c65720000000000000081525060200191505060405180910390fd5b80609b600061224c612ea7565b73ffffffffffffffffffffffffffffffffffffffff1673ffffffffffffffffffffffffffffffffffffffff16815260200190815260200160002060008473ffffffffffffffffffffffffffffffffffffffff1673ffffffffffffffffffffffffffffffffffffffff16815260200190815260200160002060006101000a81548160ff0219169083151502179055508173ffffffffffffffffffffffffffffffffffffffff166122f9612ea7565b73ffffffffffffffffffffffffffffffffffffffff167f17307eab39ab6107e8899845ad3d59bd9653f200f220920489ca2b5937696c318360405180821515815260200191505060405180910390a35050565b612354612ea7565b73ffffffffffffffffffffffffffffffffffffffff166123726120b3565b73ffffffffffffffffffffffffffffffffffffffff16146123fb576040517f08c379a00000000000000000000000000000000000000000000000000000000081526004018080602001828103825260208152602001807f4f776e61626c653a2063616c6c6572206973206e6f7420746865206f776e657281525060200191505060405180910390fd5b600161012d60008373ffffffffffffffffffffffffffffffffffffffff1673ffffffffffffffffffffffffffffffffffffffff16815260200190815260200160002060006101000a81548160ff0219169083151502179055508073ffffffffffffffffffffffffffffffffffffffff167f0a8bb31534c0ed46f380cb867bd5c803a189ced9a764e30b3a4991a9901d747460405160405180910390a250565b6124ab6124a5612ea7565b83612f7d565b612500576040517f08c379a000000000000000000000000000000000000000000000000000000000815260040180806020018281038252603181526020018061512c6031913960400191505060405180910390fd5b61250c84848484613914565b50505050565b60008061012e600084815260200190815260200160002060000160149054906101000a900460ff16905080915050919050565b606061255082612e8a565b6125a5576040517f08c379a000000000000000000000000000000000000000000000000000000000815260040180806020018281038252602f8152602001806150dc602f913960400191505060405180910390fd5b6060609e60008481526020019081526020016000208054600181600116156101000203166002900480601f01602080910402602001604051908101604052809291908181526020018280546001816001161561010002031660029004801561264e5780601f106126235761010080835404028352916020019161264e565b820191906000526020600020905b81548152906001019060200180831161263157829003601f168201915b50505050509050606061265f611aa4565b9050600081511415612675578192505050612811565b6000825111156127465780826040516020018083805190602001908083835b602083106126b75780518252602082019150602081019050602083039250612694565b6001836020036101000a03801982511681845116808217855250505050505090500182805190602001908083835b6020831061270857805182526020820191506020810190506020830392506126e5565b6001836020036101000a0380198251168184511680821785525050505050509050019250505060405160208183030381529060405292505050612811565b8061275085613986565b6040516020018083805190602001908083835b602083106127865780518252602082019150602081019050602083039250612763565b6001836020036101000a03801982511681845116808217855250505050505090500182805190602001908083835b602083106127d757805182526020820191506020810190506020830392506127b4565b6001836020036101000a03801982511681845116808217855250505050505090500192505050604051602081830303815290604052925050505b919050565b600061012d60003373ffffffffffffffffffffffffffffffffffffffff1673ffffffffffffffffffffffffffffffffffffffff16815260200190815260200160002060009054906101000a900460ff166128d8576040517f08c379a000000000000000000000000000000000000000000000000000000000815260040180806020018281038252600e8152602001807f4e6f7420636f6e74726f6c6c657200000000000000000000000000000000000081525060200191505060405180910390fd5b6000848051906020012060001c905060003390506128f587612e8a565b612967576040517f08c379a00000000000000000000000000000000000000000000000000000000081526004018080602001828103825260098152602001807f4e6f20506172656e74000000000000000000000000000000000000000000000081525060200191505060405180910390fd5b6000878360405160200180838152602001828152602001925050506040516020818303038152906040528051906020012060001c90506129a9818787856136a8565b8783827fc0df47d75235cb55cc25dad2877292fa8d7559a887d3e457aaafcf20a0d248728a898760405180806020018473ffffffffffffffffffffffffffffffffffffffff1681526020018373ffffffffffffffffffffffffffffffffffffffff168152602001828103825285818151815260200191508051906020019080838360005b83811015612a48578082015181840152602081019050612a2d565b50505050905090810190601f168015612a755780820380516001836020036101000a031916815260200191505b5094505050505060405180910390a4809350505050949350505050565b61012d6020528060005260406000206000915054906101000a900460ff1681565b6000609b60008473ffffffffffffffffffffffffffffffffffffffff1673ffffffffffffffffffffffffffffffffffffffff16815260200190815260200160002060008373ffffffffffffffffffffffffffffffffffffffff1673ffffffffffffffffffffffffffffffffffffffff16815260200190815260200160002060009054906101000a900460ff16905092915050565b612b4f612ea7565b73ffffffffffffffffffffffffffffffffffffffff16612b6d6120b3565b73ffffffffffffffffffffffffffffffffffffffff1614612bf6576040517f08c379a00000000000000000000000000000000000000000000000000000000081526004018080602001828103825260208152602001807f4f776e61626c653a2063616c6c6572206973206e6f7420746865206f776e657281525060200191505060405180910390fd5b600073ffffffffffffffffffffffffffffffffffffffff168173ffffffffffffffffffffffffffffffffffffffff161415612c7c576040517f08c379a0000000000000000000000000000000000000000000000000000000008152600401808060200182810382526026815260200180614ee46026913960400191505060405180910390fd5b8073ffffffffffffffffffffffffffffffffffffffff16606560009054906101000a900473ffffffffffffffffffffffffffffffffffffffff1673ffffffffffffffffffffffffffffffffffffffff167f8be0079c531659141344cd1fd0a4f28419497f9722a3daafe3b4186f6b6457e060405160405180910390a380606560006101000a81548173ffffffffffffffffffffffffffffffffffffffff021916908373ffffffffffffffffffffffffffffffffffffffff16021790555050565b612d44612ea7565b73ffffffffffffffffffffffffffffffffffffffff16612d626120b3565b73ffffffffffffffffffffffffffffffffffffffff1614612deb576040517f08c379a00000000000000000000000000000000000000000000000000000000081526004018080602001828103825260208152602001807f4f776e61626c653a2063616c6c6572206973206e6f7420746865206f776e657281525060200191505060405180910390fd5b600061012d60008373ffffffffffffffffffffffffffffffffffffffff1673ffffffffffffffffffffffffffffffffffffffff16815260200190815260200160002060006101000a81548160ff0219169083151502179055508073ffffffffffffffffffffffffffffffffffffffff167f33d83959be2573f5453b12eb9d43b3499bc57d96bd2f067ba44803c859e8111360405160405180910390a250565b6000612ea0826098613acd90919063ffffffff16565b9050919050565b600033905090565b81609a600083815260200190815260200160002060006101000a81548173ffffffffffffffffffffffffffffffffffffffff021916908373ffffffffffffffffffffffffffffffffffffffff160217905550808273ffffffffffffffffffffffffffffffffffffffff16612f2283611a6d565b73ffffffffffffffffffffffffffffffffffffffff167f8c5be1e5ebec7d5bd14f71427d1e84f3dd0314c0f7b2291e5b200ac8c7c3b92560405160405180910390a45050565b6000612f7682600001613ae7565b9050919050565b6000612f8882612e8a565b612fdd576040517f08c379a000000000000000000000000000000000000000000000000000000000815260040180806020018281038252602c815260200180614f54602c913960400191505060405180910390fd5b6000612fe883611a6d565b90508073ffffffffffffffffffffffffffffffffffffffff168473ffffffffffffffffffffffffffffffffffffffff16148061305757508373ffffffffffffffffffffffffffffffffffffffff1661303f8461114f565b73ffffffffffffffffffffffffffffffffffffffff16145b8061306857506130678185612ab3565b5b91505092915050565b8273ffffffffffffffffffffffffffffffffffffffff1661309182611a6d565b73ffffffffffffffffffffffffffffffffffffffff16146130fd576040517f08c379a00000000000000000000000000000000000000000000000000000000081526004018080602001828103825260298152602001806150b36029913960400191505060405180910390fd5b600073ffffffffffffffffffffffffffffffffffffffff168273ffffffffffffffffffffffffffffffffffffffff161415613183576040517f08c379a0000000000000000000000000000000000000000000000000000000008152600401808060200182810382526024815260200180614f0a6024913960400191505060405180910390fd5b61318e838383613af8565b613199600082612eaf565b6131ea81609760008673ffffffffffffffffffffffffffffffffffffffff1673ffffffffffffffffffffffffffffffffffffffff168152602001908152602001600020613b6690919063ffffffff16565b5061323c81609760008573ffffffffffffffffffffffffffffffffffffffff1673ffffffffffffffffffffffffffffffffffffffff168152602001908152602001600020613b8090919063ffffffff16565b5061325381836098613b9a9092919063ffffffff16565b50808273ffffffffffffffffffffffffffffffffffffffff168473ffffffffffffffffffffffffffffffffffffffff167fddf252ad1be2c89b69c2b068fc378daa952ba7f163c4a11628f55a4df523b3ef60405160405180910390a4505050565b600061012e600083815260200190815260200160002060000160146101000a81548160ff021916908315150217905550600061012e600083815260200190815260200160002060010160006101000a81548173ffffffffffffffffffffffffffffffffffffffff021916908373ffffffffffffffffffffffffffffffffffffffff160217905550807f15231ceabda9f4f9436b8f17a28b36c21c8e434c821082aa1cfb3fcc994fe6c060405160405180910390a250565b600061337a8360000183613bcf565b60001c905092915050565b61338e82612e8a565b6133e3576040517f08c379a000000000000000000000000000000000000000000000000000000000815260040180806020018281038252602c815260200180615087602c913960400191505060405180910390fd5b80609e6000848152602001908152602001600020908051906020019061340a929190614dc7565b505050565b6000806000806134228660000186613c52565b915091508160001c8160001c9350935050509250929050565b600061344e846000018460001b84613ceb565b60001c90509392505050565b600061346882600001613de1565b9050919050565b600061347a30613df2565b15905090565b600060019054906101000a900460ff168061349f575061349e61346f565b5b806134b5575060008054906101000a900460ff16155b61350a576040517f08c379a000000000000000000000000000000000000000000000000000000000815260040180806020018281038252602e81526020018061500b602e913960400191505060405180910390fd5b60008060019054906101000a900460ff16159050801561355a576001600060016101000a81548160ff02191690831515021790555060016000806101000a81548160ff0219169083151502179055505b613562613e05565b61356a613f03565b801561358b5760008060016101000a81548160ff0219169083151502179055505b50565b600060019054906101000a900460ff16806135ad57506135ac61346f565b5b806135c3575060008054906101000a900460ff16155b613618576040517f08c379a000000000000000000000000000000000000000000000000000000000815260040180806020018281038252602e81526020018061500b602e913960400191505060405180910390fd5b60008060019054906101000a900460ff161590508015613668576001600060016101000a81548160ff02191690831515021790555060016000806101000a81548160ff0219169083151502179055505b613670613e05565b6136786140aa565b61368283836141b8565b80156136a35760008060016101000a81548160ff0219169083151502179055505b505050565b6136b28385614316565b6040518060a001604052808373ffffffffffffffffffffffffffffffffffffffff168152602001600015158152602001600073ffffffffffffffffffffffffffffffffffffffff1681526020018273ffffffffffffffffffffffffffffffffffffffff168152602001600081525061012e600086815260200190815260200160002060008201518160000160006101000a81548173ffffffffffffffffffffffffffffffffffffffff021916908373ffffffffffffffffffffffffffffffffffffffff16021790555060208201518160000160146101000a81548160ff02191690831515021790555060408201518160010160006101000a81548173ffffffffffffffffffffffffffffffffffffffff021916908373ffffffffffffffffffffffffffffffffffffffff16021790555060608201518160020160006101000a81548173ffffffffffffffffffffffffffffffffffffffff021916908373ffffffffffffffffffffffffffffffffffffffff1602179055506080820151816003015590505050505050565b600161012e600084815260200190815260200160002060000160146101000a81548160ff0219169083151502179055508061012e600084815260200190815260200160002060010160006101000a81548173ffffffffffffffffffffffffffffffffffffffff021916908373ffffffffffffffffffffffffffffffffffffffff160217905550817f1cd4b94ffb7edbc330bd4702c2e4a76f39ef4b94a6e12dbfd77de973f8b55e0282604051808273ffffffffffffffffffffffffffffffffffffffff16815260200191505060405180910390a25050565b61391f848484613071565b61392b84848484614334565b613980576040517f08c379a0000000000000000000000000000000000000000000000000000000008152600401808060200182810382526032815260200180614eb26032913960400191505060405180910390fd5b50505050565b606060008214156139ce576040518060400160405280600181526020017f30000000000000000000000000000000000000000000000000000000000000008152509050613ac8565b600082905060005b600082146139f8578080600101915050600a82816139f057fe5b0491506139d6565b60608167ffffffffffffffff81118015613a1157600080fd5b506040519080825280601f01601f191660200182016040528015613a445781602001600182028036833780820191505090505b50905060006001830390508593505b60008414613ac057600a8481613a6557fe5b0660300160f81b82828060019003935081518110613a7f57fe5b60200101907effffffffffffffffffffffffffffffffffffffffffffffffffffffffffffff1916908160001a905350600a8481613ab857fe5b049350613a53565b819450505050505b919050565b6000613adf836000018360001b61454d565b905092915050565b600081600001805490509050919050565b613b03838383614570565b613b0b611a10565b15613b61576040517f08c379a000000000000000000000000000000000000000000000000000000000815260040180806020018281038252602b815260200180614e87602b913960400191505060405180910390fd5b505050565b6000613b78836000018360001b614575565b905092915050565b6000613b92836000018360001b61465d565b905092915050565b6000613bc6846000018460001b8473ffffffffffffffffffffffffffffffffffffffff1660001b6146cd565b90509392505050565b600081836000018054905011613c30576040517f08c379a0000000000000000000000000000000000000000000000000000000008152600401808060200182810382526022815260200180614e656022913960400191505060405180910390fd5b826000018281548110613c3f57fe5b9060005260206000200154905092915050565b60008082846000018054905011613cb4576040517f08c379a00000000000000000000000000000000000000000000000000000000081526004018080602001828103825260228152602001806150396022913960400191505060405180910390fd5b6000846000018481548110613cc557fe5b906000526020600020906002020190508060000154816001015492509250509250929050565b60008084600101600085815260200190815260200160002054905060008114158390613db2576040517f08c379a00000000000000000000000000000000000000000000000000000000081526004018080602001828103825283818151815260200191508051906020019080838360005b83811015613d77578082015181840152602081019050613d5c565b50505050905090810190601f168015613da45780820380516001836020036101000a031916815260200191505b509250505060405180910390fd5b50846000016001820381548110613dc557fe5b9060005260206000209060020201600101549150509392505050565b600081600001805490509050919050565b600080823b905060008111915050919050565b600060019054906101000a900460ff1680613e245750613e2361346f565b5b80613e3a575060008054906101000a900460ff16155b613e8f576040517f08c379a000000000000000000000000000000000000000000000000000000000815260040180806020018281038252602e81526020018061500b602e913960400191505060405180910390fd5b60008060019054906101000a900460ff161590508015613edf576001600060016101000a81548160ff02191690831515021790555060016000806101000a81548160ff0219169083151502179055505b8015613f005760008060016101000a81548160ff0219169083151502179055505b50565b600060019054906101000a900460ff1680613f225750613f2161346f565b5b80613f38575060008054906101000a900460ff16155b613f8d576040517f08c379a000000000000000000000000000000000000000000000000000000000815260040180806020018281038252602e81526020018061500b602e913960400191505060405180910390fd5b60008060019054906101000a900460ff161590508015613fdd576001600060016101000a81548160ff02191690831515021790555060016000806101000a81548160ff0219169083151502179055505b6000613fe7612ea7565b905080606560006101000a81548173ffffffffffffffffffffffffffffffffffffffff021916908373ffffffffffffffffffffffffffffffffffffffff1602179055508073ffffffffffffffffffffffffffffffffffffffff16600073ffffffffffffffffffffffffffffffffffffffff167f8be0079c531659141344cd1fd0a4f28419497f9722a3daafe3b4186f6b6457e060405160405180910390a35080156140a75760008060016101000a81548160ff0219169083151502179055505b50565b600060019054906101000a900460ff16806140c957506140c861346f565b5b806140df575060008054906101000a900460ff16155b614134576040517f08c379a000000000000000000000000000000000000000000000000000000000815260040180806020018281038252602e81526020018061500b602e913960400191505060405180910390fd5b60008060019054906101000a900460ff161590508015614184576001600060016101000a81548160ff02191690831515021790555060016000806101000a81548160ff0219169083151502179055505b6141946301ffc9a760e01b6147a9565b80156141b55760008060016101000a81548160ff0219169083151502179055505b50565b600060019054906101000a900460ff16806141d757506141d661346f565b5b806141ed575060008054906101000a900460ff16155b614242576040517f08c379a000000000000000000000000000000000000000000000000000000000815260040180806020018281038252602e81526020018061500b602e913960400191505060405180910390fd5b60008060019054906101000a900460ff161590508015614292576001600060016101000a81548160ff02191690831515021790555060016000806101000a81548160ff0219169083151502179055505b82609c90805190602001906142a8929190614dc7565b5081609d90805190602001906142bf929190614dc7565b506142d06380ac58cd60e01b6147a9565b6142e0635b5e139f60e01b6147a9565b6142f063780e9d6360e01b6147a9565b80156143115760008060016101000a81548160ff0219169083151502179055505b505050565b6143308282604051806020016040528060008152506148b2565b5050565b60006143558473ffffffffffffffffffffffffffffffffffffffff16613df2565b6143625760019050614545565b60606144cc63150b7a0260e01b614377612ea7565b888787604051602401808573ffffffffffffffffffffffffffffffffffffffff1681526020018473ffffffffffffffffffffffffffffffffffffffff16815260200183815260200180602001828103825283818151815260200191508051906020019080838360005b838110156143fb5780820151818401526020810190506143e0565b50505050905090810190601f1680156144285780820380516001836020036101000a031916815260200191505b5095505050505050604051602081830303815290604052907bffffffffffffffffffffffffffffffffffffffffffffffffffffffff19166020820180517bffffffffffffffffffffffffffffffffffffffffffffffffffffffff8381831617835250505050604051806060016040528060328152602001614eb2603291398773ffffffffffffffffffffffffffffffffffffffff166149239092919063ffffffff16565b905060008180602001905160208110156144e557600080fd5b8101908080519060200190929190505050905063150b7a0260e01b7bffffffffffffffffffffffffffffffffffffffffffffffffffffffff1916817bffffffffffffffffffffffffffffffffffffffffffffffffffffffff191614925050505b949350505050565b600080836001016000848152602001908152602001600020541415905092915050565b505050565b6000808360010160008481526020019081526020016000205490506000811461465157600060018203905060006001866000018054905003905060008660000182815481106145c057fe5b90600052602060002001549050808760000184815481106145dd57fe5b906000526020600020018190555060018301876001016000838152602001908152602001600020819055508660000180548061461557fe5b60019003818190600052602060002001600090559055866001016000878152602001908152602001600020600090556001945050505050614657565b60009150505b92915050565b6000614669838361493b565b6146c25782600001829080600181540180825580915050600190039060005260206000200160009091909190915055826000018054905083600101600084815260200190815260200160002081905550600190506146c7565b600090505b92915050565b6000808460010160008581526020019081526020016000205490506000811415614774578460000160405180604001604052808681526020018581525090806001815401808255809150506001900390600052602060002090600202016000909190919091506000820151816000015560208201518160010155505084600001805490508560010160008681526020019081526020016000208190555060019150506147a2565b8285600001600183038154811061478757fe5b90600052602060002090600202016001018190555060009150505b9392505050565b63ffffffff60e01b817bffffffffffffffffffffffffffffffffffffffffffffffffffffffff19161415614845576040517f08c379a000000000000000000000000000000000000000000000000000000000815260040180806020018281038252601c8152602001807f4552433136353a20696e76616c696420696e746572666163652069640000000081525060200191505060405180910390fd5b600160336000837bffffffffffffffffffffffffffffffffffffffffffffffffffffffff19167bffffffffffffffffffffffffffffffffffffffffffffffffffffffff1916815260200190815260200160002060006101000a81548160ff02191690831515021790555050565b6148bc838361495e565b6148c96000848484614334565b61491e576040517f08c379a0000000000000000000000000000000000000000000000000000000008152600401808060200182810382526032815260200180614eb26032913960400191505060405180910390fd5b505050565b60606149328484600085614b52565b90509392505050565b600080836001016000848152602001908152602001600020541415905092915050565b600073ffffffffffffffffffffffffffffffffffffffff168273ffffffffffffffffffffffffffffffffffffffff161415614a01576040517f08c379a00000000000000000000000000000000000000000000000000000000081526004018080602001828103825260208152602001807f4552433732313a206d696e7420746f20746865207a65726f206164647265737381525060200191505060405180910390fd5b614a0a81612e8a565b15614a7d576040517f08c379a000000000000000000000000000000000000000000000000000000000815260040180806020018281038252601c8152602001807f4552433732313a20746f6b656e20616c7265616479206d696e7465640000000081525060200191505060405180910390fd5b614a8960008383613af8565b614ada81609760008573ffffffffffffffffffffffffffffffffffffffff1673ffffffffffffffffffffffffffffffffffffffff168152602001908152602001600020613b8090919063ffffffff16565b50614af181836098613b9a9092919063ffffffff16565b50808273ffffffffffffffffffffffffffffffffffffffff16600073ffffffffffffffffffffffffffffffffffffffff167fddf252ad1be2c89b69c2b068fc378daa952ba7f163c4a11628f55a4df523b3ef60405160405180910390a45050565b606082471015614bad576040517f08c379a0000000000000000000000000000000000000000000000000000000008152600401808060200182810382526026815260200180614f2e6026913960400191505060405180910390fd5b614bb685613df2565b614c28576040517f08c379a000000000000000000000000000000000000000000000000000000000815260040180806020018281038252601d8152602001807f416464726573733a2063616c6c20746f206e6f6e2d636f6e747261637400000081525060200191505060405180910390fd5b600060608673ffffffffffffffffffffffffffffffffffffffff1685876040518082805190602001908083835b60208310614c785780518252602082019150602081019050602083039250614c55565b6001836020036101000a03801982511681845116808217855250505050505090500191505060006040518083038185875af1925050503d8060008114614cda576040519150601f19603f3d011682016040523d82523d6000602084013e614cdf565b606091505b5091509150614cef828286614cfb565b92505050949350505050565b60608315614d0b57829050614dc0565b600083511115614d1e5782518084602001fd5b816040517f08c379a00000000000000000000000000000000000000000000000000000000081526004018080602001828103825283818151815260200191508051906020019080838360005b83811015614d85578082015181840152602081019050614d6a565b50505050905090810190601f168015614db25780820380516001836020036101000a031916815260200191505b509250505060405180910390fd5b9392505050565b828054600181600116156101000203166002900490600052602060002090601f016020900481019282601f10614e0857805160ff1916838001178555614e36565b82800160010185558215614e36579182015b82811115614e35578251825591602001919060010190614e1a565b5b509050614e439190614e47565b5090565b5b80821115614e60576000816000905550600101614e48565b509056fe456e756d657261626c655365743a20696e646578206f7574206f6620626f756e64734552433732315061757361626c653a20746f6b656e207472616e73666572207768696c65207061757365644552433732313a207472616e7366657220746f206e6f6e20455243373231526563656976657220696d706c656d656e7465724f776e61626c653a206e6577206f776e657220697320746865207a65726f20616464726573734552433732313a207472616e7366657220746f20746865207a65726f2061646472657373416464726573733a20696e73756666696369656e742062616c616e636520666f722063616c6c4552433732313a206f70657261746f7220717565727920666f72206e6f6e6578697374656e7420746f6b656e4552433732313a20617070726f76652063616c6c6572206973206e6f74206f776e6572206e6f7220617070726f76656420666f7220616c6c4552433732313a2062616c616e636520717565727920666f7220746865207a65726f20616464726573734552433732313a206f776e657220717565727920666f72206e6f6e6578697374656e7420746f6b656e496e697469616c697a61626c653a20636f6e747261637420697320616c726561647920696e697469616c697a6564456e756d657261626c654d61703a20696e646578206f7574206f6620626f756e64734552433732313a20617070726f76656420717565727920666f72206e6f6e6578697374656e7420746f6b656e4552433732314d657461646174613a2055524920736574206f66206e6f6e6578697374656e7420746f6b656e4552433732313a207472616e73666572206f6620746f6b656e2074686174206973206e6f74206f776e4552433732314d657461646174613a2055524920717565727920666f72206e6f6e6578697374656e7420746f6b656e4552433732313a20617070726f76616c20746f2063757272656e74206f776e65724552433732313a207472616e736665722063616c6c6572206973206e6f74206f776e6572206e6f7220617070726f766564a264697066735822122052e694341558d808987de25f17ca0385213fd8f103b83cb9ec4959039c5be13364736f6c63430007030033",
  "linkReferences": {},
  "deployedLinkReferences": {},
  "storageLayout": {
    "storage": [
      {
        "astId": 579,
        "contract": "contracts/Registrar.sol:Registrar",
        "label": "_initialized",
        "offset": 0,
        "slot": "0",
        "type": "t_bool"
      },
      {
        "astId": 582,
        "contract": "contracts/Registrar.sol:Registrar",
        "label": "_initializing",
        "offset": 1,
        "slot": "0",
        "type": "t_bool"
      },
      {
        "astId": 2160,
        "contract": "contracts/Registrar.sol:Registrar",
        "label": "__gap",
        "offset": 0,
        "slot": "1",
        "type": "t_array(t_uint256)50_storage"
      },
      {
        "astId": 147,
        "contract": "contracts/Registrar.sol:Registrar",
        "label": "_supportedInterfaces",
        "offset": 0,
        "slot": "51",
        "type": "t_mapping(t_bytes4,t_bool)"
      },
      {
        "astId": 204,
        "contract": "contracts/Registrar.sol:Registrar",
        "label": "__gap",
        "offset": 0,
        "slot": "52",
        "type": "t_array(t_uint256)49_storage"
      },
      {
        "astId": 10,
        "contract": "contracts/Registrar.sol:Registrar",
        "label": "_owner",
        "offset": 0,
        "slot": "101",
        "type": "t_address"
      },
      {
        "astId": 129,
        "contract": "contracts/Registrar.sol:Registrar",
        "label": "__gap",
        "offset": 0,
        "slot": "102",
        "type": "t_array(t_uint256)49_storage"
      },
      {
        "astId": 755,
        "contract": "contracts/Registrar.sol:Registrar",
        "label": "_holderTokens",
        "offset": 0,
        "slot": "151",
        "type": "t_mapping(t_address,t_struct(UintSet)3118_storage)"
      },
      {
        "astId": 757,
        "contract": "contracts/Registrar.sol:Registrar",
        "label": "_tokenOwners",
        "offset": 0,
        "slot": "152",
        "type": "t_struct(UintToAddressMap)2495_storage"
      },
      {
        "astId": 761,
        "contract": "contracts/Registrar.sol:Registrar",
        "label": "_tokenApprovals",
        "offset": 0,
        "slot": "154",
        "type": "t_mapping(t_uint256,t_address)"
      },
      {
        "astId": 767,
        "contract": "contracts/Registrar.sol:Registrar",
        "label": "_operatorApprovals",
        "offset": 0,
        "slot": "155",
        "type": "t_mapping(t_address,t_mapping(t_address,t_bool))"
      },
      {
        "astId": 769,
        "contract": "contracts/Registrar.sol:Registrar",
        "label": "_name",
        "offset": 0,
        "slot": "156",
        "type": "t_string_storage"
      },
      {
        "astId": 771,
        "contract": "contracts/Registrar.sol:Registrar",
        "label": "_symbol",
        "offset": 0,
        "slot": "157",
        "type": "t_string_storage"
      },
      {
        "astId": 775,
        "contract": "contracts/Registrar.sol:Registrar",
        "label": "_tokenURIs",
        "offset": 0,
        "slot": "158",
        "type": "t_mapping(t_uint256,t_string_storage)"
      },
      {
        "astId": 777,
        "contract": "contracts/Registrar.sol:Registrar",
        "label": "_baseURI",
        "offset": 0,
        "slot": "159",
        "type": "t_string_storage"
      },
      {
        "astId": 1679,
        "contract": "contracts/Registrar.sol:Registrar",
        "label": "__gap",
        "offset": 0,
        "slot": "160",
        "type": "t_array(t_uint256)41_storage"
      },
      {
        "astId": 3234,
        "contract": "contracts/Registrar.sol:Registrar",
        "label": "_paused",
        "offset": 0,
        "slot": "201",
        "type": "t_bool"
      },
      {
        "astId": 3325,
        "contract": "contracts/Registrar.sol:Registrar",
        "label": "__gap",
        "offset": 0,
        "slot": "202",
        "type": "t_array(t_uint256)49_storage"
      },
      {
        "astId": 705,
        "contract": "contracts/Registrar.sol:Registrar",
        "label": "__gap",
        "offset": 0,
        "slot": "251",
        "type": "t_array(t_uint256)50_storage"
      },
      {
        "astId": 3594,
        "contract": "contracts/Registrar.sol:Registrar",
        "label": "controllers",
        "offset": 0,
        "slot": "301",
        "type": "t_mapping(t_address,t_bool)"
      },
      {
        "astId": 3598,
        "contract": "contracts/Registrar.sol:Registrar",
        "label": "records",
        "offset": 0,
        "slot": "302",
        "type": "t_mapping(t_uint256,t_struct(DomainRecord)3590_storage)"
      }
    ],
    "types": {
      "t_address": {
        "encoding": "inplace",
        "label": "address",
        "numberOfBytes": "20"
      },
      "t_array(t_bytes32)dyn_storage": {
        "base": "t_bytes32",
        "encoding": "dynamic_array",
        "label": "bytes32[]",
        "numberOfBytes": "32"
      },
      "t_array(t_struct(MapEntry)2169_storage)dyn_storage": {
        "base": "t_struct(MapEntry)2169_storage",
        "encoding": "dynamic_array",
        "label": "struct EnumerableMapUpgradeable.MapEntry[]",
        "numberOfBytes": "32"
      },
      "t_array(t_uint256)41_storage": {
        "base": "t_uint256",
        "encoding": "inplace",
        "label": "uint256[41]",
        "numberOfBytes": "1312"
      },
      "t_array(t_uint256)49_storage": {
        "base": "t_uint256",
        "encoding": "inplace",
        "label": "uint256[49]",
        "numberOfBytes": "1568"
      },
      "t_array(t_uint256)50_storage": {
        "base": "t_uint256",
        "encoding": "inplace",
        "label": "uint256[50]",
        "numberOfBytes": "1600"
      },
      "t_bool": {
        "encoding": "inplace",
        "label": "bool",
        "numberOfBytes": "1"
      },
      "t_bytes32": {
        "encoding": "inplace",
        "label": "bytes32",
        "numberOfBytes": "32"
      },
      "t_bytes4": {
        "encoding": "inplace",
        "label": "bytes4",
        "numberOfBytes": "4"
      },
      "t_mapping(t_address,t_bool)": {
        "encoding": "mapping",
        "key": "t_address",
        "label": "mapping(address => bool)",
        "numberOfBytes": "32",
        "value": "t_bool"
      },
      "t_mapping(t_address,t_mapping(t_address,t_bool))": {
        "encoding": "mapping",
        "key": "t_address",
        "label": "mapping(address => mapping(address => bool))",
        "numberOfBytes": "32",
        "value": "t_mapping(t_address,t_bool)"
      },
      "t_mapping(t_address,t_struct(UintSet)3118_storage)": {
        "encoding": "mapping",
        "key": "t_address",
        "label": "mapping(address => struct EnumerableSetUpgradeable.UintSet)",
        "numberOfBytes": "32",
        "value": "t_struct(UintSet)3118_storage"
      },
      "t_mapping(t_bytes32,t_uint256)": {
        "encoding": "mapping",
        "key": "t_bytes32",
        "label": "mapping(bytes32 => uint256)",
        "numberOfBytes": "32",
        "value": "t_uint256"
      },
      "t_mapping(t_bytes4,t_bool)": {
        "encoding": "mapping",
        "key": "t_bytes4",
        "label": "mapping(bytes4 => bool)",
        "numberOfBytes": "32",
        "value": "t_bool"
      },
      "t_mapping(t_uint256,t_address)": {
        "encoding": "mapping",
        "key": "t_uint256",
        "label": "mapping(uint256 => address)",
        "numberOfBytes": "32",
        "value": "t_address"
      },
      "t_mapping(t_uint256,t_string_storage)": {
        "encoding": "mapping",
        "key": "t_uint256",
        "label": "mapping(uint256 => string)",
        "numberOfBytes": "32",
        "value": "t_string_storage"
      },
      "t_mapping(t_uint256,t_struct(DomainRecord)3590_storage)": {
        "encoding": "mapping",
        "key": "t_uint256",
        "label": "mapping(uint256 => struct Registrar.DomainRecord)",
        "numberOfBytes": "32",
        "value": "t_struct(DomainRecord)3590_storage"
      },
      "t_string_storage": {
        "encoding": "bytes",
        "label": "string",
        "numberOfBytes": "32"
      },
      "t_struct(DomainRecord)3590_storage": {
        "encoding": "inplace",
        "label": "struct Registrar.DomainRecord",
        "members": [
          {
            "astId": 3581,
            "contract": "contracts/Registrar.sol:Registrar",
            "label": "creator",
            "offset": 0,
            "slot": "0",
            "type": "t_address"
          },
          {
            "astId": 3583,
            "contract": "contracts/Registrar.sol:Registrar",
            "label": "metadataLocked",
            "offset": 20,
            "slot": "0",
            "type": "t_bool"
          },
          {
            "astId": 3585,
            "contract": "contracts/Registrar.sol:Registrar",
            "label": "metadataLockedBy",
            "offset": 0,
            "slot": "1",
            "type": "t_address"
          },
          {
            "astId": 3587,
            "contract": "contracts/Registrar.sol:Registrar",
            "label": "controller",
            "offset": 0,
            "slot": "2",
            "type": "t_address"
          },
          {
            "astId": 3589,
            "contract": "contracts/Registrar.sol:Registrar",
            "label": "royaltyAmount",
            "offset": 0,
            "slot": "3",
            "type": "t_uint256"
          }
        ],
        "numberOfBytes": "128"
      },
      "t_struct(Map)2177_storage": {
        "encoding": "inplace",
        "label": "struct EnumerableMapUpgradeable.Map",
        "members": [
          {
            "astId": 2172,
            "contract": "contracts/Registrar.sol:Registrar",
            "label": "_entries",
            "offset": 0,
            "slot": "0",
            "type": "t_array(t_struct(MapEntry)2169_storage)dyn_storage"
          },
          {
            "astId": 2176,
            "contract": "contracts/Registrar.sol:Registrar",
            "label": "_indexes",
            "offset": 0,
            "slot": "1",
            "type": "t_mapping(t_bytes32,t_uint256)"
          }
        ],
        "numberOfBytes": "64"
      },
      "t_struct(MapEntry)2169_storage": {
        "encoding": "inplace",
        "label": "struct EnumerableMapUpgradeable.MapEntry",
        "members": [
          {
            "astId": 2166,
            "contract": "contracts/Registrar.sol:Registrar",
            "label": "_key",
            "offset": 0,
            "slot": "0",
            "type": "t_bytes32"
          },
          {
            "astId": 2168,
            "contract": "contracts/Registrar.sol:Registrar",
            "label": "_value",
            "offset": 0,
            "slot": "1",
            "type": "t_bytes32"
          }
        ],
        "numberOfBytes": "64"
      },
      "t_struct(Set)2732_storage": {
        "encoding": "inplace",
        "label": "struct EnumerableSetUpgradeable.Set",
        "members": [
          {
            "astId": 2727,
            "contract": "contracts/Registrar.sol:Registrar",
            "label": "_values",
            "offset": 0,
            "slot": "0",
            "type": "t_array(t_bytes32)dyn_storage"
          },
          {
            "astId": 2731,
            "contract": "contracts/Registrar.sol:Registrar",
            "label": "_indexes",
            "offset": 0,
            "slot": "1",
            "type": "t_mapping(t_bytes32,t_uint256)"
          }
        ],
        "numberOfBytes": "64"
      },
      "t_struct(UintSet)3118_storage": {
        "encoding": "inplace",
        "label": "struct EnumerableSetUpgradeable.UintSet",
        "members": [
          {
            "astId": 3117,
            "contract": "contracts/Registrar.sol:Registrar",
            "label": "_inner",
            "offset": 0,
            "slot": "0",
            "type": "t_struct(Set)2732_storage"
          }
        ],
        "numberOfBytes": "64"
      },
      "t_struct(UintToAddressMap)2495_storage": {
        "encoding": "inplace",
        "label": "struct EnumerableMapUpgradeable.UintToAddressMap",
        "members": [
          {
            "astId": 2494,
            "contract": "contracts/Registrar.sol:Registrar",
            "label": "_inner",
            "offset": 0,
            "slot": "0",
            "type": "t_struct(Map)2177_storage"
          }
        ],
        "numberOfBytes": "64"
      },
      "t_uint256": {
        "encoding": "inplace",
        "label": "uint256",
        "numberOfBytes": "32"
      }
    }
  }
}