{
  "_format": "hh-sol-artifact-1",
  "contractName": "StakingController",
  "sourceName": "contracts/StakingController.sol",
  "abi": [
    {
      "anonymous": false,
      "inputs": [
        {
          "indexed": true,
          "internalType": "address",
          "name": "staker",
          "type": "address"
        },
        {
          "indexed": true,
          "internalType": "address",
          "name": "controller",
          "type": "address"
        },
        {
          "indexed": true,
          "internalType": "uint256",
          "name": "parentId",
          "type": "uint256"
        },
        {
          "indexed": false,
          "internalType": "string",
          "name": "name",
          "type": "string"
        },
        {
          "components": [
            {
              "internalType": "bytes",
              "name": "controllerData",
              "type": "bytes"
            },
            {
              "internalType": "string",
              "name": "lockableProperties",
              "type": "string"
            }
          ],
          "indexed": false,
          "internalType": "struct StakingController.CreateData",
          "name": "createData",
          "type": "tuple"
        },
        {
          "indexed": false,
          "internalType": "string",
          "name": "proposal",
          "type": "string"
        },
        {
          "indexed": false,
          "internalType": "uint256",
          "name": "amt",
          "type": "uint256"
        }
      ],
      "name": "Bid",
      "type": "event"
    },
    {
      "anonymous": false,
      "inputs": [
        {
          "indexed": true,
          "internalType": "address",
          "name": "staker",
          "type": "address"
        },
        {
          "indexed": true,
          "internalType": "uint256",
          "name": "id",
          "type": "uint256"
        }
      ],
      "name": "BidAccepted",
      "type": "event"
    },
    {
      "anonymous": false,
      "inputs": [
        {
          "indexed": false,
          "internalType": "address",
          "name": "staker",
          "type": "address"
        },
        {
          "indexed": true,
          "internalType": "address",
          "name": "owner",
          "type": "address"
        },
        {
          "indexed": true,
          "internalType": "uint256",
          "name": "id",
          "type": "uint256"
        },
        {
          "indexed": true,
          "internalType": "address",
          "name": "controller",
          "type": "address"
        }
      ],
      "name": "BidClaimed",
      "type": "event"
    },
    {
      "anonymous": false,
      "inputs": [
        {
          "indexed": true,
          "internalType": "uint256",
          "name": "id",
          "type": "uint256"
        },
        {
          "indexed": false,
          "internalType": "uint256",
          "name": "minBid",
          "type": "uint256"
        }
      ],
      "name": "MinBidSet",
      "type": "event"
    },
    {
      "anonymous": false,
      "inputs": [
        {
          "indexed": true,
          "internalType": "uint256",
          "name": "id",
          "type": "uint256"
        },
        {
          "indexed": true,
          "internalType": "address",
          "name": "stakeToken",
          "type": "address"
        }
      ],
      "name": "StakeTokenSet",
      "type": "event"
    },
    {
      "anonymous": false,
      "inputs": [
        {
          "indexed": true,
          "internalType": "address",
          "name": "staker",
          "type": "address"
        },
        {
          "indexed": true,
          "internalType": "uint256",
          "name": "id",
          "type": "uint256"
        },
        {
          "indexed": true,
          "internalType": "uint256",
          "name": "parentId",
          "type": "uint256"
        }
      ],
      "name": "Unbid",
      "type": "event"
    },
    {
      "inputs": [
        {
          "internalType": "address",
          "name": "staker",
          "type": "address"
        },
        {
          "internalType": "uint256",
          "name": "id",
          "type": "uint256"
        },
        {
          "internalType": "uint256",
          "name": "parentId",
          "type": "uint256"
        }
      ],
      "name": "acceptBid",
      "outputs": [],
      "stateMutability": "nonpayable",
      "type": "function"
    },
    {
      "inputs": [],
      "name": "bancorNetwork",
      "outputs": [
        {
          "internalType": "contract IBancorNetwork",
          "name": "",
          "type": "address"
        }
      ],
      "stateMutability": "view",
      "type": "function"
    },
    {
      "inputs": [
        {
          "internalType": "uint256",
          "name": "parentId",
          "type": "uint256"
        },
        {
          "internalType": "string",
          "name": "name",
          "type": "string"
        },
        {
          "internalType": "address",
          "name": "controller",
          "type": "address"
        },
        {
          "components": [
            {
              "internalType": "bytes",
              "name": "controllerData",
              "type": "bytes"
            },
            {
              "internalType": "string",
              "name": "lockableProperties",
              "type": "string"
            }
          ],
          "internalType": "struct StakingController.CreateData",
          "name": "createData",
          "type": "tuple"
        },
        {
          "internalType": "string",
          "name": "proposal",
          "type": "string"
        },
        {
          "internalType": "uint256",
          "name": "amt",
          "type": "uint256"
        }
      ],
      "name": "bid",
      "outputs": [],
      "stateMutability": "nonpayable",
      "type": "function"
    },
    {
      "inputs": [
        {
          "internalType": "uint256",
          "name": "parentId",
          "type": "uint256"
        },
        {
          "internalType": "string",
          "name": "name",
          "type": "string"
        },
        {
          "internalType": "address",
          "name": "controller",
          "type": "address"
        },
        {
          "components": [
            {
              "internalType": "bytes",
              "name": "controllerData",
              "type": "bytes"
            },
            {
              "internalType": "string",
              "name": "lockableProperties",
              "type": "string"
            }
          ],
          "internalType": "struct StakingController.CreateData",
          "name": "createData",
          "type": "tuple"
        },
        {
          "internalType": "string",
          "name": "proposal",
          "type": "string"
        },
        {
          "components": [
            {
              "internalType": "address[]",
              "name": "path",
              "type": "address[]"
            },
            {
              "internalType": "uint256",
              "name": "amount",
              "type": "uint256"
            },
            {
              "internalType": "uint256",
              "name": "minOut",
              "type": "uint256"
            }
          ],
          "internalType": "struct StakingController.BancorSwapData",
          "name": "swapData",
          "type": "tuple"
        }
      ],
      "name": "bidByPath",
      "outputs": [],
      "stateMutability": "payable",
      "type": "function"
    },
    {
      "inputs": [
        {
          "internalType": "uint256",
          "name": "parentId",
          "type": "uint256"
        },
        {
          "internalType": "string",
          "name": "name",
          "type": "string"
        },
        {
          "internalType": "address",
          "name": "controller",
          "type": "address"
        },
        {
          "components": [
            {
              "internalType": "bytes",
              "name": "controllerData",
              "type": "bytes"
            },
            {
              "internalType": "string",
              "name": "lockableProperties",
              "type": "string"
            }
          ],
          "internalType": "struct StakingController.CreateData",
          "name": "createData",
          "type": "tuple"
        },
        {
          "internalType": "string",
          "name": "proposal",
          "type": "string"
        },
        {
          "internalType": "uint256",
          "name": "amt",
          "type": "uint256"
        },
        {
          "internalType": "address",
          "name": "staker",
          "type": "address"
        }
      ],
      "name": "bidFor",
      "outputs": [],
      "stateMutability": "nonpayable",
      "type": "function"
    },
    {
      "inputs": [
        {
          "internalType": "uint256",
          "name": "parentId",
          "type": "uint256"
        },
        {
          "internalType": "string",
          "name": "name",
          "type": "string"
        },
        {
          "internalType": "address",
          "name": "controller",
          "type": "address"
        },
        {
          "components": [
            {
              "internalType": "bytes",
              "name": "controllerData",
              "type": "bytes"
            },
            {
              "internalType": "string",
              "name": "lockableProperties",
              "type": "string"
            }
          ],
          "internalType": "struct StakingController.CreateData",
          "name": "createData",
          "type": "tuple"
        },
        {
          "internalType": "string",
          "name": "proposal",
          "type": "string"
        },
        {
          "components": [
            {
              "internalType": "address[]",
              "name": "path",
              "type": "address[]"
            },
            {
              "internalType": "uint256",
              "name": "amount",
              "type": "uint256"
            },
            {
              "internalType": "uint256",
              "name": "minOut",
              "type": "uint256"
            }
          ],
          "internalType": "struct StakingController.BancorSwapData",
          "name": "swapData",
          "type": "tuple"
        },
        {
          "internalType": "address",
          "name": "staker",
          "type": "address"
        }
      ],
      "name": "bidForByPath",
      "outputs": [],
      "stateMutability": "payable",
      "type": "function"
    },
    {
      "inputs": [
        {
          "internalType": "uint256",
          "name": "parentId",
          "type": "uint256"
        },
        {
          "internalType": "string",
          "name": "name",
          "type": "string"
        },
        {
          "internalType": "address",
          "name": "owner",
          "type": "address"
        },
        {
          "internalType": "address",
          "name": "controller",
          "type": "address"
        },
        {
          "internalType": "bytes",
          "name": "data",
          "type": "bytes"
        },
        {
          "internalType": "string",
          "name": "lockableProperties",
          "type": "string"
        }
      ],
      "name": "claimBid",
      "outputs": [],
      "stateMutability": "nonpayable",
      "type": "function"
    },
    {
      "inputs": [
        {
          "internalType": "uint256",
          "name": "id",
          "type": "uint256"
        }
      ],
      "name": "configOf",
      "outputs": [
        {
          "components": [
            {
              "internalType": "address",
              "name": "stakeToken",
              "type": "address"
            },
            {
              "internalType": "uint256",
              "name": "minBid",
              "type": "uint256"
            }
          ],
          "internalType": "struct StakingController.DomainConfig",
          "name": "",
          "type": "tuple"
        }
      ],
      "stateMutability": "view",
      "type": "function"
    },
    {
      "inputs": [
        {
          "internalType": "uint256",
          "name": "id",
          "type": "uint256"
        },
        {
          "internalType": "address",
          "name": "stakeToken",
          "type": "address"
        },
        {
          "internalType": "uint256",
          "name": "minBid",
          "type": "uint256"
        }
      ],
      "name": "configureDomain",
      "outputs": [],
      "stateMutability": "nonpayable",
      "type": "function"
    },
    {
      "inputs": [
        {
          "internalType": "uint256",
          "name": "",
          "type": "uint256"
        }
      ],
      "name": "domainConfigs",
      "outputs": [
        {
          "internalType": "address",
          "name": "stakeToken",
          "type": "address"
        },
        {
          "internalType": "uint256",
          "name": "minBid",
          "type": "uint256"
        }
      ],
      "stateMutability": "view",
      "type": "function"
    },
    {
      "inputs": [
        {
          "internalType": "contract ZNSRegistry",
          "name": "_registry",
          "type": "address"
        },
        {
          "internalType": "contract IBancorRegistry",
          "name": "_bancor",
          "type": "address"
        }
      ],
      "name": "initialize",
      "outputs": [],
      "stateMutability": "nonpayable",
      "type": "function"
    },
    {
      "inputs": [
        {
          "internalType": "address",
          "name": "sender",
          "type": "address"
        },
        {
          "internalType": "address",
          "name": "oldController",
          "type": "address"
        },
        {
          "internalType": "uint256",
          "name": "id",
          "type": "uint256"
        },
        {
          "internalType": "bytes",
          "name": "data",
          "type": "bytes"
        }
      ],
      "name": "onSetZnsController",
      "outputs": [
        {
          "internalType": "bytes4",
          "name": "",
          "type": "bytes4"
        }
      ],
      "stateMutability": "nonpayable",
      "type": "function"
    },
    {
      "inputs": [
        {
          "internalType": "uint256",
          "name": "parentId",
          "type": "uint256"
        },
        {
          "internalType": "string",
          "name": "name",
          "type": "string"
        },
        {
          "internalType": "address",
          "name": "owner",
          "type": "address"
        },
        {
          "internalType": "address",
          "name": "controller",
          "type": "address"
        },
        {
          "internalType": "bytes",
          "name": "controllerData",
          "type": "bytes"
        },
        {
          "internalType": "string",
          "name": "lockableProperties",
          "type": "string"
        },
        {
          "internalType": "bytes",
          "name": "transferData",
          "type": "bytes"
        }
      ],
      "name": "safeClaimBid",
      "outputs": [],
      "stateMutability": "nonpayable",
      "type": "function"
    },
    {
      "inputs": [
        {
          "internalType": "uint256",
          "name": "id",
          "type": "uint256"
        },
        {
          "internalType": "uint256",
          "name": "minBid",
          "type": "uint256"
        }
      ],
      "name": "setMinBid",
      "outputs": [],
      "stateMutability": "nonpayable",
      "type": "function"
    },
    {
      "inputs": [
        {
          "internalType": "bytes32",
          "name": "stakeHash",
          "type": "bytes32"
        }
      ],
      "name": "stakeByHash",
      "outputs": [
        {
          "components": [
            {
              "internalType": "enum StakingController.StakeStatus",
              "name": "status",
              "type": "uint8"
            },
            {
              "internalType": "uint256",
              "name": "parentId",
              "type": "uint256"
            },
            {
              "internalType": "address",
              "name": "stakeToken",
              "type": "address"
            },
            {
              "internalType": "uint256",
              "name": "amount",
              "type": "uint256"
            },
            {
              "internalType": "bytes32",
              "name": "createHash",
              "type": "bytes32"
            }
          ],
          "internalType": "struct StakingController.StakeView",
          "name": "",
          "type": "tuple"
        }
      ],
      "stateMutability": "view",
      "type": "function"
    },
    {
      "inputs": [
        {
          "internalType": "address",
          "name": "staker",
          "type": "address"
        },
        {
          "internalType": "uint256",
          "name": "id",
          "type": "uint256"
        }
      ],
      "name": "stakeOf",
      "outputs": [
        {
          "components": [
            {
              "internalType": "enum StakingController.StakeStatus",
              "name": "status",
              "type": "uint8"
            },
            {
              "internalType": "uint256",
              "name": "parentId",
              "type": "uint256"
            },
            {
              "internalType": "address",
              "name": "stakeToken",
              "type": "address"
            },
            {
              "internalType": "uint256",
              "name": "amount",
              "type": "uint256"
            },
            {
              "internalType": "bytes32",
              "name": "createHash",
              "type": "bytes32"
            }
          ],
          "internalType": "struct StakingController.StakeView",
          "name": "",
          "type": "tuple"
        }
      ],
      "stateMutability": "view",
      "type": "function"
    },
    {
      "inputs": [
        {
          "internalType": "uint256",
          "name": "id",
          "type": "uint256"
        },
        {
          "internalType": "uint256",
          "name": "parentId",
          "type": "uint256"
        }
      ],
      "name": "unbid",
      "outputs": [],
      "stateMutability": "nonpayable",
      "type": "function"
    }
  ],
  "bytecode": "0x608060405234801561001057600080fd5b506129ed806100206000396000f3fe6080604052600436106100fe5760003560e01c8063a4edb25e11610095578063d1e804b111610064578063d1e804b114610291578063ddaea254146102be578063e13a40f0146102de578063ed87169c146102fe578063edc2ee4e1461031e576100fe565b8063a4edb25e14610202578063b187d84314610224578063b276331714610244578063ca76e6af14610271576100fe565b8063748be75c116100d1578063748be75c1461018257806395c18252146101a257806398d1f430146101c25780639b84309b146101e2576100fe565b806304a7c32f14610103578063086ebc9014610118578063485cc9551461014f5780634bab57761461016f575b600080fd5b6101166101113660046121f4565b61034b565b005b34801561012457600080fd5b50610138610133366004611f99565b610366565b604051610146929190612584565b60405180910390f35b34801561015b57600080fd5b5061011661016a366004611fb1565b61038b565b61011661017d3660046122c4565b610470565b34801561018e57600080fd5b5061011661019d366004612103565b610a4b565b3480156101ae57600080fd5b506101166101bd366004612001565b610ce4565b3480156101ce57600080fd5b506101166101dd3660046123a4565b610e4b565b3480156101ee57600080fd5b506101166101fd366004612525565b610e5c565b34801561020e57600080fd5b50610217610f12565b6040516101469190612570565b34801561023057600080fd5b5061011661023f366004612038565b610f96565b34801561025057600080fd5b5061026461025f366004611e56565b6111fa565b60405161014691906126b2565b34801561027d57600080fd5b5061011661028c366004612525565b611262565b34801561029d57600080fd5b506102b16102ac366004611f99565b611361565b6040516101469190612787565b3480156102ca57600080fd5b506101166102d936600461245a565b6113e8565b3480156102ea57600080fd5b506101166102f9366004611f45565b611725565b34801561030a57600080fd5b506102b1610319366004611f1a565b61186f565b34801561032a57600080fd5b5061033e610339366004611f99565b611928565b6040516101469190612767565b61035c888888888888888833610470565b5050505050505050565b600360205260009081526040902080546001909101546001600160a01b039091169082565b600054610100900460ff16806103a457506103a4611963565b806103b2575060005460ff16155b6103ed5760405162461bcd60e51b815260040180806020018281038252602e815260200180612960602e913960400191505060405180910390fd5b600054610100900460ff16158015610418576000805460ff1961ff0019909116610100171660011790555b6000805462010000600160b01b031916620100006001600160a01b038681169190910291909117909155600180546001600160a01b031916918416919091179055801561046b576000805461ff00191690555b505050565b600061047c8380612850565b60016104888680612850565b90500381811061049457fe5b90506020020160208101906104a99190611df1565b60008054604051631e43c35560e31b8152929350909182916201000090046001600160a01b03169063f21e1aa8906104e9908f908f908f906004016127db565b60206040518083038186803b15801561050157600080fd5b505afa158015610515573d6000803e3d6000fd5b505050506040513d601f19601f820116820180604052508101906105399190611fe9565b600054604051634f558e7960e01b81529192506201000090046001600160a01b031690634f558e79906105709084906004016127d2565b60206040518083038186803b15801561058857600080fd5b505afa15801561059c573d6000803e3d6000fd5b505050506040513d601f19601f820116820180604052508101906105c09190611f79565b156105ca57600080fd5b306001600160a01b0316600060029054906101000a90046001600160a01b03166001600160a01b0316635dd8f6aa8e6040518263ffffffff1660e01b815260040161061591906127d2565b60206040518083038186803b15801561062d57600080fd5b505afa158015610641573d6000803e3d6000fd5b505050506040513d601f19601f820116820180604052508101906106659190611e0d565b6001600160a01b03161461067857600080fd5b60008c815260036020526040902080546001600160a01b0385811691161461069f57600080fd5b600085836040516020016106b4929190612584565b60408051601f1981840301815291815281516020928301206000818152600290935290822090925090815460ff1660038111156106ed57fe5b146106f757600080fd5b805460ff1916600190811782558301546040890135101561071757600080fd5b805460ff191660011781558b61072d8c80612897565b61073a60208f018f612897565b60405160200161074e9594939291906125f5565b60408051601f1981840301815291905280516020909101206003820155600181018f9055600061077e8980612850565b600081811061078957fe5b905060200201602081019061079e9190611df1565b90506001600160a01b03811673eeeeeeeeeeeeeeeeeeeeeeeeeeeeeeeeeeeeeeee141561087f57886020013534146107d557600080fd5b6107dd610f12565b6001600160a01b031663b77d239b346107f68c80612850565b8d602001358e60400135306000806040518963ffffffff1660e01b81526004016108269796959493929190612639565b6020604051808303818588803b15801561083f57600080fd5b505af1158015610853573d6000803e3d6000fd5b50505050506040513d601f19601f820116820180604052508101906108789190611fe9565b95506109cf565b341561088a57600080fd5b60208901356108a46001600160a01b038316333084611974565b60006108ae610f12565b60405163095ea7b360e01b81529091506001600160a01b0384169063095ea7b3906108df9084908690600401612584565b602060405180830381600087803b1580156108f957600080fd5b505af115801561090d573d6000803e3d6000fd5b505050506040513d601f19601f820116820180604052508101906109319190611f79565b506001600160a01b03811663b77d239b61094b8d80612850565b858f6040013560008060006040518863ffffffff1660e01b81526004016109789796959493929190612639565b602060405180830381600087803b15801561099257600080fd5b505af11580156109a6573d6000803e3d6000fd5b505050506040513d601f19601f820116820180604052508101906109ca9190611fe9565b975050505b47156109da57600080fd5b85826002018190555050505050508a886001600160a01b0316846001600160a01b03167fc913c510ad629b5dffaa2ed188b974db06964c1420ccb1638a840abc8b30d3cd8d8d8c8c8c89604051610a36969594939291906126c7565b60405180910390a45050505050505050505050565b841580610a5c5750610a5c876119ce565b610a6557600080fd5b801580610a765750610a76886119ce565b610a7f57600080fd5b6000805460405163880aeba360e01b8152620100009091046001600160a01b03169063880aeba390610ac1908f908f908f9030908f908f908f906004016127fe565b602060405180830381600087803b158015610adb57600080fd5b505af1158015610aef573d6000803e3d6000fd5b505050506040513d601f19601f82011682018060405250810190610b139190611fe9565b90506000600260003384604051602001610b2e929190612584565b60408051601f1981840301815291815281516020928301208352908201929092520160002090506002815460ff166003811115610b6757fe5b14610b7157600080fd5b8888888888604051602001610b8a9594939291906125f5565b60405160208183030381529060405280519060200120816003015414610baf57600080fd5b600054604051633973654760e01b8152620100009091046001600160a01b031690633973654790610be89085908a908a906004016127db565b600060405180830381600087803b158015610c0257600080fd5b505af1158015610c16573d6000803e3d6000fd5b5050600054604051635c46a7ef60e11b8152620100009091046001600160a01b0316925063b88d4fde9150610c579030908e9087908a908a906004016125c1565b600060405180830381600087803b158015610c7157600080fd5b505af1158015610c85573d6000803e3d6000fd5b50505050886001600160a01b0316828b6001600160a01b03167fccb570a5507370ad990f0f6091a4b750d2265609fa24e591b68a9483f1fcea9633604051610ccd9190612570565b60405180910390a450505050505050505050505050565b600054604051632eec7b5560e11b815230916201000090046001600160a01b031690635dd8f6aa90610d1a9087906004016127d2565b60206040518083038186803b158015610d3257600080fd5b505afa158015610d46573d6000803e3d6000fd5b505050506040513d601f19601f82011682018060405250810190610d6a9190611e0d565b6001600160a01b031614610d7d57600080fd5b6000546040516331a9108f60e11b815233916201000090046001600160a01b031690636352211e90610db39087906004016127d2565b60206040518083038186803b158015610dcb57600080fd5b505afa158015610ddf573d6000803e3d6000fd5b505050506040513d601f19601f82011682018060405250810190610e039190611e0d565b6001600160a01b031614610e1657600080fd5b600083815260036020526040902080546001600160a01b031615610e3957600080fd5b610e45818585856119d4565b50505050565b61035c8888888888888888336113e8565b6000546040516331a9108f60e11b815233916201000090046001600160a01b031690636352211e90610e929086906004016127d2565b60206040518083038186803b158015610eaa57600080fd5b505afa158015610ebe573d6000803e3d6000fd5b505050506040513d601f19601f82011682018060405250810190610ee29190611e0d565b6001600160a01b031614610ef557600080fd5b6000828152600360205260409020610f0e908383611a21565b5050565b600154604051632ecd14d360e21b81526000916001600160a01b03169063bb34534c90610f419060040161274e565b60206040518083038186803b158015610f5957600080fd5b505afa158015610f6d573d6000803e3d6000fd5b505050506040513d601f19601f82011682018060405250810190610f919190611e0d565b905090565b821580610fa75750610fa7856119ce565b610fb057600080fd5b6000805460405163880aeba360e01b8152620100009091046001600160a01b03169063880aeba390610ff2908d908d908d9030908d908d908d906004016127fe565b602060405180830381600087803b15801561100c57600080fd5b505af1158015611020573d6000803e3d6000fd5b505050506040513d601f19601f820116820180604052508101906110449190611fe9565b9050600060026000338460405160200161105f929190612584565b60408051601f1981840301815291815281516020928301208352908201929092520160002090506002815460ff16600381111561109857fe5b146110a257600080fd5b86868686866040516020016110bb9594939291906125f5565b604051602081830303815290604052805190602001208160030154146110e057600080fd5b600054604051633973654760e01b8152620100009091046001600160a01b031690633973654790611119908590889088906004016127db565b600060405180830381600087803b15801561113357600080fd5b505af1158015611147573d6000803e3d6000fd5b50506000546040516323b872dd60e01b8152620100009091046001600160a01b031692506323b872dd91506111849030908c90879060040161259d565b600060405180830381600087803b15801561119e57600080fd5b505af11580156111b2573d6000803e3d6000fd5b50505050866001600160a01b031682896001600160a01b03167fccb570a5507370ad990f0f6091a4b750d2265609fa24e591b68a9483f1fcea9633604051610a369190612570565b600080546201000090046001600160a01b0316331461121857600080fd5b6000808380602001905181019061122f9190611e29565b6000878152600360205260409020919350915061124e818785856119d4565b5063b276331760e01b979650505050505050565b60003383604051602001611277929190612584565b60408051601f1981840301815291815281516020928301206000818152600290935291209091506001815460ff1660038111156112b057fe5b14806112cb57506002815460ff1660038111156112c957fe5b145b6112d457600080fd5b600280820154600180840154600090815260036020818152604080842054898552918790528320805460ff191681559384018390559483018290559190910155906001600160a01b031661132a81303385611974565b6040518590879033907fbaf75aa58d2f7ec472f5e3a652015c4bfb74087acb3cd1d34c3a9c59c355c06d90600090a4505050505050565b611369611d30565b611371611d30565b60008381526002602052604090208054829060ff16600381111561139157fe5b9081600381111561139e57fe5b90525060018101546020808401829052600283015460608501526003928301546080850152600091825291909152604090819020546001600160a01b03169082015290505b919050565b6113f28580612897565b159050806114045750611404866119ce565b61140d57600080fd5b60008054604051631e43c35560e31b815282916201000090046001600160a01b03169063f21e1aa890611448908e908e908e906004016127db565b60206040518083038186803b15801561146057600080fd5b505afa158015611474573d6000803e3d6000fd5b505050506040513d601f19601f820116820180604052508101906114989190611fe9565b600054604051634f558e7960e01b81529192506201000090046001600160a01b031690634f558e79906114cf9084906004016127d2565b60206040518083038186803b1580156114e757600080fd5b505afa1580156114fb573d6000803e3d6000fd5b505050506040513d601f19601f8201168201806040525081019061151f9190611f79565b1561152957600080fd5b600054604051632eec7b5560e11b815230916201000090046001600160a01b031690635dd8f6aa9061155f908f906004016127d2565b60206040518083038186803b15801561157757600080fd5b505afa15801561158b573d6000803e3d6000fd5b505050506040513d601f19601f820116820180604052508101906115af9190611e0d565b6001600160a01b0316146115c257600080fd5b60008b8152600360205260409020805460018201546001600160a01b0390911693508510156115f057600080fd5b60008483604051602001611605929190612584565b60408051601f1981840301815291815281516020928301206000818152600290935290822090925090815460ff16600381111561163e57fe5b1461164857600080fd5b805460ff19166001178155600281018790558a6116658b80612897565b61167260208e018e612897565b6040516020016116869594939291906125f5565b60408051601f1981840301815291905280516020909101206003820155600181018e90556116bf6001600160a01b03861687308a611974565b5050505089876001600160a01b0316836001600160a01b03167fc913c510ad629b5dffaa2ed188b974db06964c1420ccb1638a840abc8b30d3cd8c8c8b8b8b8b604051611711969594939291906126c7565b60405180910390a450505050505050505050565b6000546040516331a9108f60e11b815233916201000090046001600160a01b031690636352211e9061175b9085906004016127d2565b60206040518083038186803b15801561177357600080fd5b505afa158015611787573d6000803e3d6000fd5b505050506040513d601f19601f820116820180604052508101906117ab9190611e0d565b6001600160a01b0316146117be57600080fd5b600083836040516020016117d3929190612584565b60408051601f198184030181529181528151602092830120600081815260029093529120600181015491925090831461180b57600080fd5b6001815460ff16600381111561181d57fe5b1461182757600080fd5b805460ff1916600217815560405184906001600160a01b038716907f68113ca7b748f7d17637d79856900bc9336b88166e726bc9b55c62a39408b40790600090a35050505050565b611877611d30565b61187f611d30565b6000600260008686604051602001611898929190612584565b60408051601f198184030181529181528151602092830120835290820192909252016000208054909150829060ff1660038111156118d257fe5b908160038111156118df57fe5b90525060018101546020838101829052600283015460608501526003928301546080850152600091825291909152604090819020546001600160a01b0316908201529392505050565b611930611d60565b50600090815260036020908152604091829020825180840190935280546001600160a01b03168352600101549082015290565b600061196e306119ce565b15905090565b604080516001600160a01b0380861660248301528416604482015260648082018490528251808303909101815260849091019091526020810180516001600160e01b03166323b872dd60e01b179052610e45908590611a67565b3b151590565b83546001600160a01b0319166001600160a01b038316908117855560405184907f5b2016a1ea8387058405dc62c0671c0b374b98c435e331f124b89499b2f9f29c90600090a3610e458484835b808360010181905550817f86780397f7caa7c8f95178b8088dece6299722a706b3acca977dd807d9b30f7b82604051611a5a91906127d2565b60405180910390a2505050565b6000611abc826040518060400160405280602081526020017f5361666545524332303a206c6f772d6c6576656c2063616c6c206661696c6564815250856001600160a01b0316611b189092919063ffffffff16565b80519091501561046b57808060200190516020811015611adb57600080fd5b505161046b5760405162461bcd60e51b815260040180806020018281038252602a81526020018061298e602a913960400191505060405180910390fd5b6060611b278484600085611b31565b90505b9392505050565b606082471015611b725760405162461bcd60e51b815260040180806020018281038252602681526020018061293a6026913960400191505060405180910390fd5b611b7b856119ce565b611bcc576040805162461bcd60e51b815260206004820152601d60248201527f416464726573733a2063616c6c20746f206e6f6e2d636f6e7472616374000000604482015290519081900360640190fd5b600080866001600160a01b031685876040518082805190602001908083835b60208310611c0a5780518252601f199092019160209182019101611beb565b6001836020036101000a03801982511681845116808217855250505050505090500191505060006040518083038185875af1925050503d8060008114611c6c576040519150601f19603f3d011682016040523d82523d6000602084013e611c71565b606091505b5091509150611c81828286611c8c565b979650505050505050565b60608315611c9b575081611b2a565b825115611cab5782518084602001fd5b8160405162461bcd60e51b81526004018080602001828103825283818151815260200191508051906020019080838360005b83811015611cf5578181015183820152602001611cdd565b50505050905090810190601f168015611d225780820380516001836020036101000a031916815260200191505b509250505060405180910390fd5b6040805160a081019091528060008152600060208201819052604082018190526060820181905260809091015290565b604080518082019091526000808252602082015290565b80356113e381612921565b60008083601f840112611d93578182fd5b50813567ffffffffffffffff811115611daa578182fd5b602083019150836020828501011115611dc257600080fd5b9250929050565b600060608284031215611dda578081fd5b50919050565b600060408284031215611dda578081fd5b600060208284031215611e02578081fd5b8135611b2a81612921565b600060208284031215611e1e578081fd5b8151611b2a81612921565b60008060408385031215611e3b578081fd5b8251611e4681612921565b6020939093015192949293505050565b60008060008060808587031215611e6b578182fd5b8435611e7681612921565b9350602085810135611e8781612921565b935060408601359250606086013567ffffffffffffffff80821115611eaa578384fd5b818801915088601f830112611ebd578384fd5b813581811115611ec957fe5b604051601f8201601f1916810185018381118282101715611ee657fe5b60405281815283820185018b1015611efc578586fd5b81858501868301379081019093019390935250939692955090935050565b60008060408385031215611f2c578182fd5b8235611f3781612921565b946020939093013593505050565b600080600060608486031215611f59578283fd5b8335611f6481612921565b95602085013595506040909401359392505050565b600060208284031215611f8a578081fd5b81518015158114611b2a578182fd5b600060208284031215611faa578081fd5b5035919050565b60008060408385031215611fc3578182fd5b8235611fce81612921565b91506020830135611fde81612921565b809150509250929050565b600060208284031215611ffa578081fd5b5051919050565b600080600060608486031215612015578081fd5b83359250602084013561202781612921565b929592945050506040919091013590565b600080600080600080600080600060c08a8c031215612055578687fd5b8935985060208a013567ffffffffffffffff80821115612073578889fd5b61207f8d838e01611d82565b909a50985060408c0135915061209482612921565b90965060608b0135906120a682612921565b90955060808b013590808211156120bb578586fd5b6120c78d838e01611d82565b909650945060a08c01359150808211156120df578384fd5b506120ec8c828d01611d82565b915080935050809150509295985092959850929598565b600080600080600080600080600080600060e08c8e031215612123578485fd5b8b359a5067ffffffffffffffff8060208e01351115612140578586fd5b6121508e60208f01358f01611d82565b909b50995061216160408e01611d77565b985061216f60608e01611d77565b97508060808e01351115612181578586fd5b6121918e60808f01358f01611d82565b909750955060a08d01358110156121a6578283fd5b6121b68e60a08f01358f01611d82565b909550935060c08d01358110156121cb578283fd5b506121dc8d60c08e01358e01611d82565b81935080925050509295989b509295989b9093969950565b60008060008060008060008060c0898b03121561220f578182fd5b88359750602089013567ffffffffffffffff8082111561222d578384fd5b6122398c838d01611d82565b909950975087915061224d60408c01611d77565b965060608b0135915080821115612262578384fd5b61226e8c838d01611de0565b955060808b0135915080821115612283578384fd5b61228f8c838d01611d82565b909550935060a08b01359150808211156122a7578283fd5b506122b48b828c01611dc9565b9150509295985092959890939650565b600080600080600080600080600060e08a8c0312156122e1578283fd5b8935985060208a013567ffffffffffffffff808211156122ff578485fd5b61230b8d838e01611d82565b909a50985088915061231f60408d01611d77565b975060608c0135915080821115612334578485fd5b6123408d838e01611de0565b965060808c0135915080821115612355578485fd5b6123618d838e01611d82565b909650945060a08c0135915080821115612379578384fd5b506123868c828d01611dc9565b92505061239560c08b01611d77565b90509295985092959850929598565b60008060008060008060008060c0898b0312156123bf578182fd5b88359750602089013567ffffffffffffffff808211156123dd578384fd5b6123e98c838d01611d82565b909950975060408b013591506123fe82612921565b90955060608a01359080821115612413578384fd5b61241f8c838d01611de0565b955060808b0135915080821115612434578384fd5b506124418b828c01611d82565b999c989b50969995989497949560a00135949350505050565b600080600080600080600080600060e08a8c031215612477578283fd5b8935985060208a013567ffffffffffffffff80821115612495578485fd5b6124a18d838e01611d82565b909a50985060408c013591506124b682612921565b90965060608b013590808211156124cb578485fd5b6124d78d838e01611de0565b965060808c01359150808211156124ec578485fd5b506124f98c828d01611d82565b90955093505060a08a0135915060c08a013561251481612921565b809150509295985092959850929598565b60008060408385031215612537578182fd5b50508035926020909101359150565b60008284528282602086013780602084860101526020601f19601f85011685010190509392505050565b6001600160a01b0391909116815260200190565b6001600160a01b03929092168252602082015260400190565b6001600160a01b039384168152919092166020820152604081019190915260600190565b6001600160a01b0386811682528516602082015260408101849052608060608201819052600090611c819083018486612546565b6001600160a01b038616815260606020820181905260009061261a9083018688612546565b828103604084015261262d818587612546565b98975050505050505050565b60c0808252810187905260008860e08301825b8a81101561267c57823561265f81612921565b6001600160a01b031682526020928301929091019060010161264c565b506020840198909852505060408101949094526001600160a01b0392831660608501529116608083015260a09091015292915050565b6001600160e01b031991909116815260200190565b6000608082526126db60808301888a612546565b82810360208401526126ed87886128dc565b604083526126ff604084018284612546565b91505061270f60208901896128dc565b8383036020850152612722838284612546565b9350505050828103604084015261273a818688612546565b915050826060830152979650505050505050565b6c42616e636f724e6574776f726b60981b815260200190565b81516001600160a01b031681526020918201519181019190915260400190565b815160a08201906004811061279857fe5b8252602083810151908301526040808401516001600160a01b03169083015260608084015190830152608092830151929091019190915290565b90815260200190565b6000848252604060208301526127f5604083018486612546565b95945050505050565b600088825260a0602083015261281860a08301888a612546565b6001600160a01b038781166040850152861660608401528281036080840152612842818587612546565b9a9950505050505050505050565b6000808335601e19843603018112612866578283fd5b83018035915067ffffffffffffffff821115612880578283fd5b6020908101925081023603821315611dc257600080fd5b6000808335601e198436030181126128ad578283fd5b83018035915067ffffffffffffffff8211156128c7578283fd5b602001915036819003821315611dc257600080fd5b6000808335601e198436030181126128f2578283fd5b830160208101925035905067ffffffffffffffff81111561291257600080fd5b803603831315611dc257600080fd5b6001600160a01b038116811461293657600080fd5b5056fe416464726573733a20696e73756666696369656e742062616c616e636520666f722063616c6c496e697469616c697a61626c653a20636f6e747261637420697320616c726561647920696e697469616c697a65645361666545524332303a204552433230206f7065726174696f6e20646964206e6f742073756363656564a2646970667358221220c9a8e0200d05438de071847f607328cbd298929acea5d09fd54ea100cf7ec01264736f6c63430007060033",
  "linkReferences": {},
  "deployedLinkReferences": {}
}