{
  "_format": "hh-sol-artifact-1",
  "contractName": "ZNSRegistry",
  "sourceName": "contracts/ZNSRegistry.sol",
  "abi": [
    {
      "anonymous": false,
      "inputs": [
        {
          "indexed": true,
          "internalType": "address",
          "name": "owner",
          "type": "address"
        },
        {
          "indexed": true,
          "internalType": "address",
          "name": "approved",
          "type": "address"
        },
        {
          "indexed": true,
          "internalType": "uint256",
          "name": "tokenId",
          "type": "uint256"
        }
      ],
      "name": "Approval",
      "type": "event"
    },
    {
      "anonymous": false,
      "inputs": [
        {
          "indexed": true,
          "internalType": "address",
          "name": "owner",
          "type": "address"
        },
        {
          "indexed": true,
          "internalType": "address",
          "name": "operator",
          "type": "address"
        },
        {
          "indexed": false,
          "internalType": "bool",
          "name": "approved",
          "type": "bool"
        }
      ],
      "name": "ApprovalForAll",
      "type": "event"
    },
    {
      "anonymous": false,
      "inputs": [
        {
          "indexed": false,
          "internalType": "string",
          "name": "baseURI",
          "type": "string"
        }
      ],
      "name": "BaseURISet",
      "type": "event"
    },
    {
      "anonymous": false,
      "inputs": [
        {
          "indexed": true,
          "internalType": "address",
          "name": "owner",
          "type": "address"
        },
        {
          "indexed": true,
          "internalType": "uint256",
          "name": "id",
          "type": "uint256"
        },
        {
          "indexed": false,
          "internalType": "uint256",
          "name": "childCreateLimit",
          "type": "uint256"
        }
      ],
      "name": "ChildCreateLimitSet",
      "type": "event"
    },
    {
      "anonymous": false,
      "inputs": [
        {
          "indexed": true,
          "internalType": "address",
          "name": "owner",
          "type": "address"
        },
        {
          "indexed": true,
          "internalType": "uint256",
          "name": "id",
          "type": "uint256"
        },
        {
          "indexed": false,
          "internalType": "enum ZNSRegistry.ChildLockablePropertiesRule",
          "name": "rule",
          "type": "uint8"
        }
      ],
      "name": "ChildLockablePropertiesRuleSet",
      "type": "event"
    },
    {
      "anonymous": false,
      "inputs": [
        {
          "indexed": true,
          "internalType": "uint256",
          "name": "id",
          "type": "uint256"
        },
        {
          "indexed": true,
          "internalType": "address",
          "name": "oldController",
          "type": "address"
        },
        {
          "indexed": true,
          "internalType": "address",
          "name": "newController",
          "type": "address"
        },
        {
          "indexed": false,
          "internalType": "address",
          "name": "sender",
          "type": "address"
        }
      ],
      "name": "ControllerSet",
      "type": "event"
    },
    {
      "anonymous": false,
      "inputs": [
        {
          "indexed": true,
          "internalType": "address",
          "name": "owner",
          "type": "address"
        },
        {
          "indexed": true,
          "internalType": "uint256",
          "name": "parentId",
          "type": "uint256"
        },
        {
          "indexed": false,
          "internalType": "uint256",
          "name": "tokenId",
          "type": "uint256"
        },
        {
          "indexed": false,
          "internalType": "string",
          "name": "name",
          "type": "string"
        }
      ],
      "name": "DomainCreated",
      "type": "event"
    },
    {
      "anonymous": false,
      "inputs": [
        {
          "indexed": true,
          "internalType": "address",
          "name": "owner",
          "type": "address"
        },
        {
          "indexed": true,
          "internalType": "uint256",
          "name": "id",
          "type": "uint256"
        },
        {
          "indexed": false,
          "internalType": "string",
          "name": "lockableProperties",
          "type": "string"
        }
      ],
      "name": "LockablePropertiesSet",
      "type": "event"
    },
    {
      "anonymous": false,
      "inputs": [
        {
          "indexed": true,
          "internalType": "address",
          "name": "owner",
          "type": "address"
        },
        {
          "indexed": true,
          "internalType": "uint256",
          "name": "id",
          "type": "uint256"
        },
        {
          "indexed": false,
          "internalType": "string",
          "name": "properties",
          "type": "string"
        }
      ],
      "name": "PropertiesSet",
      "type": "event"
    },
    {
      "anonymous": false,
      "inputs": [
        {
          "indexed": true,
          "internalType": "address",
          "name": "from",
          "type": "address"
        },
        {
          "indexed": true,
          "internalType": "address",
          "name": "to",
          "type": "address"
        },
        {
          "indexed": true,
          "internalType": "uint256",
          "name": "tokenId",
          "type": "uint256"
        }
      ],
      "name": "Transfer",
      "type": "event"
    },
    {
      "inputs": [],
      "name": "ROOT_ID",
      "outputs": [
        {
          "internalType": "uint256",
          "name": "",
          "type": "uint256"
        }
      ],
      "stateMutability": "view",
      "type": "function"
    },
    {
      "inputs": [
        {
          "internalType": "address",
          "name": "to",
          "type": "address"
        },
        {
          "internalType": "uint256",
          "name": "tokenId",
          "type": "uint256"
        }
      ],
      "name": "approve",
      "outputs": [],
      "stateMutability": "nonpayable",
      "type": "function"
    },
    {
      "inputs": [
        {
          "internalType": "address",
          "name": "owner",
          "type": "address"
        }
      ],
      "name": "balanceOf",
      "outputs": [
        {
          "internalType": "uint256",
          "name": "",
          "type": "uint256"
        }
      ],
      "stateMutability": "view",
      "type": "function"
    },
    {
      "inputs": [],
      "name": "baseURI",
      "outputs": [
        {
          "internalType": "string",
          "name": "",
          "type": "string"
        }
      ],
      "stateMutability": "view",
      "type": "function"
    },
    {
      "inputs": [
        {
          "internalType": "uint256",
          "name": "parentId",
          "type": "uint256"
        },
        {
          "internalType": "string",
          "name": "name",
          "type": "string"
        }
      ],
      "name": "calcId",
      "outputs": [
        {
          "internalType": "uint256",
          "name": "",
          "type": "uint256"
        }
      ],
      "stateMutability": "pure",
      "type": "function"
    },
    {
      "inputs": [
        {
          "internalType": "uint256",
          "name": "id",
          "type": "uint256"
        }
      ],
      "name": "childCountOf",
      "outputs": [
        {
          "internalType": "uint256",
          "name": "",
          "type": "uint256"
        }
      ],
      "stateMutability": "view",
      "type": "function"
    },
    {
      "inputs": [
        {
          "internalType": "uint256",
          "name": "id",
          "type": "uint256"
        }
      ],
      "name": "childCreateLimitOf",
      "outputs": [
        {
          "internalType": "uint256",
          "name": "",
          "type": "uint256"
        }
      ],
      "stateMutability": "view",
      "type": "function"
    },
    {
      "inputs": [
        {
          "internalType": "uint256",
          "name": "id",
          "type": "uint256"
        }
      ],
      "name": "childLockablePropertiesRuleOf",
      "outputs": [
        {
          "internalType": "enum ZNSRegistry.ChildLockablePropertiesRule",
          "name": "",
          "type": "uint8"
        }
      ],
      "stateMutability": "view",
      "type": "function"
    },
    {
      "inputs": [
        {
          "internalType": "address",
          "name": "creator",
          "type": "address"
        },
        {
          "internalType": "uint256",
          "name": "id",
          "type": "uint256"
        }
      ],
      "name": "controllerLikeOf",
      "outputs": [
        {
          "internalType": "bool",
          "name": "",
          "type": "bool"
        }
      ],
      "stateMutability": "view",
      "type": "function"
    },
    {
      "inputs": [
        {
          "internalType": "uint256",
          "name": "id",
          "type": "uint256"
        }
      ],
      "name": "controllerOf",
      "outputs": [
        {
          "internalType": "address",
          "name": "",
          "type": "address"
        }
      ],
      "stateMutability": "view",
      "type": "function"
    },
    {
      "inputs": [
        {
          "internalType": "uint256",
          "name": "parentId",
          "type": "uint256"
        },
        {
          "internalType": "string",
          "name": "name",
          "type": "string"
        },
        {
          "internalType": "address",
          "name": "_owner",
          "type": "address"
        },
        {
          "internalType": "address",
          "name": "_controller",
          "type": "address"
        }
      ],
      "name": "createDomain",
      "outputs": [
        {
          "internalType": "uint256",
          "name": "id",
          "type": "uint256"
        }
      ],
      "stateMutability": "nonpayable",
      "type": "function"
    },
    {
      "inputs": [
        {
          "internalType": "uint256",
          "name": "parentId",
          "type": "uint256"
        },
        {
          "internalType": "string",
          "name": "name",
          "type": "string"
        },
        {
          "internalType": "address",
          "name": "_owner",
          "type": "address"
        },
        {
          "internalType": "address",
          "name": "_controller",
          "type": "address"
        },
        {
          "internalType": "bytes",
          "name": "controllerData",
          "type": "bytes"
        }
      ],
      "name": "createDomainSafeController",
      "outputs": [
        {
          "internalType": "uint256",
          "name": "id",
          "type": "uint256"
        }
      ],
      "stateMutability": "nonpayable",
      "type": "function"
    },
    {
      "inputs": [
        {
          "internalType": "uint256",
          "name": "parentId",
          "type": "uint256"
        },
        {
          "internalType": "string",
          "name": "name",
          "type": "string"
        },
        {
          "internalType": "address",
          "name": "_owner",
          "type": "address"
        },
        {
          "internalType": "address",
          "name": "_controller",
          "type": "address"
        },
        {
          "internalType": "bytes",
          "name": "mintData",
          "type": "bytes"
        }
      ],
      "name": "createDomainSafeMint",
      "outputs": [
        {
          "internalType": "uint256",
          "name": "id",
          "type": "uint256"
        }
      ],
      "stateMutability": "nonpayable",
      "type": "function"
    },
    {
      "inputs": [
        {
          "internalType": "uint256",
          "name": "id",
          "type": "uint256"
        }
      ],
      "name": "createLimitOf",
      "outputs": [
        {
          "internalType": "uint256",
          "name": "",
          "type": "uint256"
        }
      ],
      "stateMutability": "view",
      "type": "function"
    },
    {
      "inputs": [
        {
          "internalType": "uint256",
          "name": "id",
          "type": "uint256"
        }
      ],
      "name": "creatorOf",
      "outputs": [
        {
          "internalType": "address",
          "name": "",
          "type": "address"
        }
      ],
      "stateMutability": "view",
      "type": "function"
    },
    {
      "inputs": [
        {
          "internalType": "uint256",
          "name": "id",
          "type": "uint256"
        }
      ],
      "name": "depthOf",
      "outputs": [
        {
          "internalType": "uint256",
          "name": "",
          "type": "uint256"
        }
      ],
      "stateMutability": "view",
      "type": "function"
    },
    {
      "inputs": [
        {
          "internalType": "uint256",
          "name": "id",
          "type": "uint256"
        }
      ],
      "name": "entryOf",
      "outputs": [
        {
          "components": [
            {
              "internalType": "address",
              "name": "owner",
              "type": "address"
            },
            {
              "internalType": "uint256",
              "name": "parent",
              "type": "uint256"
            },
            {
              "internalType": "uint256",
              "name": "depth",
              "type": "uint256"
            },
            {
              "internalType": "address",
              "name": "controller",
              "type": "address"
            },
            {
              "internalType": "address",
              "name": "creator",
              "type": "address"
            },
            {
              "internalType": "string",
              "name": "name",
              "type": "string"
            },
            {
              "internalType": "string",
              "name": "domain",
              "type": "string"
            },
            {
              "internalType": "string",
              "name": "properties",
              "type": "string"
            },
            {
              "internalType": "string",
              "name": "lockableProperties",
              "type": "string"
            },
            {
              "internalType": "uint256",
              "name": "createLimit",
              "type": "uint256"
            },
            {
              "internalType": "uint256",
              "name": "childCreateLimit",
              "type": "uint256"
            },
            {
              "internalType": "uint256",
              "name": "childCount",
              "type": "uint256"
            },
            {
              "internalType": "enum ZNSRegistry.ChildLockablePropertiesRule",
              "name": "lockablePropertiesRule",
              "type": "uint8"
            },
            {
              "internalType": "enum ZNSRegistry.ChildLockablePropertiesRule",
              "name": "childLockablePropertiesRule",
              "type": "uint8"
            }
          ],
          "internalType": "struct ZNSRegistry.EntryView",
          "name": "out",
          "type": "tuple"
        }
      ],
      "stateMutability": "view",
      "type": "function"
    },
    {
      "inputs": [
        {
          "internalType": "uint256",
          "name": "id",
          "type": "uint256"
        }
      ],
      "name": "exists",
      "outputs": [
        {
          "internalType": "bool",
          "name": "",
          "type": "bool"
        }
      ],
      "stateMutability": "view",
      "type": "function"
    },
    {
      "inputs": [
        {
          "internalType": "uint256",
          "name": "tokenId",
          "type": "uint256"
        }
      ],
      "name": "getApproved",
      "outputs": [
        {
          "internalType": "address",
          "name": "",
          "type": "address"
        }
      ],
      "stateMutability": "view",
      "type": "function"
    },
    {
      "inputs": [
        {
          "internalType": "string[]",
          "name": "path",
          "type": "string[]"
        }
      ],
      "name": "getId",
      "outputs": [
        {
          "internalType": "uint256",
          "name": "",
          "type": "uint256"
        }
      ],
      "stateMutability": "pure",
      "type": "function"
    },
    {
      "inputs": [
        {
          "internalType": "address",
          "name": "_owner",
          "type": "address"
        },
        {
          "internalType": "address",
          "name": "_controller",
          "type": "address"
        }
      ],
      "name": "initialize",
      "outputs": [],
      "stateMutability": "nonpayable",
      "type": "function"
    },
    {
      "inputs": [
        {
          "internalType": "address",
          "name": "owner",
          "type": "address"
        },
        {
          "internalType": "address",
          "name": "operator",
          "type": "address"
        }
      ],
      "name": "isApprovedForAll",
      "outputs": [
        {
          "internalType": "bool",
          "name": "",
          "type": "bool"
        }
      ],
      "stateMutability": "view",
      "type": "function"
    },
    {
      "inputs": [
        {
          "internalType": "uint256",
          "name": "id",
          "type": "uint256"
        }
      ],
      "name": "lockablePropertiesOf",
      "outputs": [
        {
          "internalType": "string",
          "name": "",
          "type": "string"
        }
      ],
      "stateMutability": "view",
      "type": "function"
    },
    {
      "inputs": [
        {
          "internalType": "uint256",
          "name": "id",
          "type": "uint256"
        }
      ],
      "name": "lockablePropertiesRuleOf",
      "outputs": [
        {
          "internalType": "enum ZNSRegistry.ChildLockablePropertiesRule",
          "name": "",
          "type": "uint8"
        }
      ],
      "stateMutability": "view",
      "type": "function"
    },
    {
      "inputs": [],
      "name": "name",
      "outputs": [
        {
          "internalType": "string",
          "name": "",
          "type": "string"
        }
      ],
      "stateMutability": "view",
      "type": "function"
    },
    {
      "inputs": [
        {
          "internalType": "uint256",
          "name": "id",
          "type": "uint256"
        }
      ],
      "name": "nameOf",
      "outputs": [
        {
          "internalType": "string",
          "name": "",
          "type": "string"
        }
      ],
      "stateMutability": "view",
      "type": "function"
    },
    {
      "inputs": [
        {
          "internalType": "uint256",
          "name": "tokenId",
          "type": "uint256"
        }
      ],
      "name": "ownerOf",
      "outputs": [
        {
          "internalType": "address",
          "name": "",
          "type": "address"
        }
      ],
      "stateMutability": "view",
      "type": "function"
    },
    {
      "inputs": [
        {
          "internalType": "uint256",
          "name": "id",
          "type": "uint256"
        }
      ],
      "name": "parentOf",
      "outputs": [
        {
          "internalType": "uint256",
          "name": "",
          "type": "uint256"
        }
      ],
      "stateMutability": "view",
      "type": "function"
    },
    {
      "inputs": [
        {
          "internalType": "uint256",
          "name": "id",
          "type": "uint256"
        }
      ],
      "name": "propertiesOf",
      "outputs": [
        {
          "internalType": "string",
          "name": "",
          "type": "string"
        }
      ],
      "stateMutability": "view",
      "type": "function"
    },
    {
      "inputs": [
        {
          "internalType": "uint256",
          "name": "parentId",
          "type": "uint256"
        },
        {
          "internalType": "string",
          "name": "name",
          "type": "string"
        },
        {
          "internalType": "address",
          "name": "_owner",
          "type": "address"
        },
        {
          "internalType": "address",
          "name": "_controller",
          "type": "address"
        },
        {
          "internalType": "bytes",
          "name": "mintData",
          "type": "bytes"
        },
        {
          "internalType": "bytes",
          "name": "controllerData",
          "type": "bytes"
        }
      ],
      "name": "safeCreateDomain",
      "outputs": [
        {
          "internalType": "uint256",
          "name": "id",
          "type": "uint256"
        }
      ],
      "stateMutability": "nonpayable",
      "type": "function"
    },
    {
      "inputs": [
        {
          "internalType": "uint256",
          "name": "id",
          "type": "uint256"
        },
        {
          "internalType": "address",
          "name": "controller",
          "type": "address"
        },
        {
          "internalType": "bytes",
          "name": "_data",
          "type": "bytes"
        }
      ],
      "name": "safeSetController",
      "outputs": [],
      "stateMutability": "nonpayable",
      "type": "function"
    },
    {
      "inputs": [
        {
          "internalType": "address",
          "name": "from",
          "type": "address"
        },
        {
          "internalType": "address",
          "name": "to",
          "type": "address"
        },
        {
          "internalType": "uint256",
          "name": "tokenId",
          "type": "uint256"
        }
      ],
      "name": "safeTransferFrom",
      "outputs": [],
      "stateMutability": "nonpayable",
      "type": "function"
    },
    {
      "inputs": [
        {
          "internalType": "address",
          "name": "from",
          "type": "address"
        },
        {
          "internalType": "address",
          "name": "to",
          "type": "address"
        },
        {
          "internalType": "uint256",
          "name": "tokenId",
          "type": "uint256"
        },
        {
          "internalType": "bytes",
          "name": "_data",
          "type": "bytes"
        }
      ],
      "name": "safeTransferFrom",
      "outputs": [],
      "stateMutability": "nonpayable",
      "type": "function"
    },
    {
      "inputs": [
        {
          "internalType": "address",
          "name": "operator",
          "type": "address"
        },
        {
          "internalType": "bool",
          "name": "approved",
          "type": "bool"
        }
      ],
      "name": "setApprovalForAll",
      "outputs": [],
      "stateMutability": "nonpayable",
      "type": "function"
    },
    {
      "inputs": [
        {
          "internalType": "string",
          "name": "baseURI",
          "type": "string"
        }
      ],
      "name": "setBaseURI",
      "outputs": [],
      "stateMutability": "nonpayable",
      "type": "function"
    },
    {
      "inputs": [
        {
          "internalType": "uint256",
          "name": "id",
          "type": "uint256"
        },
        {
          "internalType": "uint256",
          "name": "childCreateLimit",
          "type": "uint256"
        }
      ],
      "name": "setChildCreateLimit",
      "outputs": [],
      "stateMutability": "nonpayable",
      "type": "function"
    },
    {
      "inputs": [
        {
          "internalType": "uint256",
          "name": "id",
          "type": "uint256"
        },
        {
          "internalType": "enum ZNSRegistry.ChildLockablePropertiesRule",
          "name": "rule",
          "type": "uint8"
        }
      ],
      "name": "setChildLockablePropertiesRule",
      "outputs": [],
      "stateMutability": "nonpayable",
      "type": "function"
    },
    {
      "inputs": [
        {
          "internalType": "uint256",
          "name": "id",
          "type": "uint256"
        },
        {
          "internalType": "address",
          "name": "controller",
          "type": "address"
        }
      ],
      "name": "setController",
      "outputs": [],
      "stateMutability": "nonpayable",
      "type": "function"
    },
    {
      "inputs": [
        {
          "internalType": "uint256",
          "name": "id",
          "type": "uint256"
        },
        {
          "internalType": "string",
          "name": "lockableProperties",
          "type": "string"
        }
      ],
      "name": "setLockableProperties",
      "outputs": [],
      "stateMutability": "nonpayable",
      "type": "function"
    },
    {
      "inputs": [
        {
          "internalType": "uint256",
          "name": "id",
          "type": "uint256"
        },
        {
          "internalType": "string",
          "name": "properties",
          "type": "string"
        }
      ],
      "name": "setProperties",
      "outputs": [],
      "stateMutability": "nonpayable",
      "type": "function"
    },
    {
      "inputs": [
        {
          "internalType": "bytes4",
          "name": "interfaceId",
          "type": "bytes4"
        }
      ],
      "name": "supportsInterface",
      "outputs": [
        {
          "internalType": "bool",
          "name": "",
          "type": "bool"
        }
      ],
      "stateMutability": "view",
      "type": "function"
    },
    {
      "inputs": [],
      "name": "symbol",
      "outputs": [
        {
          "internalType": "string",
          "name": "",
          "type": "string"
        }
      ],
      "stateMutability": "view",
      "type": "function"
    },
    {
      "inputs": [
        {
          "internalType": "uint256",
          "name": "index",
          "type": "uint256"
        }
      ],
      "name": "tokenByIndex",
      "outputs": [
        {
          "internalType": "uint256",
          "name": "",
          "type": "uint256"
        }
      ],
      "stateMutability": "view",
      "type": "function"
    },
    {
      "inputs": [
        {
          "internalType": "address",
          "name": "owner",
          "type": "address"
        },
        {
          "internalType": "uint256",
          "name": "index",
          "type": "uint256"
        }
      ],
      "name": "tokenOfOwnerByIndex",
      "outputs": [
        {
          "internalType": "uint256",
          "name": "",
          "type": "uint256"
        }
      ],
      "stateMutability": "view",
      "type": "function"
    },
    {
      "inputs": [
        {
          "internalType": "uint256",
          "name": "tokenId",
          "type": "uint256"
        }
      ],
      "name": "tokenURI",
      "outputs": [
        {
          "internalType": "string",
          "name": "",
          "type": "string"
        }
      ],
      "stateMutability": "view",
      "type": "function"
    },
    {
      "inputs": [],
      "name": "totalSupply",
      "outputs": [
        {
          "internalType": "uint256",
          "name": "",
          "type": "uint256"
        }
      ],
      "stateMutability": "view",
      "type": "function"
    },
    {
      "inputs": [
        {
          "internalType": "address",
          "name": "from",
          "type": "address"
        },
        {
          "internalType": "address",
          "name": "to",
          "type": "address"
        },
        {
          "internalType": "uint256",
          "name": "tokenId",
          "type": "uint256"
        }
      ],
      "name": "transferFrom",
      "outputs": [],
      "stateMutability": "nonpayable",
      "type": "function"
    },
    {
      "inputs": [
        {
          "internalType": "string",
          "name": "name",
          "type": "string"
        }
      ],
      "name": "validateName",
      "outputs": [
        {
          "internalType": "bool",
          "name": "",
          "type": "bool"
        }
      ],
      "stateMutability": "pure",
      "type": "function"
    }
  ],
  "bytecode": "0x608060405234801561001057600080fd5b50613f56806100206000396000f3fe608060405234801561001057600080fd5b50600436106102a05760003560e01c8063606cf27e11610167578063a22cb465116100ce578063d4f5913411610087578063d4f59134146105f0578063e985e9c514610603578063eedf792814610616578063f21e1aa81461061e578063f63c8dff14610631578063fa23b5b014610644576102a0565b8063a22cb46514610571578063a7187e4714610584578063b5e4af4f146105a4578063b88d4fde146105b7578063c87b56dd146105ca578063cfa3c132146105dd576102a0565b8063880aeba311610120578063880aeba31461050a5780638faa8d091461051d57806395d89b41146105305780639b609693146105385780639ffdb65a1461054b578063a1755c161461055e576102a0565b8063606cf27e146104a35780636352211e146104b65780636a136a53146104c95780636c0360eb146104dc57806370a08231146104e45780637f76176e146104f7576102a0565b8063397365471161020b5780634f6ccce7116101c45780634f6ccce71461043157806355f804b314610444578063589a1743146104575780635a2cfbe31461046a5780635c98db051461047d5780635dd8f6aa14610490576102a0565b806339736547146103bf5780633c2f82e5146103d25780633e5779ee146103e557806342842e0e146103f8578063485cc9551461040b5780634f558e791461041e576102a0565b80631aa17ac41161025d5780631aa17ac4146103405780631ee78d481461035357806323b872dd146103665780632729af43146103795780632bb4350c1461038c5780632f745c59146103ac576102a0565b806301ffc9a7146102a5578063051a2664146102ce57806306fdde03146102ee578063081812fc146102f6578063095ea7b31461031657806318160ddd1461032b575b600080fd5b6102b86102b33660046134ab565b610657565b6040516102c59190613927565b60405180910390f35b6102e16102dc366004613515565b61067a565b6040516102c59190613954565b6102e161071e565b610309610304366004613515565b6107b4565b6040516102c591906138d6565b6103296103243660046133ea565b610816565b005b6103336108ec565b6040516102c59190613c31565b61032961034e3660046135cd565b6108fd565b6102e1610361366004613515565b610988565b6103296103743660046132fd565b6109f5565b610333610387366004613515565b610a4c565b61039f61039a366004613515565b610a61565b6040516102c59190613b0f565b6103336103ba3660046133ea565b610cf4565b6103296103cd3660046137e1565b610d1f565b6103296103e03660046135a6565b610de9565b6103296103f336600461352d565b610e34565b6103296104063660046132fd565b610e51565b6103296104193660046132cb565b610e6c565b6102b861042c366004613515565b6110ce565b61033361043f366004613515565b6110d9565b6103296104523660046134e3565b6110ef565b610309610465366004613515565b611182565b610329610478366004613825565b6111a0565b6102b861048b3660046133ea565b611250565b61030961049e366004613515565b6112e5565b6102e16104b1366004613515565b611303565b6103096104c4366004613515565b611370565b6103336104d7366004613682565b611398565b6102e16113fe565b6103336104f23660046132b1565b61145f565b61033361050536600461371c565b6114c7565b610333610518366004613682565b611566565b61033361052b366004613515565b6115c1565b6102e16115d6565b610333610546366004613515565b611637565b6102b86105593660046134e3565b61164c565b61033361056c366004613515565b61177f565b61032961057f3660046133b0565b611797565b610597610592366004613515565b61189c565b6040516102c59190613932565b6105976105b2366004613515565b6118b0565b6103296105c5366004613338565b6118c8565b6102e16105d8366004613515565b611926565b6103336105eb366004613515565b611a3d565b6103336105fe366004613413565b611a4f565b6102b86106113660046132cb565b611ada565b610333611b08565b61033361062c3660046137e1565b611b36565b61033361063f366004613616565b611b6a565b61032961065236600461354f565b611b97565b6001600160e01b0319811660009081526033602052604090205460ff165b919050565b60008181526097602090815260409182902060040180548351601f60026000196101006001861615020190931692909204918201849004840281018401909452808452606093928301828280156107125780601f106106e757610100808354040283529160200191610712565b820191906000526020600020905b8154815290600101906020018083116106f557829003601f168201915b50505050509050919050565b606a8054604080516020601f60026000196101006001881615020190951694909404938401819004810282018101909252828152606093909290918301828280156107aa5780601f1061077f576101008083540402835291602001916107aa565b820191906000526020600020905b81548152906001019060200180831161078d57829003601f168201915b5050505050905090565b60006107bf82611beb565b6107fa5760405162461bcd60e51b815260040180806020018281038252602c815260200180613e4b602c913960400191505060405180910390fd5b506000908152606860205260409020546001600160a01b031690565b600061082182611370565b9050806001600160a01b0316836001600160a01b031614156108745760405162461bcd60e51b8152600401808060200182810382526021815260200180613ecf6021913960400191505060405180910390fd5b806001600160a01b0316610886611bf8565b6001600160a01b031614806108a257506108a281610611611bf8565b6108dd5760405162461bcd60e51b8152600401808060200182810382526038815260200180613d706038913960400191505060405180910390fd5b6108e78383611bfc565b505050565b60006108f86066611c6a565b905090565b3361090784611370565b6001600160a01b03161461091a57600080fd5b600083815260976020526040902061093690600501838361303a565b508261094184611370565b6001600160a01b03167f0f0b5bc5e10c544f8e0a2e4454b33db34f4c7705ec311444be317b17ed65f8a9848460405161097b929190613940565b60405180910390a3505050565b60008181526097602090815260409182902060060180548351601f60026000196101006001861615020190931692909204918201849004840281018401909452808452606093928301828280156107125780601f106106e757610100808354040283529160200191610712565b610a06610a00611bf8565b82611c75565b610a415760405162461bcd60e51b8152600401808060200182810382526031815260200180613ef06031913960400191505060405180910390fd5b6108e7838383611d11565b60009081526097602052604090206008015490565b610a696130c6565b600082815260976020526040808220805483529120610a8784611370565b6001600160a01b0390811684528254602080860191909152600180850154604080880191909152600280870154851660608901526003870154909416608088015260048601805482516101009482161594909402600019011694909404601f8101849004840283018401909152808252909291830182828015610b4b5780601f10610b2057610100808354040283529160200191610b4b565b820191906000526020600020905b815481529060010190602001808311610b2e57829003601f168201915b505050505060a084015260058201805460408051602060026001851615610100026000190190941693909304601f81018490048402820184019092528181529291830182828015610bdd5780601f10610bb257610100808354040283529160200191610bdd565b820191906000526020600020905b815481529060010190602001808311610bc057829003601f168201915b505050505060e084015260068201805460408051602060026001851615610100026000190190941693909304601f81018490048402820184019092528181529291830182828015610c6f5780601f10610c4457610100808354040283529160200191610c6f565b820191906000526020600020905b815481529060010190602001808311610c5257829003601f168201915b50505050506101008401526007818101546101208501528201546101408401526008820154610160840152600981015461018084019060ff166002811115610cb357fe5b90816002811115610cc057fe5b90525060098201546101a084019060ff166002811115610cdc57fe5b90816002811115610ce957fe5b815250505050919050565b6001600160a01b0382166000908152606560205260408120610d169083611e5d565b90505b92915050565b33610d2983611370565b6001600160a01b031614610d3c57600080fd5b6000828152609760205260408082208054835291206009015460019060ff166002811115610d6657fe5b141580610d885750600681015460026000196101006001841615020190911604155b610d9157600080fd5b8151610da6906006830190602085019061315a565b5082610db184611370565b6001600160a01b03167fc8f809ba9174a6c819c5e43ceb97ea2f811b6c45301afd4556a45a9dd1c58aba8460405161097b9190613954565b33610df383611370565b6001600160a01b031614610e0657600080fd5b6000610e11836118b0565b6002811115610e1c57fe5b14610e2657600080fd5b610e308282611e69565b5050565b610e3e3383611250565b610e4757600080fd5b610e308282611ee4565b6108e7838383604051806020016040528060008152506118c8565b600054610100900460ff1680610e855750610e85611f66565b80610e93575060005460ff16155b610ece5760405162461bcd60e51b815260040180806020018281038252602e815260200180613dfb602e913960400191505060405180910390fd5b600054610100900460ff16158015610ef9576000805460ff1961ff0019909116610100171660011790555b610f47604051806040016040528060118152602001705a657230204e616d65205365727669636560781b815250604051806040016040528060038152602001625a4e5360e81b815250611f77565b60006097600080604051602001610f5e9190613c6d565b60408051601f19818403018152918152815160209283012083528282019390935290820160002082518084019093526004808452631493d3d560e21b939092019283529250610fb0918184019161315a565b506000808052609760209081527f683723e34a772b6e4f2c919bba7fa32ed8ea11a8325f54da7db716e9d9dd98d0805460ff191660021790556040516001600160a01b038716917f344e91aabc536070c87aa834b8871f12cc169edb9e40133af520389ab4fee44e9161102591859101613c6d565b60408051601f1981840301815290829052805160209091012061104791613c6d565b60405180910390a36110838460006040516020016110659190613c6d565b6040516020818303038152906040528051906020012060001c612034565b6110b760006040516020016110989190613c6d565b6040516020818303038152906040528051906020012060001c84611ee4565b5080156108e7576000805461ff0019169055505050565b6000610d1982611beb565b6000806110e7606684612162565b509392505050565b61112260006040516020016111049190613c6d565b6040516020818303038152906040528051906020012060001c611370565b6001600160a01b0316336001600160a01b03161461113f57600080fd5b61114881612180565b7ff9c7803e94e0d3c02900d8a90893a6d5e90dd04d32a4cfe825520f82bf9f32f6816040516111779190613954565b60405180910390a150565b6000908152609760205260409020600301546001600160a01b031690565b600082156111b6576111b183611370565b6111cb565b6111cb60006040516020016111049190613c6d565b90506001600160a01b03811633146111e257600080fd5b60008381526097602052604090206007015482116111ff57600080fd5b600083815260976020526040908190206007018390555183906001600160a01b038316907f80f61c56727089d971552cf018c6fe81e5eec3f31e807669438b4d65d678fc299061097b908690613c31565b60008061125c836112e5565b9050806001600160a01b0316846001600160a01b031614806112dd57506001600160a01b03811615806112b85750600060405160200161129c9190613c6d565b6040516020818303038152906040528051906020012060001c83145b80156112dd5750836001600160a01b03166112d284611370565b6001600160a01b0316145b949350505050565b6000908152609760205260409020600201546001600160a01b031690565b60008181526097602090815260409182902060050180548351601f60026000196101006001861615020190931692909204918201849004840281018401909452808452606093928301828280156107125780601f106106e757610100808354040283529160200191610712565b6000610d1982604051806060016040528060298152602001613dd26029913960669190612193565b60006113a6888888886121aa565b90506113e9858285858080601f0160208091040260200160405190810160405280939291908181526020018383808284376000920191909152506123c892505050565b6113f38185611ee4565b979650505050505050565b606d8054604080516020601f60026000196101006001881615020190951694909404938401819004810282018101909252828152606093909290918301828280156107aa5780601f1061077f576101008083540402835291602001916107aa565b60006001600160a01b0382166114a65760405162461bcd60e51b815260040180806020018281038252602a815260200180613da8602a913960400191505060405180910390fd5b6001600160a01b0382166000908152606560205260409020610d1990611c6a565b60006114d58a8a8a8a6121aa565b9050611518878287878080601f0160208091040260200160405190810160405280939291908181526020018383808284376000920191909152506123c892505050565b611559818785858080601f01602080910402602001604051908101604052809392919081815260200183838082843760009201919091525061241a92505050565b9998505050505050505050565b6000611574888888886121aa565b90506115808582612034565b6113f3818585858080601f01602080910402602001604051908101604052809392919081815260200183838082843760009201919091525061241a92505050565b60009081526097602052604090206001015490565b606b8054604080516020601f60026000196101006001881615020190951694909404938401819004810282018101909252828152606093909290918301828280156107aa5780601f1061077f576101008083540402835291602001916107aa565b60009081526097602052604090206007015490565b8051600090602080840191839180820490818701015b808510156116e9578451935060005b6101008110156116dd5784811b60f81c60618110806116935750607a8160ff16115b80156116af575060308160ff1610806116af575060398160ff16115b80156116bf57508060ff16602d14155b156116d4576000975050505050505050610675565b50600801611671565b50600190940193611662565b82826020021015611772578451935060086020830284030260005b8181101561176f5785811b60f81c60618110806117245750607a8160ff16115b8015611740575060308160ff161080611740575060398160ff16115b801561175057508060ff16602d14155b1561176657600098505050505050505050610675565b50600801611704565b50505b5060019695505050505050565b600081815260976020526040812054610d1990611637565b61179f611bf8565b6001600160a01b0316826001600160a01b03161415611805576040805162461bcd60e51b815260206004820152601960248201527f4552433732313a20617070726f766520746f2063616c6c657200000000000000604482015290519081900360640190fd5b8060696000611812611bf8565b6001600160a01b03908116825260208083019390935260409182016000908120918716808252919093529120805460ff191692151592909217909155611856611bf8565b6001600160a01b03167f17307eab39ab6107e8899845ad3d59bd9653f200f220920489ca2b5937696c318360405180821515815260200191505060405180910390a35050565b600081815260976020526040812054610d19905b60009081526097602052604090206009015460ff1690565b6118d96118d3611bf8565b83611c75565b6119145760405162461bcd60e51b8152600401808060200182810382526031815260200180613ef06031913960400191505060405180910390fd5b611920848484846124bf565b50505050565b606061193182611beb565b61196c5760405162461bcd60e51b815260040180806020018281038252602f815260200180613ea0602f913960400191505060405180910390fd5b606d61197783612511565b60405160200180838054600181600116156101000203166002900480156119d55780601f106119b35761010080835404028352918201916119d5565b820191906000526020600020905b8154815290600101906020018083116119c1575b5050825160208401908083835b60208310611a015780518252601f1990920191602091820191016119e2565b6001836020036101000a038019825116818451168082178552505050505050905001925050506040516020818303038152906040529050919050565b60009081526097602052604090205490565b6000806000604051602001611a649190613c6d565b6040516020818303038152906040528051906020012060001c905060005b8351811015611ad35781848281518110611a9857fe5b6020026020010151604051602001611ab1929190613c54565b60408051601f1981840301815291905280516020909101209150600101611a82565b5092915050565b6001600160a01b03918216600090815260696020908152604080832093909416825291909152205460ff1690565b6000604051602001611b1a9190613c6d565b6040516020818303038152906040528051906020012060001c81565b60008282604051602001611b4b929190613c54565b60408051601f1981840301815291905280516020909101209392505050565b6000611b78868686866121aa565b9050611b848382612034565b611b8e8183611ee4565b95945050505050565b611ba13385611250565b611baa57600080fd5b611920848484848080601f01602080910402602001604051908101604052809392919081815260200183838082843760009201919091525061241a92505050565b6000610d196066836125eb565b3390565b600081815260686020526040902080546001600160a01b0319166001600160a01b0384169081179091558190611c3182611370565b6001600160a01b03167f8c5be1e5ebec7d5bd14f71427d1e84f3dd0314c0f7b2291e5b200ac8c7c3b92560405160405180910390a45050565b6000610d19826125f7565b6000611c8082611beb565b611cbb5760405162461bcd60e51b815260040180806020018281038252602c815260200180613d44602c913960400191505060405180910390fd5b6000611cc683611370565b9050806001600160a01b0316846001600160a01b03161480611d015750836001600160a01b0316611cf6846107b4565b6001600160a01b0316145b806112dd57506112dd8185611ada565b826001600160a01b0316611d2482611370565b6001600160a01b031614611d695760405162461bcd60e51b8152600401808060200182810382526029815260200180613e776029913960400191505060405180910390fd5b6001600160a01b038216611dae5760405162461bcd60e51b8152600401808060200182810382526024815260200180613d206024913960400191505060405180910390fd5b611db98383836108e7565b611dc4600082611bfc565b6001600160a01b0383166000908152606560205260409020611de690826125fb565b506001600160a01b0382166000908152606560205260409020611e099082612607565b50611e1660668284612613565b5080826001600160a01b0316846001600160a01b03167fddf252ad1be2c89b69c2b068fc378daa952ba7f163c4a11628f55a4df523b3ef60405160405180910390a4505050565b6000610d168383612629565b6000828152609760205260409020600901805482919060ff19166001836002811115611e9157fe5b021790555081611ea083611370565b6001600160a01b03167fe58917e1d42e710d3fad282cd26c45b86c2868346d35e51fdc41ebc57a046d9f83604051611ed89190613932565b60405180910390a35050565b6000611eef836112e5565b6000848152609760205260409081902060020180546001600160a01b0319166001600160a01b03868116918217909255915192935090919083169085907f0af36ec64da94c558c48ce7fb33930392a9a27325b8cb0584000835ffff08cdd90611f599033906138d6565b60405180910390a4505050565b6000611f713061268d565b15905090565b600054610100900460ff1680611f905750611f90611f66565b80611f9e575060005460ff16155b611fd95760405162461bcd60e51b815260040180806020018281038252602e815260200180613dfb602e913960400191505060405180910390fd5b600054610100900460ff16158015612004576000805460ff1961ff0019909116610100171660011790555b61200c612693565b612014612735565b61201e83836127d2565b80156108e7576000805461ff0019169055505050565b6001600160a01b03821661208f576040805162461bcd60e51b815260206004820181905260248201527f4552433732313a206d696e7420746f20746865207a65726f2061646472657373604482015290519081900360640190fd5b61209881611beb565b156120ea576040805162461bcd60e51b815260206004820152601c60248201527f4552433732313a20746f6b656e20616c7265616479206d696e74656400000000604482015290519081900360640190fd5b6120f6600083836108e7565b6001600160a01b03821660009081526065602052604090206121189082612607565b5061212560668284612613565b5060405181906001600160a01b038416906000907fddf252ad1be2c89b69c2b068fc378daa952ba7f163c4a11628f55a4df523b3ef908290a45050565b600080808061217186866128b7565b909450925050505b9250929050565b8051610e3090606d90602084019061315a565b60006121a0848484612932565b90505b9392505050565b6000826121b657600080fd5b6121f584848080601f01602080910402602001604051908101604052809392919081815260200183838082843760009201919091525061164c92505050565b61221a5760405162461bcd60e51b815260040161221190613a4b565b60405180910390fd5b600085858560405160200161223193929190613c3a565b6040516020818303038152906040528051906020012060001c90506122563387611250565b6122725760405162461bcd60e51b815260040161221190613967565b61227b86611beb565b6122975760405162461bcd60e51b815260040161221190613a1d565b6122a081611beb565b156122bd5760405162461bcd60e51b815260040161221190613a82565b600086815260976020526040902080546122d690611637565b816008015460010111156122fc5760405162461bcd60e51b815260040161221190613993565b600881018054600190810190915560008381526097602052604090208183015482019181019190915587815561233660048201888861303a565b506003810180546001600160a01b0319166001600160a01b0387169081179091556040518991907f344e91aabc536070c87aa834b8871f12cc169edb9e40133af520389ab4fee44e9061238e9087908c908c90613c3a565b60405180910390a36001600983015460ff1660028111156123ab57fe5b14156123bc576123bc836001611e69565b50909695505050505050565b6123d28383612034565b6123df60008484846129fc565b6108e75760405162461bcd60e51b8152600401808060200182810382526032815260200180613cee6032913960400191505060405180910390fd5b6000612425846112e5565b6000858152609760205260409081902060020180546001600160a01b0319166001600160a01b03878116918217909255915192935090919083169086907f0af36ec64da94c558c48ce7fb33930392a9a27325b8cb0584000835ffff08cdd9061248f9033906138d6565b60405180910390a46124a381848685612b64565b6119205760405162461bcd60e51b8152600401612211906139c0565b6124ca848484611d11565b6124d6848484846129fc565b6119205760405162461bcd60e51b8152600401808060200182810382526032815260200180613cee6032913960400191505060405180910390fd5b60608161253657506040805180820190915260018152600360fc1b6020820152610675565b8160005b811561254e57600101600a8204915061253a565b6000816001600160401b038111801561256657600080fd5b506040519080825280601f01601f191660200182016040528015612591576020820181803683370190505b50859350905060001982015b83156125e257600a840660300160f81b828280600190039350815181106125c057fe5b60200101906001600160f81b031916908160001a905350600a8404935061259d565b50949350505050565b6000610d168383612c7c565b5490565b6000610d168383612c94565b6000610d168383612d5a565b60006121a084846001600160a01b038516612da4565b8154600090821061266b5760405162461bcd60e51b8152600401808060200182810382526022815260200180613ccc6022913960400191505060405180910390fd5b82600001828154811061267a57fe5b9060005260206000200154905092915050565b3b151590565b600054610100900460ff16806126ac57506126ac611f66565b806126ba575060005460ff16155b6126f55760405162461bcd60e51b815260040180806020018281038252602e815260200180613dfb602e913960400191505060405180910390fd5b600054610100900460ff16158015612720576000805460ff1961ff0019909116610100171660011790555b8015612732576000805461ff00191690555b50565b600054610100900460ff168061274e575061274e611f66565b8061275c575060005460ff16155b6127975760405162461bcd60e51b815260040180806020018281038252602e815260200180613dfb602e913960400191505060405180910390fd5b600054610100900460ff161580156127c2576000805460ff1961ff0019909116610100171660011790555b6127206301ffc9a760e01b612e3b565b600054610100900460ff16806127eb57506127eb611f66565b806127f9575060005460ff16155b6128345760405162461bcd60e51b815260040180806020018281038252602e815260200180613dfb602e913960400191505060405180910390fd5b600054610100900460ff1615801561285f576000805460ff1961ff0019909116610100171660011790555b825161287290606a90602086019061315a565b50815161288690606b90602085019061315a565b506128976380ac58cd60e01b612e3b565b6128a7635b5e139f60e01b612e3b565b61201e63780e9d6360e01b612e3b565b8154600090819083106128fb5760405162461bcd60e51b8152600401808060200182810382526022815260200180613e296022913960400191505060405180910390fd5b600084600001848154811061290c57fe5b906000526020600020906002020190508060000154816001015492509250509250929050565b600082815260018401602052604081205482816129cd5760405162461bcd60e51b81526004018080602001828103825283818151815260200191508051906020019080838360005b8381101561299257818101518382015260200161297a565b50505050905090810190601f1680156129bf5780820380516001836020036101000a031916815260200191505b509250505060405180910390fd5b508460000160018203815481106129e057fe5b9060005260206000209060020201600101549150509392505050565b6000612a10846001600160a01b031661268d565b612a1c575060016112dd565b6000612b2a630a85bd0160e11b612a31611bf8565b88878760405160240180856001600160a01b03168152602001846001600160a01b0316815260200183815260200180602001828103825283818151815260200191508051906020019080838360005b83811015612a98578181015183820152602001612a80565b50505050905090810190601f168015612ac55780820380516001836020036101000a031916815260200191505b5095505050505050604051602081830303815290604052906001600160e01b0319166020820180516001600160e01b038381831617835250505050604051806060016040528060328152602001613cee603291396001600160a01b0388169190612ebf565b90506000818060200190516020811015612b4357600080fd5b50516001600160e01b031916630a85bd0160e11b1492505050949350505050565b6000612b78846001600160a01b031661268d565b15612c7457836001600160a01b031663b2763317612b94611bf8565b8786866040518563ffffffff1660e01b8152600401612bb694939291906138ea565b602060405180830381600087803b158015612bd057600080fd5b505af1925050508015612c00575060408051601f3d908101601f19168201909252612bfd918101906134c7565b60015b612c5a573d808015612c2e576040519150601f19603f3d011682016040523d82523d6000602084013e612c33565b606091505b508051612c525760405162461bcd60e51b815260040161221190613ab2565b805181602001fd5b6001600160e01b03191663b276331760e01b1490506112dd565b5060016112dd565b60009081526001919091016020526040902054151590565b60008181526001830160205260408120548015612d505783546000198083019190810190600090879083908110612cc757fe5b9060005260206000200154905080876000018481548110612ce457fe5b600091825260208083209091019290925582815260018981019092526040902090840190558654879080612d1457fe5b60019003818190600052602060002001600090559055866001016000878152602001908152602001600020600090556001945050505050610d19565b6000915050610d19565b6000612d668383612c7c565b612d9c57508154600181810184556000848152602080822090930184905584548482528286019093526040902091909155610d19565b506000610d19565b600082815260018401602052604081205480612e095750506040805180820182528381526020808201848152865460018181018955600089815284812095516002909302909501918255915190820155865486845281880190925292909120556121a3565b82856000016001830381548110612e1c57fe5b90600052602060002090600202016001018190555060009150506121a3565b6001600160e01b03198082161415612e9a576040805162461bcd60e51b815260206004820152601c60248201527f4552433136353a20696e76616c696420696e7465726661636520696400000000604482015290519081900360640190fd5b6001600160e01b0319166000908152603360205260409020805460ff19166001179055565b60606121a0848460008585612ed38561268d565b612f24576040805162461bcd60e51b815260206004820152601d60248201527f416464726573733a2063616c6c20746f206e6f6e2d636f6e7472616374000000604482015290519081900360640190fd5b600080866001600160a01b031685876040518082805190602001908083835b60208310612f625780518252601f199092019160209182019101612f43565b6001836020036101000a03801982511681845116808217855250505050505090500191505060006040518083038185875af1925050503d8060008114612fc4576040519150601f19603f3d011682016040523d82523d6000602084013e612fc9565b606091505b50915091506113f382828660608315612fe35750816121a3565b825115612ff35782518084602001fd5b60405162461bcd60e51b815260206004820181815284516024840152845185939192839260440191908501908083836000831561299257818101518382015260200161297a565b828054600181600116156101000203166002900490600052602060002090601f01602090048101928261307057600085556130b6565b82601f106130895782800160ff198235161785556130b6565b828001600101855582156130b6579182015b828111156130b657823582559160200191906001019061309b565b506130c29291506131d6565b5090565b604051806101c0016040528060006001600160a01b03168152602001600081526020016000815260200160006001600160a01b0316815260200160006001600160a01b03168152602001606081526020016060815260200160608152602001606081526020016000815260200160008152602001600081526020016000600281111561314e57fe5b81526020016000905290565b828054600181600116156101000203166002900490600052602060002090601f01602090048101928261319057600085556130b6565b82601f106131a957805160ff19168380011785556130b6565b828001600101855582156130b6579182015b828111156130b65782518255916020019190600101906131bb565b5b808211156130c257600081556001016131d7565b60006001600160401b038311156131fe57fe5b613211601f8401601f1916602001613c92565b905082815283838301111561322557600080fd5b828260208301376000602084830101529392505050565b80356001600160a01b038116811461067557600080fd5b60008083601f840112613264578182fd5b5081356001600160401b0381111561327a578182fd5b60208301915083602082850101111561217957600080fd5b600082601f8301126132a2578081fd5b610d16838335602085016131eb565b6000602082840312156132c2578081fd5b610d168261323c565b600080604083850312156132dd578081fd5b6132e68361323c565b91506132f46020840161323c565b90509250929050565b600080600060608486031215613311578081fd5b61331a8461323c565b92506133286020850161323c565b9150604084013590509250925092565b6000806000806080858703121561334d578081fd5b6133568561323c565b93506133646020860161323c565b92506040850135915060608501356001600160401b03811115613385578182fd5b8501601f81018713613395578182fd5b6133a4878235602084016131eb565b91505092959194509250565b600080604083850312156133c2578182fd5b6133cb8361323c565b9150602083013580151581146133df578182fd5b809150509250929050565b600080604083850312156133fc578182fd5b6134058361323c565b946020939093013593505050565b60006020808385031215613425578182fd5b82356001600160401b038082111561343b578384fd5b818501915085601f83011261344e578384fd5b81358181111561345a57fe5b6134678485830201613c92565b8181528481019250838501865b8381101561349d5761348b8a888435890101613292565b85529386019390860190600101613474565b509098975050505050505050565b6000602082840312156134bc578081fd5b81356121a381613cb5565b6000602082840312156134d8578081fd5b81516121a381613cb5565b6000602082840312156134f4578081fd5b81356001600160401b03811115613509578182fd5b6112dd84828501613292565b600060208284031215613526578081fd5b5035919050565b6000806040838503121561353f578182fd5b823591506132f46020840161323c565b60008060008060608587031215613564578182fd5b843593506135746020860161323c565b925060408501356001600160401b0381111561358e578283fd5b61359a87828801613253565b95989497509550505050565b600080604083850312156135b8578182fd5b823591506020830135600381106133df578182fd5b6000806000604084860312156135e1578081fd5b8335925060208401356001600160401b038111156135fd578182fd5b61360986828701613253565b9497909650939450505050565b60008060008060006080868803121561362d578283fd5b8535945060208601356001600160401b03811115613649578384fd5b61365588828901613253565b909550935061366890506040870161323c565b91506136766060870161323c565b90509295509295909350565b600080600080600080600060a0888a03121561369c578485fd5b8735965060208801356001600160401b03808211156136b9578687fd5b6136c58b838c01613253565b90985096508691506136d960408b0161323c565b95506136e760608b0161323c565b945060808a01359150808211156136fc578384fd5b506137098a828b01613253565b989b979a50959850939692959293505050565b600080600080600080600080600060c08a8c031215613739578283fd5b8935985060208a01356001600160401b0380821115613756578485fd5b6137628d838e01613253565b909a50985088915061377660408d0161323c565b975061378460608d0161323c565b965060808c0135915080821115613799578485fd5b6137a58d838e01613253565b909650945060a08c01359150808211156137bd578384fd5b506137ca8c828d01613253565b915080935050809150509295985092959850929598565b600080604083850312156137f3578182fd5b8235915060208301356001600160401b0381111561380f578182fd5b61381b85828601613292565b9150509250929050565b60008060408385031215613837578182fd5b50508035926020909101359150565b6001600160a01b03169052565b60008151808452815b818110156138785760208185018101518683018201520161385c565b818111156138895782602083870101525b50601f01601f19169290920160200192915050565b600381106138a857fe5b9052565b60008284528282602086013780602084860101526020601f19601f85011685010190509392505050565b6001600160a01b0391909116815260200190565b6001600160a01b038581168252841660208201526040810183905260806060820181905260009061391d90830184613853565b9695505050505050565b901515815260200190565b60208101610d19828461389e565b6000602082526121a06020830184866138ac565b600060208252610d166020830184613853565b60208082526012908201527173656e6465722063616e742063726561746560701b604082015260600190565b60208082526013908201527210da1a5b19081b1a5b5a5d081c995858da1959606a1b604082015260600190565b60208082526039908201527f5a4e5352656769737472792e5f636865636b4f6e536574436f6e74726f6c6c6560408201527f723a206e6f7420612076616c696420636f6e74726f6c6c657200000000000000606082015260800190565b6020808252601490820152731c185c995b9d08191bd95cdb89dd08195e1a5cdd60621b604082015260600190565b60208082526017908201527f646f6d61696e20646964206e6f742076616c6964617465000000000000000000604082015260600190565b602080825260169082015275191bdb585a5b88185b1c9958591e4818dc99585d195960521b604082015260600190565b6020808252603c908201527f5a4e5352656769737472793a20636f6e74726f6c6c65722073657420746f206e60408201527f6f6e205a4e53436f6e74726f6c6c657220696d706c656d656e74657200000000606082015260800190565b600060208252613b23602083018451613846565b60208301516040830152604083015160608301526060830151613b496080840182613846565b506080830151613b5c60a0840182613846565b5060a08301516101c08060c0850152613b796101e0850183613853565b915060c0850151601f19808685030160e0870152613b978483613853565b935060e08701519150610100818786030181880152613bb68584613853565b945080880151925050610120818786030181880152613bd58584613853565b9088015161014088810191909152880151610160808901919091528801516101808089019190915288015190945091506101a09050613c168187018361389e565b8601519050613c278583018261389e565b5090949350505050565b90815260200190565b600084825260406020830152611b8e6040830184866138ac565b6000838252604060208301526121a06040830184613853565b908152604060208201819052600490820152631493d3d560e21b606082015260800190565b6040518181016001600160401b0381118282101715613cad57fe5b604052919050565b6001600160e01b03198116811461273257600080fdfe456e756d657261626c655365743a20696e646578206f7574206f6620626f756e64734552433732313a207472616e7366657220746f206e6f6e20455243373231526563656976657220696d706c656d656e7465724552433732313a207472616e7366657220746f20746865207a65726f20616464726573734552433732313a206f70657261746f7220717565727920666f72206e6f6e6578697374656e7420746f6b656e4552433732313a20617070726f76652063616c6c6572206973206e6f74206f776e6572206e6f7220617070726f76656420666f7220616c6c4552433732313a2062616c616e636520717565727920666f7220746865207a65726f20616464726573734552433732313a206f776e657220717565727920666f72206e6f6e6578697374656e7420746f6b656e496e697469616c697a61626c653a20636f6e747261637420697320616c726561647920696e697469616c697a6564456e756d657261626c654d61703a20696e646578206f7574206f6620626f756e64734552433732313a20617070726f76656420717565727920666f72206e6f6e6578697374656e7420746f6b656e4552433732313a207472616e73666572206f6620746f6b656e2074686174206973206e6f74206f776e4552433732314d657461646174613a2055524920717565727920666f72206e6f6e6578697374656e7420746f6b656e4552433732313a20617070726f76616c20746f2063757272656e74206f776e65724552433732313a207472616e736665722063616c6c6572206973206e6f74206f776e6572206e6f7220617070726f766564a2646970667358221220c443219f400e58f82a661c8b96fc0f3a226827c5f151e1bc454b2f5343fdf93c64736f6c63430007060033",
  "linkReferences": {},
  "deployedLinkReferences": {}
}